:020000040000FA
:0400000057EF00F0C6
:10000800DE13DE13DE13DE13DE13DE13DE13DE1360
:10001800DE13DE13AC11DE13DE13DE13DE13DE1384
:10002800DE13DE13DE13DE13DE13DE13DE13CA1354
:10003800C413D013DE13BE13DA13DE13DE13131347
:10004800DE13DE13DE13DE132B00DE13DE13DE13E6
:10005800DE13DE13DE13DE13DE13DE13DE13DE1310
:10006800DE13DE13DE13DE13DE13DE13DE13DE1300
:10007800DE13DE132B00DE13DE13DE132B002B0042
:100088002B002B002B002B002B002B00DE13DE1384
:10009800DE13DE13DE13DE132B002B002B002B00E8
:0A00A800DE13DE13FF00C8EF25F0A1
:102000000056657273696F6E20312E300A54656117
:102010006D2035560A5861726973204B65746F677D
:102020006C6F752C566F756C61204B6F6E746F748E
:102030006F6C6900436F6D6D616E64206E6F74200C
:102040007265636F676E697A65642100426C696EC0
:102050006B696E67204C4544206973204F464621CA
:1020600000426C696E6B696E67204C454420697351
:10207000204F4E210043757272656E74204C696D5D
:102080006974207365742100566F6C7461676520F4
:102090007365742100494E46004E414E00696E66DC
:1020A000006E616E006C660025660000000E000187
:1020B000916F000E906F6000B0F1A2F06000B4F17B
:1020C000A3F06000B8F1A4F06000BCF1A5F0A5AFEA
:1020D0001ED0000E916F010E906F600088F214F018
:1020E00060008CF215F0600090F216F0600094F23F
:1020F00017F0B8EC26F0600050F0A2F0600054F049
:10210000A3F0600058F0A4F060005CF0A5F0000EB1
:102110000001A96F000EA86F600004F195F0600047
:1021200008F196F090519111D8A402D045A414D092
:1021300090519111D8A404D0000E7B6F2B0E03D0C8
:10214000000E7B6F2D0E7A6F6000E8F120F1A84B36
:10215000A92B9507D8A09607600088F214F06000BC
:102160008CF215F0600090F216F0600094F217F017
:1021700054EC20F014041510D8A452D0BF0E000166
:10218000716FFF0E726F7051736F746B71517327A3
:1021900072517423745106E11A0E735DD8B002D0E7
:1021A000010E01D0000E7C6F7D6B7C517D11D8B487
:1021B0000DD0200EA825146E010EA921156E950EC6
:1021C000166E200E176E63EC25F00CD0200EA8259D
:1021D000146E010EA921156E9D0E166E200E176E3F
:1021E00063EC25F00001FD0E9527FF0E962360009D
:1021F000A8F124F06000ACF125F0200E266E010E4F
:10220000276E600054F228F0600058F229F057EC75
:1022100022F0600090F06AF0600094F06BF0120021
:10222000600088F214F060008CF215F0600090F20B
:1022300016F0600094F217F054EC20F014501510D2
:10224000D8A435D0BF0E0001716FFF0E726F7051B0
:10225000736F746B7151732772517423745106E15B
:102260001A0E735DD8B002D0010E01D0000E7E6F41
:102270007F6B7E517F11D8B40DD0200EA825146E2F
:10228000010EA921156E990E166E200E176E63ECC5
:1022900025F0A8D7200EA825146E010EA921156ED1
:1022A000A10E166E200E176E63EC25F09BD7000E64
:1022B0000001AA6F000EAB6F800EAC6F3F0EAD6FCA
:1022C000000EA76F000EA66F600088F214F0600089
:1022D0008CF215F0600090F216F0600094F217F0A6
:1022E000000E186E000E196E000E1A6E000E1B6E98
:1022F000F2EC23F0D8A026D09AD06000A8F214F017
:102300006000ACF215F06000B0F216F06000B4F2BC
:1023100017F0000E186E000E196E200E1A6E410E88
:102320001B6E01EC16F0600050F0AAF0600054F053
:10233000ABF0600058F0ACF060005CF0ADF0000174
:10234000A64BA72B600088F22DF060008CF22EF0D7
:10235000600090F22FF0600094F230F0000E186EE2
:10236000000E196E200E1A6E410E1B6E6000A8F250
:1023700014F06000ACF215F06000B0F216F06000EE
:10238000B4F217F001EC16F0600050F031F060008C
:1023900054F032F0600058F033F060005CF034F03C
:1023A000CAEC20F0D8A027D0A8D76000A8F214F07B
:1023B0006000ACF215F06000B0F216F06000B4F20C
:1023C00017F0000E186E000E196E200E1A6E410ED8
:1023D0001B6E48EC1BF0600050F0AAF0600054F057
:1023E000ABF0600058F0ACF060005CF0ADF00001C4
:1023F000A607D8A0A707600088F22DF060008CF235
:102400002EF0600090F22FF0600094F230F0600047
:10241000A8F231F06000ACF232F06000B0F233F0BC
:102420006000B4F234F0CAEC20F0D8A0BED760004F
:10243000C0F11AF01B6A51EC26F01A500001976F98
:1024400060005CF294F0670E9719D8A41BD043503B
:102450004410D8A404D0000E446E010E436E44BE56
:1024600005D0445008E14304D8B005D0000E936F66
:10247000060E926F0AD060000CF192F0600010F12D
:1024800093F003D044AEF7D7F1D7670E9719D8A4CD
:1024900024D0A7AF06D0FC0EA65DFF0EA759D8A08A
:1024A0001AD0FF0E716FFF0E726F600048F273F06A
:1024B00060004CF274F07151732772517423A6516D
:1024C000735D7451800A756FA751800A7559D8A041
:1024D00002D0660E01D0650E946F600048F28AF05B
:1024E00060004CF28BF0670E9719D8A405D0660EE9
:1024F0009419D8B4A7AF02D08A4B8B2B660E9419CF
:10250000D8A416D0A7AF0CD0000EAA6F000EAB6FE8
:10251000800EAC6F3F0EAD6F000EA76F000EA66F62
:10252000670E9719D8B404D0A6518A27A7518B23D8
:10253000000EA16F000EA06F600088F298F060009E
:102540008CF299F0600090F29AF0600094F29BF0A7
:102550006000A8F276F06000ACF277F06000B0F2B4
:1025600078F06000B4F279F0ADD0600060F214F061
:10257000600064F215F0600068F216F060006CF222
:1025800017F06000A8F218F06000ACF219F06000DB
:10259000B0F21AF06000B4F21BF048EC1BF06000DF
:1025A00050F02DF0600054F02EF0600058F02FF045
:1025B00060005CF030F0B4EC1DF06000B4F09CF012
:1025C0006000B8F09DF06000BCF09EF06000C0F0CC
:1025D0009FF0600070F214F0600074F215F060007B
:1025E00078F216F060007CF217F099EC21F06000B0
:1025F00050F08EF0600054F08FF0600060F22DF02B
:10260000600064F22EF0600068F22FF060006CF25F
:1026100030F06000A8F218F06000ACF219F0600031
:10262000B0F21AF06000B4F21BF0600070F214F027
:10263000600074F215F0600078F216F060007CF231
:1026400017F001EC16F0600050F031F0600054F02B
:1026500032F0600058F033F060005CF034F0F7ECDA
:1026600025F06000B4F098F06000B8F099F06000D8
:10267000BCF09AF06000C0F09BF06000A8F214F08B
:102680006000ACF215F06000B0F216F06000B4F239
:1026900017F0000E186E000E196E200E1A6E410E05
:1026A0001B6E48EC1BF0600050F0AAF0600054F084
:1026B000ABF0600058F0ACF060005CF0ADF00001F1
:1026C000A04BA12B8A51A05DA151800A716F8B5143
:1026D000800A7159D8A049D76000A8F214F06000B0
:1026E000ACF215F06000B0F216F06000B4F217F032
:1026F000000E186E000E196EA00E1A6E400E1B6EA4
:1027000001EC16F0600050F09CF0600054F09DF079
:10271000600058F09EF060005CF09FF0600060F296
:102720002DF0600064F22EF0600068F22FF060007F
:102730006CF230F0600070F231F0600074F232F050
:10274000600078F233F060007CF234F0CAEC20F0E4
:10275000D8B003D0000E000120D0600060F214F069
:10276000600064F215F0600068F216F060006CF230
:1027700017F0600070F218F0600074F219F0600059
:1027800078F21AF060007CF21BF0F2EC23F0D8A093
:102790000BD000018EB108D0000E9C6F000E9D6F13
:1027A000000E9E6F000E9F6F600088F214F06000B4
:1027B0008CF215F0600090F216F0600094F217F0C1
:1027C000600070F218F0600074F219F0600078F2A6
:1027D0001AF060007CF21BF0A4EC19F0600050F0DD
:1027E00098F0600054F099F0600058F09AF06000A2
:1027F0005CF09BF06000D8F1AAF06000DCF1ABF077
:102800006000E0F1ACF06000E4F1ADF0650E0001B5
:102810009419D8B407D0600098F28CF060009CF254
:102820008DF004D0000E8D6F000E8C6F000E896F3E
:10283000000E886F000E876F000E866F000EA16F6E
:10284000000EA06FF9D0600060F214F0600064F236
:1028500015F0600068F216F060006CF217F060008E
:10286000A8F218F06000ACF219F06000B0F21AF0B3
:102870006000B4F21BF048EC1BF0600050F02DF04B
:10288000600054F02EF0600058F02FF060005CF013
:1028900030F0B4EC1DF06000B4F09CF06000B8F0D3
:1028A0009DF06000BCF09EF06000C0F09FF0600002
:1028B00070F214F0600074F215F0600078F216F017
:1028C00060007CF217F099EC21F0600050F08EF07F
:1028D000600054F08FF045B80DD000018E518F117B
:1028E000D8A408D0670E9719D8B48DAF03D0864B03
:1028F000872B3AD0000188518911D8B48DAF22D0EE
:10290000200EA825D96E010EA921DA6E2E0EDF6EDB
:10291000A84BA92B9507D8A09607000E896F010E2A
:10292000886F10D0200EA825D96E010EA921DA6E6D
:10293000300EDF6EA84BA92B9507D8A09607860707
:10294000D8A0870786518711D8A4ECD7200EA825D8
:10295000D96E010EA921DA6E8E51300FDF6EA84BB1
:10296000A92B9507D8A09607600060F22DF06000B3
:1029700064F22EF0600068F22FF060006CF230F02C
:102980006000A8F218F06000ACF219F06000B0F23C
:102990001AF06000B4F21BF0600070F214F06000F6
:1029A00074F215F0600078F216F060007CF217F017
:1029B00001EC16F0600050F031F0600054F032F09D
:1029C000600058F033F060005CF034F0F7EC25F074
:1029D0006000B4F098F06000B8F099F06000BCF0CE
:1029E0009AF06000C0F09BF06000A8F214F0600064
:1029F000ACF215F06000B0F216F06000B4F217F01F
:102A0000000E186E000E196E200E1A6E410E1B6E0F
:102A100048EC1BF0600050F0AAF0600054F0ABF0FE
:102A2000600058F0ACF060005CF0ADF000018C0785
:102A3000D8A08D07A04BA12B8A51A05DA151800A7F
:102A4000716F8B51800A7159D8B008D0A9BFFBD6DD
:102A5000A95104E14B0EA85DD8A0F5D68851891183
:102A6000D8B445A80AD0200EA825D96E010EA921F8
:102A7000DA6E2E0EDF6EA84BA92B200EA825D96E7C
:102A8000010EA921DA6E000EDF6E650E9419D8A42E
:102A9000F7EF10F0000EA16F4F0EA06F200EA025D3
:102AA000D96E010EA121DA6E000EDF6E000E916F5D
:102AB000000E906FA7AF08D0000E916F010E906FBF
:102AC000A66DA71FD8B0A72B000E936F020E926FB2
:102AD00031D0A007D8A0A107200EA025D96E010EE5
:102AE000A121DA6E600098F214F060009CF215F0FB
:102AF000000E176E0A0E166EBCEC24F01450300F48
:102B0000DF6E600098F214F060009CF215F0000E89
:102B1000176E0A0E166E37EC24F0600050F0A6F027
:102B2000600054F0A7F000019207D8A09307950722
:102B3000D8A09607A651A711D8A4CBD793BF05D08C
:102B40009351C7E19205D8B0C4D7A007D8A0A10778
:102B500090519111D8A404D0000E816F2B0E03D098
:102B6000000E816F2D0E806F200EA025D96E010EF4
:102B7000A121DA6E600003F2DFFF9507D8A0960767
:102B8000A007D8A0A107BF0E716FFF0E726F705122
:102B9000736F746B7151732772517423745106E112
:102BA0001A0E735DD8B002D0010E01D0000E846FF2
:102BB000856B84518511D8A404D0000E836F650EF7
:102BC00003D0000E836F450E826F200EA025D96EB4
:102BD000010EA121DA6E60000BF2DFFF9507D8A08D
:102BE0009607200EA825146E010EA921156E200E41
:102BF000A025166E010EA121176E63EC25F0F7EFEC
:102C000010F01750800B206E17501724266E16BE3A
:102C100026802650D8B40DD02628D8A408D0000E7F
:102C2000146E000E156E000E166E000E176E168EC8
:102C300008D0000E146E000E156E000E166E000EFB
:102C4000176E1B50800B201A1B501B24216E1ABEBE
:102C500021802150D8B40DD02128D8A408D0000E4E
:102C6000186E000E196E000E1A6E000E1B6E1A8E74
:102C700008D0000E186E000E196E000E1A6E000EAF
:102C80001B6E2150D8B403D02650D8A409D0000E12
:102C9000146E000E156E000E166E000E176E1200EA
:102CA0001A5014026F00CCFF2BF06F00D0FF2CF0F5
:102CB0002B50226E236A246A256A2C50276E286ABC
:102CC000296A2A6A195015026F00CCFF2BF06F0099
:102CD000D0FF2CF02B502226000E23222422252266
:102CE0002C502726000E282229222A2218501602AC
:102CF0006F00CCFF2BF06F00D0FF2CF02B50222662
:102D0000000E2322242225222C502726000E2822C2
:102D100029222A22600090F025F060008CF024F037
:102D2000600088F023F0226A185015026F00CCFF73
:102D30002BF06F00D0FF2CF02B5022262C5023229A
:102D4000000E2422000E2522195014026F00CCFF21
:102D50002BF06F00D0FF2CF02B5022262C5023227A
:102D6000000E2422000E2522600090F025F0600065
:102D70008CF024F0600088F023F0226A18501402CE
:102D80006F00CCFF2BF06F00D0FF2CF02B502226D1
:102D90002C502322000E2422000E25221A50150248
:102DA0006F00CCFF2BF06F00D0FF2CF02B502726AC
:102DB0002C502822000E2922000E2A221950160219
:102DC0006F00CCFF2BF06F00D0FF2CF02B5027268C
:102DD0002C502822000E2922000E2A221A501602F8
:102DE0006F00CCFF2BF06F00D0FF2CF02B501C6E2F
:102DF0002C501D6E1E6A1F6A600078F01FF0600084
:102E000074F01EF0600070F01DF01C6A1C50272644
:102E10001D5028221E5029221F502A22600088F0AF
:102E20001CF060008CF01DF0600090F01EF060005F
:102E300094F01FF0190E05D0D8901F321E321D32AB
:102E40001C32E82EF9D71C5027261D5028221E5070
:102E500029221F502A22600090F025F060008CF09B
:102E600024F0600088F023F0226A2150600098F07E
:102E70001CF01D6A1C26000E1D22820E1C242B6EC7
:102E8000FF0E1D202C6E0FD0D890273628362936FD
:102E90002A3625BE2780D89022362336243625367A
:102EA0002B06D8A02C0629AEEFD7000E216E25AE3A
:102EB00017D0FF0E22141C6EFF0E23141D6EFF0E82
:102EC00024141E6E7F0E25141F6E1C501D101E1024
:102ED0001F10D8B403D0010E216E02D027B0FBD74B
:102EE0002150D8B427D0010E2726000E28222922EF
:102EF0002A222AA01FD060009CF01CF06000A0F0E5
:102F00001DF06000A4F01EF06000A8F01FF01F3458
:102F10001F321E321D321C32600070F027F060003C
:102F200074F028F0600078F029F060007CF02AF05E
:102F30002B4A2C2A2CBE0DD02C5003E12B28D8A0D4
:102F400008D0000E276E000E286E800E296E7F0EB0
:102F500021D02CBE05D02C500EE12B04D8B00BD0C4
:102F6000000E276E000E286E000E296E000E2A6ECF
:102F7000000E206E10D06000ACF026F0FF0E271679
:102F8000FF0E28167F0E2916000E2A1626B0298E4F
:102F9000D89026302A6E20502A1260009CF014F03F
:102FA0006000A0F015F06000A4F016F06000A8F03A
:102FB00017F012006000C3F2D9FF6000C7F2DAFF19
:102FC0006F007BFFF6FF6F0077FFF7FF000EF86ED4
:102FD0000800F550250AD8A493D16000C3F2D9FFA8
:102FE0006000C7F2DAFFDE2A000EDD22000E426E1C
:102FF000000E416E600004F145F0600008F146F0FB
:10300000436844686000C3F2D9FF6000C7F2DAFF8A
:103010006F007BFFF6FF6F0077FFF7FF000EF86E83
:103020000800F5501A6E1B6A51EC26F01A50000188
:10303000BA6FBA51D8B445D06000C3F2D9FF60006E
:10304000C7F2DAFF6F0078FF39F06F0074FF3AF0D3
:10305000010E3926000E3A226000E7F0F6FF60000C
:10306000EBF0F7FF000EF86E0800F5501A6E1B6AC1
:1030700051EC26F01A500001BB6FBB51D8B421D0DF
:103080006000C3F2D9FF6000C7F2DAFF6F0078FF7B
:1030900039F06F0074FF3AF0020E3926000E3A2222
:1030A0006000E7F0F6FF6000EBF0F7FF000EF86E4F
:1030B0000800F5501A6E1B6A51EC26F01A500001F8
:1030C000BC6F660EBA19D8A45BD06000C3F2D9FFFA
:1030D0006000C7F2DAFF6F007BFFF6FF6F0077FF3B
:1030E000F7FF000EF86E08006F00D4FFBDF060001F
:1030F000C3F2D9FF6000C7F2DAFFDE2A000EDD223C
:103100006000CBF2D9FF6000CFF2DAFF6F007CFFE6
:1031100039F0040EDE266F007CFF3AF0000EDD224F
:103120006000E7F0D9FF6000EBF0DAFF6F0078FF96
:10313000B6F06F0078FFB7F06F0078FFB8F06F005F
:1031400078FFB9F06000B8F26AF06000BCF26BF092
:103150006000D8F26CF06000DCF26DF06000E0F22C
:103160006EF06000E4F26FF06000F4F270F056EC84
:1031700010F06000A8F1AEF06000ACF1AFF012000A
:10318000BA0E146E000E156EA50E166E200E176E7A
:10319000000E196E020E186E32EC21F0145015104C
:1031A000D8A471D06000C3F2D9FF6000C7F2DAFF83
:1031B0006F0078FF39F06F0074FF3AF0010E392686
:1031C000000E3A226000E7F0F6FF6000EBF0F7FF38
:1031D000000EF86E08006F00D4FFBDF0BF0E396E10
:1031E000FF0E3A6E6000C3F2D9FF6000C7F2DAFF4B
:1031F0006F007BFFF6FF6F0077FFF7FF000EF86EA2
:103200000800F5503B6E3C6A39503B263A503C2250
:103210003C5006E11A0E3B5CD8B002D0010E01D042
:10322000000E0001B46FB56BB451B5116000CBF264
:10323000D9FF6000CFF2DAFF6F007CFF39F0040E97
:10324000DE266F007CFF3AF0000EDD226000E7F022
:10325000D9FF6000EBF0DAFF6F0078FFB6F06F0087
:1032600078FFB7F06F0078FFB8F06F0078FFB9F023
:10327000020E6000C3F2D9FF6000C7F2DAFFDE265B
:10328000000EDD225FD76000C3F2D9FF6000C7F2F5
:10329000DAFF6F007BFFF6FF6F0077FFF7FF000E8E
:1032A000F86E0800F550250AD8A41BD06000C3F2C0
:1032B000D9FF6000C7F2DAFFDE2A000EDD22000E21
:1032C000156E250E146E6000B8F216F06000BCF2A8
:1032D00017F0B0EC22F0000E0001AF6F010EAE6FE0
:1032E00012006000C3F2D9FF6000C7F2DAFFDE2AE5
:1032F000000EDD22000E0001AF6F000EAE6F120057
:103300006000C3F2D9FF6000C7F2DAFF6F007BFFF5
:10331000F6FF6F0077FFF7FF000EF86E0800F5501C
:10332000146E156A6000B8F216F06000BCF217F077
:10333000B0EC22F06000C3F2D9FF6000C7F2DAFF00
:10334000DE2A000EDD22C7D71750800B206E1750E3
:103350001724226E16BE22802250D8B40DD0222807
:10336000D8A408D0000E146E000E156E000E166E56
:10337000000E176E168E06D0000E146E000E156E1F
:10338000000E166E000E176E1B50800B216E205023
:103390002118D8A4208C1B501B24216E1ABE21801A
:1033A0002150D8B40DD02128D8A408D0000E186E12
:1033B000000E196E000E1A6E000E1B6E1A8E06D0CD
:1033C000000E186E000E196E000E1A6E000E1B6EA7
:1033D0002250215CD8B031D020AC02D0800E201A0F
:1033E000600088F023F0600084F022F060008CF030
:1033F00021F0600050F023F0600060F014F06000F5
:103400008CF018F0600054F023F0600064F015F0C8
:1034100060008CF019F0600058F023F0600068F054
:1034200016F060008CF01AF060005CF023F0600091
:103430006CF017F060008CF01BF0000E236E225031
:10344000600084F01CF01D6A1C5E000E1D5A1DBE3B
:103450002DD01D5004E11A0E1C5CD8A027D01450AA
:10346000151016101710D8B402D0010E01D0000E9E
:10347000236E000E146E000E156E000E166E000EFA
:10348000176E600084F022F015D023A005D0D890EC
:1034900023300109236E02D0D890233214B0238E3A
:1034A00017341732163215321432222A2150225C78
:1034B000D8A0EBD720BC28D02250D8A409D0000E29
:1034C000146E000E156E000E166E000E176E1200B2
:1034D00018501426195015221A5016221B50172264
:1034E00017A071D023A005D0D89023300109236EF6
:1034F00002D0D890233214B0238E173417321632EC
:1035000015321432222A5FD01850145C1950155805
:103510001A5016581750800A1C6E1B50800A1C58EF
:10352000D8B025D01450185C1C6E155019581D6E5B
:1035300016501A581E6E17501B581F6EFF0E1C2473
:10354000146EFF0E1D20156EFF0E1E20166EFF0E50
:103550001F20176E800E201A236C2350D8A40FD082
:10356000010E1426000E15221622172208D018501C
:10357000145E1950155A1A50165A1B50175A1450E7
:10358000151016101710D8A41CD02350D8A419D089
:10359000000E146E000E156E000E166E000E176EE5
:1035A0001200D890143615361636173623BE1480FE
:1035B00023A002D0D88001D0D89023362250D8A49E
:1035C000220616AEEED7000E216E23AE0CD06000A0
:1035D0008CF01CF07F0E1C16D8B403D0010E216EA7
:1035E00002D014B0FBD72150D8B428D0010E142635
:1035F000000E15221622172217A020D0600050F0CE
:103600001CF0600054F01DF0600058F01EF06000E7
:103610005CF01FF01F341F321E321D321C3260005E
:1036200070F014F0600074F015F0600078F016F09F
:1036300060007CF017F02228D8A4222A2228D8B4CF
:1036400003D02250D8A40DD0000E146E000E156EBB
:10365000000E166E000E176E2250D8A402D0000E77
:10366000206E22A002D0168E01D0169ED890223055
:10367000176E20BE178E600050F014F0600054F0FA
:1036800015F0600058F016F060005CF017F01200C2
:103690001750800B246E175017242B6E16BE2B80EC
:1036A0002B50D8B40DD02B28D8A408D0000E146EFF
:1036B000000E156E000E166E000E176E168E06D0DA
:1036C000000E146E000E156E000E166E000E176EB4
:1036D0001B50800B241A1B501B242C6E1ABE2C80EE
:1036E0002C50D8B40DD02C28D8A408D0000E186EB9
:1036F000000E196E000E1A6E000E1B6E1A8E06D08A
:10370000000E186E000E196E000E1A6E000E1B6E63
:10371000185019101A101B10D8A41BD0000E146ECC
:10372000000E156E000E166E000E176E800E16122D
:103730007F0E171224501712600050F014F0600032
:1037400054F015F0600058F016F060005CF017F0CF
:1037500012002B50D8A409D0000E146E000E156E66
:10376000000E166E000E176E12002C506000ACF0AA
:103770001CF01D6A1C5E000E1D5A7F0E1C24256E57
:10378000000E1D20266E600050F020F0600054F006
:1037900021F0600058F022F060005CF023F0000E91
:1037A000146E000E156E000E166E000E176E000ED3
:1037B000276E000E286E000E296E000E2A6E000E77
:1037C0002C6E28D02C50D8B411D0D8902036213669
:1037D00022362336D89014361536163617362ABEBA
:1037E0001480D8902736283629362A361850205C7F
:1037F000195021581A5022581B502358D8A009D0CC
:103800002A8C1850205E1950215A1A50225A1B50E7
:10381000235A2C2A190E2C64D5D72050211022109F
:103820002310D8B411D027800FD0D8901436153675
:10383000163617362ABE1480D890273628362936F1
:103840002A362506D8A0260616AEEFD7000E2C6E17
:103850002AAE17D0FF0E27141C6EFF0E28141D6E03
:10386000FF0E29141E6E7F0E2A141F6E1C501D1091
:103870001E101F10D8B403D0010E2C6E02D014B04D
:10388000FBD72C50D8B427D0010E1426000E1522D9
:103890001622172217A01FD0600050F01CF0600005
:1038A00054F01DF0600058F01EF060005CF01FF056
:1038B0001F341F321E321D321C32600070F014F0B3
:1038C000600074F015F0600078F016F060007CF095
:1038D00017F0254A262A26BE10D0265003E12528B7
:1038E000D8A00BD0000E266E2568000E146E000EB8
:1038F000156E000E166E000E176E26BE05D02650F1
:1039000011E12504D8B00ED0000E266E000E256EF3
:10391000000E146E000E156E000E166E000E176E61
:10392000000E246E600094F02BF02BA002D0168EB7
:1039300001D0169ED8902B30176EFCD6700E146EE8
:10394000010E156E000E166E000E186E370E176EF5
:10395000D3EC26F00001FA51D8A48BD0E4D060005B
:10396000BCF314F06000C0F315F06000C4F316F06F
:103970006000C8F317F0680E186EE80E196E9F0EFF
:103980001A6E3A0E1B6E01EC16F0600050F0EFF06C
:10399000600054F0F0F0600058F0F1F060005CF06E
:1039A000F2F0700E0001C66F010EC76FA80EC86F4F
:1039B000200EC96F6000BCF3CAF06000C0F3CBF00A
:1039C0006000C4F3CCF06000C8F3CDF097EC25F0B4
:1039D000BCD06000ACF314F06000B0F315F06000F0
:1039E000B4F316F06000B8F317F0680E186EE80E26
:1039F000196E9F0E1A6E3A0E1B6E01EC16F06000E7
:103A000050F0EBF0600054F0ECF0600058F0EDF096
:103A100060005CF0EEF0700E0001C66F010EC76F23
:103A2000A80EC86F200EC96F6000ACF3CAF060002A
:103A3000B0F3CBF06000B4F3CCF06000B8F3CDF09D
:103A400097EC25F082D0700EC66F010EC76F010E85
:103A5000C86F200EC96F97EC25F077D0700EC66F37
:103A6000010EC76F340EC86F200EC96F97EC25F09A
:103A70006CD0F951CE6FCF6BCF51000AD8A4EED7DE
:103A8000CE51000AD8B46BD7010AD8B4A2D7030A22
:103A9000D8B4D9D7E3D7F551F611D8B40DD0010E6B
:103AA000F76F700EC66F010EC76F610EC86F200EE4
:103AB000C96F97EC25F049D0000EF76F700EC66FF6
:103AC000010EC76F4C0EC86F200EC96F97EC25F022
:103AD0003CD06000D4F320F06000D8F321F038EC43
:103AE00027F0700E0001C66F010EC76F880EC86FF9
:103AF000200EC96F97EC25F028D0700EC66F010E0E
:103B0000C76F750EC86F200EC96F97EC25F01DD0DA
:103B1000700EC66F010EC76F340EC86F200EC96FCE
:103B200097EC25F012D0F951CE6FCF6BCF51000A30
:103B3000D8A4EED7CE51000AD8B4ADD7010AD8B474
:103B4000C8D7030AD8B4D9D7E3D7700E186E010EC0
:103B5000196E9AEC26F0600050F01AF0600054F0F4
:103B60001BF0A6EC23F0120060009CF366F06000EE
:103B7000A0F367F06000A4F368F06000A8F369F0B8
:103B80006000B4F066F06000B8F067F06000BCF070
:103B900068F06000C0F069F0810E316EFF0E326E89
:103BA000600098F133F060009CF134F06000A0F107
:103BB00035F06000A4F136F0180E05D0D8903632FA
:103BC000353234323332E82EF9D733503124000104
:103BD000646F000E3220656F65BF13D0655104E13C
:103BE000170E645DD8A00DD06000B4F02DF0600019
:103BF000B8F02EF06000BCF02FF06000C0F030F0A4
:103C0000120065BF68D0600090F131F0FF0E326E97
:103C1000FF0E336E7F0E346E000E356E316601D0AE
:103C200007D035343532343233323232312EF6D792
:103C30006000C8F060F06000CCF061F06000D0F08F
:103C400062F06000D4F063F0000160516615316EDF
:103C500061516715326E62516815336E6351691593
:103C6000346E3150321033103410D8B4BDD76000E8
:103C700098F131F060009CF132F06000A0F133F077
:103C80006000A4F134F0200E05D0D89034323332E5
:103C900032323132E82EF9D731503210331034102D
:103CA000D8B408D0605166276151672362516823F8
:103CB00063516923601D316E611D326E621D336E6A
:103CC000631D346E315066173250671733506817D2
:103CD000345069173AD0600098F131F060009CF1DF
:103CE00032F06000A0F133F06000A4F134F0200E57
:103CF00005D0D8903432333232323132E82EF9D70F
:103D00003150321033103410D8A408D0000E666F32
:103D1000000E676F000E686F000E16D0D8906635E3
:103D2000316E6735326E6835336E6935346E3150B9
:103D3000321033103410D8B408D0000E666F000E65
:103D4000676F800E686FBF0E696F600098F12DF08D
:103D500060009CF12EF06000A0F12FF06000A4F153
:103D600030F012004B50D8A402D0000E12004B04C9
:103D7000D8A40CD0570E01010019D8B407D0520EA8
:103D80000019D8B403D0000E4B6EEFD7520E0101CC
:103D90000019D8A435D0020E4B18D8A407D02F0E86
:103DA0000165F1D7390E016501D0EDD7030E4B182F
:103DB000D8A404D00D0E0219D8A4E5D7040E4B18D0
:103DC000D8A4D3D7520E0019D8A4DDD72F0E016581
:103DD000DAD73A0E0161D7D70D0E0219D8A4D3D77E
:103DE0000A0E0319D8A4CFD7010E0001FA6F010102
:103DF0000151D00F0001F96F000E4B6E010E120041
:103E0000570E0019D8A4B1D7020E4B18D8A407D06A
:103E10002F0E0165B8D7390E016501D0B4D7030E56
:103E20004B18D8A407D02F0E0265ADD7390E026506
:103E300001D0A9D7040E4B18D8A407D02F0E0365C4
:103E4000A2D7390E036501D09ED7050E4B18D8A412
:103E500007D02F0E046597D7390E046501D093D78C
:103E6000060E4B18D8A407D02F0E05658CD7390E37
:103E7000056501D088D7070E4B18D8A404D00D0EC5
:103E80000619D8A480D7080E4B18D8A46ED7570EA1
:103E90000019D8A478D72F0E016575D73A0E0161A5
:103EA00072D72F0E02656FD73A0E02616CD72F0EB4
:103EB000036569D73A0E036166D72F0E046563D791
:103EC0003A0E046160D72F0E05655DD73A0E056185
:103ED0005AD70D0E0619D8A456D70A0E0719D8A41A
:103EE00052D7000E0001FA6F01010151D00F0001FD
:103EF000F96F600008F414F0156A030E176EE80EEF
:103F0000166E21EC27F001010351640D6F00CCFF08
:103F10001AF06F00D0FF1BF004510A0DF3501A265F
:103F2000F4501B2214501A2615501B2205511A2634
:103F3000000E1B22B00E1A240001F56F2F0E1B205D
:103F4000F66F5AD70A6E0A50D8A405AE22D0600088
:103F500008F006F060000CF007F0600010F008F0C8
:103F6000600014F009F0061E071E081E091E062A2E
:103F7000000E072208220922600018F00CF06000F1
:103F80001CF00DF0600020F00EF0600024F00FF047
:103F90000CD0600008F00CF060000CF00DF0600038
:103FA00010F00EF0600014F00FF002500310041037
:103FB0000510D8A409D0000E026E000E036E000E8C
:103FC000046E000E056E1200960E0B6E06D00B2AC4
:103FD000D8900F320E320D320C32000E0C14066ED9
:103FE000000E0D14076E000E0E14086EFE0E0F1458
:103FF000096E0650071008100910D8B40DD0E7D785
:104000000B2A010E0C26000E0D220E220F22D89034
:104010000F320E320D320C32000E0C14066E000EF2
:104020000D14076E000E0E14086EFF0E0F14096EAD
:104030000650071008100910D8B407D0E1D70B06B6
:10404000D8900C360D360E360F360EBE03D0020E4B
:104050000B60F5D70BA00E9ED8900B3260002CF0B1
:1040600006F0076A086A096A600018F009F0086A31
:10407000076A066A06500C1207500D1208500E12FD
:1040800009500F120A50D8A405AE01D00F8E60005F
:1040900030F002F0600034F003F0600038F004F01B
:1040A00060003CF005F012006000F4F01EF06000CB
:1040B000F8F01FF06000FCF020F0600000F121F04B
:1040C000600050F01EF0600054F01FF0600058F0E7
:1040D00020F060005CF021F0600078F018F06000E3
:1040E0007CF019F0600080F01AF0600084F01BF0A2
:1040F000180E05D0D8901B321A3219321832E82E19
:10410000F9D718501C6E1D6A1C501D10D8A419D068
:10411000D8901E34186E1F34196E20341A6E213454
:104120001B6E185019101A101B10D8A405D0000EC1
:10413000156E020E146E1200000E156E030E146E34
:1041400012001C281D10D8A420D0600078F018F0B0
:1041500060007CF019F0600080F01AF0600084F0DC
:104160001BF0090ED890183619361A361B36E82E71
:10417000F9D7185019101A101B10D8A402D0010E2C
:1041800001D0000E146E156A1200000E156E040E9A
:10419000146E1200000E2D14356E000E2E14366EA5
:1041A000800E2F14376E7F0E3014386E3550361057
:1041B00037103810D8A408D0000E2D6E000E2E6EC9
:1041C000000E2F6E000E306E000E3114356E000E94
:1041D0003214366E800E3314376E7F0E3414386E00
:1041E0003550361037103810D8A408D0000E316E74
:1041F000000E326E000E336E000E346E30AE09D0FB
:104200002D6C2E1ED8B02E2A2F1ED8B02F2A800E2D
:10421000305634AE09D0316C321ED8B0322A331E3B
:10422000D8B0332A800E3456000E2D1A000E2E1AE6
:10423000000E2F1A800E301A000E311A000E321A9C
:10424000000E331A800E341A31502D5C32502E5825
:1042500033502F5834503058D8B002D0D890120074
:10426000D8801200600050F01BF0600054F01CF089
:10427000600058F01DF060005CF01EF01806D8A039
:10428000190618280FE11928D8A40CD0000E156EB5
:10429000000E146E12001B4A1C2A1D4A1E2A180604
:1042A000D8A0190660006FF0D9FF600073F0DAFF44
:1042B000DF50D8B426D0600077F0F6FF60007BF0C6
:1042C000F7FF000EF86E0800F5500009D8B419D0B9
:1042D00018501910D8B415D060006FF0D9FF6000E5
:1042E00073F0DAFFDF501A6E600077F0F6FF6000BF
:1042F0007BF0F7FF000EF86E0800F5501A18D8B4DE
:10430000CAD760006FF0D9FF600073F0DAFFDF50AA
:104310001A6E600077F0F6FF60007BF0F7FF000E8A
:10432000F86E0800F5501A5C146E156AD8A01506D0
:104330001200163417341D6E1D50D8A409D0000E7B
:10434000146E000E156E000E166E000E176E120023
:10435000600050F018F0600054F019F0600058F060
:104360001AF060005CF01BF0200E05D0D8901B32D4
:104370001A3219321832E82EF9D718501C6E168EE0
:10438000FF0E1416FF0E1516FF0E1616000E17164A
:10439000960E1D5E1DAE0DD01D50800A970FD8A041
:1043A000CED7D89017321632153214321D3EF9D7B7
:1043B0000DD01F0E1D6407D0C2D7D8901436153605
:1043C000163617361D061D50D8A4F7D71C50D8B482
:1043D00008D0171E161E151E146C000E152216226C
:1043E0001722600050F014F0600054F015F06000E7
:1043F00058F016F060005CF017F01200080E39015A
:10440000DF6F000EDE6F400EDD6FDCBD02D0DCA57D
:10441000FCD7010ED46E070E5C6F3F0E5B6F3A0146
:10442000BF915FEC27F0010E7BEC24F04EEC27F0FF
:104430002DEC25F0D28ED28CD28AC2903A014081E6
:10444000010E0001F76FC2923A014083BA92C39401
:10445000C396BB84BB86A30E0001D16F570ED06FED
:10446000020EE82EFED7D02FFCD7D12FFAD700F0BE
:104470001C0E0001FB6F020EFC6FFB0E146E000E93
:10448000156E020E166E5E0E176E07EC23F000011D
:10449000F851D8B4FCD7040EFB6FB2EC1EF000014B
:1044A000D26FD251D8B4F9D79EEC1CF0F6D745A004
:1044B0000ED0600098F01DF060009CF01EF06000CF
:1044C00090F01FF0600094F020F07BEC26F029BE05
:1044D00007D06000A0F02DF06000A4F02EF004D012
:1044E000000E2E6E000E2D6E000E2C6E000E2B6E2A
:1044F0000ED0000E156E200E146E600090F016F0B7
:10450000600094F017F0B0EC22F02B4A2C2A2D50CA
:104510002B5C2C50800A2A6E2E50800A2A58D8A074
:10452000E8D745B00ED0600098F01DF060009CF018
:104530001EF0600090F01FF0600094F020F07BEC23
:1045400026F0600098F014F060009CF015F008EC84
:1045500027F02D501424246E2E501520256E1200A5
:1045600016501710D8B404D016501710D8A404D081
:104570001450BAEC27F0120020EE04F01650D926A1
:104580001750DA22DE50DE10D8B416D020EE04F038
:104590001650D9261750DA2210EE02F01650E126F6
:1045A0001750E222DE50E65CE650800A1C6EDE50B8
:1045B000800A1C58D8B0120020EE02F01650D926FE
:1045C0001750DA226F0078FF18F06F0074FF19F0AF
:1045D00060005BF0D9FF60005FF0DAFF6F0078FFEA
:1045E0001AF06F0074FF1BF018501A24D96E19507E
:1045F0001B20DA6E600053F0DFFF20EE02F0165051
:10460000D9261750DA22DE2A000EDD221200000120
:10461000F851D8B412003D0177AF12006C51D8A404
:104620001200000E0001F86F000E1F6E16D01F5012
:104630001424186E000E1520196E010E1824D96E60
:10464000000E1920DA6EDD0E1F24E16EE26A000E04
:10465000E2226F007FFFE7FF1F2AFF0E186EFF0E9A
:10466000196E16501A6E1B6A18501A2619501B2202
:104670001F501C6E1D6A1A501C5C1D50800A1E6E55
:104680001B50800A1E58D8A0D2D760005FF06EFD84
:1046900060005BF06CFD600053F0D9FF600057F0E4
:1046A000DAFFDF503D016B6F000E496E738B120015
:1046B0006F00BCFB12F0136A3E01F051116E106ADC
:1046C00012501010126E13501110136E0C0EF119BF
:1046D000D8A41BD0600048F002F060004CF003F05A
:1046E000000E03BEFF0E046E056E010EA2EC1FF05D
:1046F000600008F0EFF060000CF0F0F0600010F0E7
:10470000F1F0600014F0F2F01ED00D0EF119D8A4F3
:104710001AD0600048F002F060004CF003F0000E88
:1047200003BEFF0E046E056E010EA2EC1FF06000CA
:1047300008F0EBF060000CF0ECF0600010F0EDF031
:10474000600014F0EEF03901A1951100FD0E1F6E0E
:10475000E80E1E6E000E1D6E000E1C6E1CD01C504E
:104760001824D96E1D501920DA6EDF506FEC27F037
:104770000009D8A406D01E06D8A01F061C06D8A083
:104780001D061E501F10D8B41200FD0E1F6EE80E3D
:104790001E6E1C4A1D2A1A501C5C1B501D58D8A0A6
:1047A000DED7FD0E1F6EE80E1E6E0D0E6FEC27F0AD
:1047B0000009D8A408D01E06D8A01F061E28F5E1BF
:1047C0001F28D8A4F2D70A0E6FEC27F00009D8A44E
:1047D00012001E06D8A01F061E28F5E11F28D8B417
:1047E0001200F1D7000E14141C6E000E15141D6E6D
:1047F000800E16141E6E7F0E17141F6E1C501D1097
:104800001E101F10D8A408D0000E146E000E156ED6
:10481000000E166E000E176E000E18141C6E000EA1
:1048200019141D6E800E1A141E6E7F0E1B141F6E3F
:104830001C501D101E101F10D8A408D0000E186E9A
:10484000000E196E000E1A6E000E1B6E1850141812
:104850000AE11950151807E11A50161804E11B5007
:104860001718D8B402D0D8901200D8801200000EC9
:10487000196E17AE06D0166C171ED8B0172A010E87
:10488000196E15AE06D0146C151ED8B0152A010E7F
:10489000191A000E1B6E000E1A6E16501710D8B49F
:1048A0001CD0010E186E04D0D89016361736182A70
:1048B00017AEFAD7D8901A361B361650145C17501C
:1048C0001558D8A005D01650145E1750155A1A80E6
:1048D000D89017321632182EEDD71950D8B404D00C
:1048E0001A6C1B1ED8B01B2A600068F014F0600020
:1048F0006CF015F01200166EC48CC49E3A01609DD7
:10490000609F160EE56F130E176F10D0030E3D015A
:10491000F66F400E09D0010E3D01F66F140E04D063
:10492000000E3D01F66F890EF56F10D01650146E13
:10493000156A1550000AD8A4F3D71450010AD8B448
:10494000E5D7030AD8B4E7D7010AEAD7000E4B6EC1
:10495000B00EF26F000EF36F800EDC6F000EFA6F78
:10496000000EF86F39019387938983878389000E3E
:10497000A36F3D01F38F1200000E196E15AE06D025
:10498000146C151ED8B0152A010E196E17AE04D07E
:10499000166C171ED8B0172A16501710D8B418D096
:1049A000010E186E04D0D89016361736182A17AE96
:1049B000FAD71650145C17501558D8A004D01650CA
:1049C000145E1750155AD89017321632182EF1D798
:1049D0001950D8B404D0146C151ED8B0152A600034
:1049E00050F014F0600054F015F01200600000F375
:1049F000C4F0600004F3C5F0000E0001F46F000E77
:104A0000F36F17D06000F8F2AEF06000FCF2AFF088
:104A1000C40EB06F000EB16F600008F3B2F060001A
:104A20000CF3B3F0DAEC17F00001AE51F327AF51FD
:104A3000F423600013F3F6FF600017F3F7FF000E96
:104A4000F86E0800F5500009D8A4DCD76000CCF35C
:104A5000BEF06000D0F3BFF01200C392C390BB92CF
:104A6000BB903A015093509152835281010E5A6F7C
:104A700053935391090EE16F080EE26F210E096FF7
:104A8000220E086F040E3D01736F800E746F240EAA
:104A9000756F030E7B6F000E796F000E766F010E3F
:104AA0000001F86F39018391829FA391A29F9381A6
:104AB000928F3D0179957A8539018393A3939383EE
:104AC0003D01738F1200600058F01AF060005CF036
:104AD0001BF0600050F01CF0600054F01DF01A5004
:104AE000186E1B50196E1A4A1B2A600063F0F6FFFD
:104AF000600067F0F7FF000EF86E600073F0D9FFFA
:104B0000600077F0DAFF1C4A1D2A1F0EF76403D0FD
:104B10000800F55007D06F00DBFFE1FF6F00DFFFFB
:104B2000E2FFE750DF6EDF50D8B41200D8D7CA0ECC
:104B30000101A96F000EAA6F600018F3ABF16000CD
:104B40001CF3ACF1000EAE6F000EAD6F000EB06F37
:104B5000000EAF6FAB0E0001BE6F010EBF6F6000A5
:104B600020F3C0F0600024F3C1F0A90EC26F010E63
:104B7000C36FF6EC24F00101AD510001C625D96EDA
:104B80000101AE510001C721DA6E000EDF6E120086
:104B90007B0EF66E4F0EF76E000EF86E09006F007A
:104BA000D4FFFDF07A0EF66E4F0EF76E000EF86E23
:104BB00009006F00D4FF4CF000EE00F1A70EEE6A82
:104BC000E806FDE100EED3F02A0EEE6AE806FDE10C
:104BD00000EE3DF00F0EEE6AE806FDE1080ED56E20
:104BE000000ED66E000ED76E0001FEEF21F0000E13
:104BF000311A000E321A000E331A800E341A600079
:104C0000B4F014F06000B8F015F06000BCF016F0DD
:104C10006000C0F017F06000C4F018F06000C8F049
:104C200019F06000CCF01AF06000D0F01BF0A4EC9A
:104C300019F0600050F02DF0600054F02EF060008C
:104C400058F02FF060005CF030F01200B89E472A58
:104C5000020E4718D8A402D0BA900AD0280E4718DE
:104C6000D8A406D00001F751D8A4BA80000E476E30
:104C7000B00EB66E3C0EB76E4C50D8B404D00C0ECD
:104C8000AAEC27F003D00D0EAAEC27F04C50D8A4C4
:104C900002D0010E01D0000E4C6E3901A39FB88ED8
:104CA0001100BF0E1C6EFF0E1D6E600068F01EF03E
:104CB00060006CF01FF01C501E261D501F221F505C
:104CC00006E11A0E1E5CD8B002D0010E01D0000E13
:104CD000206E216A20502110D8B406D0200E1A1060
:104CE0001A6E1B501B6E1200600068F01AF0600014
:104CF0006CF01BF01200000E236E000E226E0ED020
:104D0000600084F014F0156A60007CF016F060001A
:104D100080F017F0B0EC22F0224A232A22501D2402
:104D2000D96E23501E20DA6EDF50216E2150D8B488
:104D30001200E6D7000E176E000E166E700E1624C7
:104D4000D96E010E1720DA6EDF50D8B40AD0164A99
:104D5000172A17BEF3D7175004E1370E165CD8A0F8
:104D6000EDD7600058F014F060005CF015F0120010
:104D70001450151016101710D8B408D0000E141ABD
:104D8000000E151A000E161A800E171A600050F049
:104D900014F0600054F015F0600058F016F0600058
:104DA0005CF017F01200000E1B6E000E1A6E0BD096
:104DB0001A501424D96E1B501520DA6E60005BF077
:104DC000DFFF1A4A1B2A17501A5C1B50800A196E03
:104DD0001850800A1958D8B01200EAD7BF0E166EC4
:104DE000FF0E176E600050F018F0600054F019F0DC
:104DF0001650182617501922195006E11A0E185C81
:104E0000D8B002D0010E01D0000E146E156A120047
:104E1000600050F016F0600054F017F002D0144A11
:104E2000152A600053F0D9FF600057F0DAFFDF5019
:104E3000D8A4F5D71650145C146E17501558156E7B
:104E40001200145016026F00CCFF18F06F00D0FF54
:104E500019F014501702F350192615501602F3508A
:104E60001926600060F014F0600064F015F0120084
:104E700021500001FB11FB6F600080F0FCF0FB0E85
:104E8000146E000E156E020E166E5E0E176E07EC97
:104E900023F00001F851D8A41200FBD7C3883A01CF
:104EA0005089940E3E01F86F000EF96F000EFA6FF4
:104EB000000EFD6F390181959185A1951200100EAC
:104EC000B86E750EB96EB00EB66E3C0EB76E000EB3
:104ED000476E3901839FA39F938FB88E1200146E83
:104EE000390193B906D0600050F04AF09389010E61
:064EF0001200000E12008A
:104EF800000E4B24D96EDA6A010EDA226F00A3F78E
:064F0800DFFF4B2A11003F
:104F1000DD0E4924D96EDA6A000EDA22DF503D0137
:064F20006B6F492A11002D
:104F2800D30E4824D96EDA6A000EDA226F00ABF588
:064F3800DFFF482A110012
:104F40003D0179A503D0010E0001F86F000E3D016F
:104F5000796F1100016E3E01F8B11200600007F098
:064F6000F1FEF8811200D1
:0E4F680060002BF1EAFD39019399110012004F
:044F78001100015EC5
:020000040020DA
:10000000FF0FFF0FFF0FFF0FFF0FFF0FFF0FFF0F80
:020000040030CA
:0A0000008CD7BDFC9FFFFFDFFFFF60
:00000001FF
