:020000040000FA
:0400000057EF00F0C6
:10000800D414D414D414D414D414D414D414D414A8
:10001800D414D4141E14D414D414D414D414D4144E
:10002800D414D414D414D414D414D414D414B914A3
:10003800AC14C514D414BF14CF14D414D414DD13C1
:10004800D414D414D414D4142B00D414D414D41425
:10005800D414D414D414D414D414D414D414D41458
:10006800D414D414D414D414D414D414D414D41448
:10007800D414D4142B00D414D414D4142B002B006F
:100088002B002B002B002B002B002B00D414D41496
:10009800D414D414D414D4142B002B002B002B000C
:0A00A800D414D414FF00E6EF27F093
:102000000056657273696F6E20312E300A54656117
:102010006D2035560A5861726973204B65746F677D
:102020006C6F752C566F756C61204B6F6E746F748E
:102030006F6C6900436F6D6D616E64206E6F74200C
:102040007265636F676E697A65642100426C696EC0
:102050006B696E67204C4544206973204F464621CA
:1020600000426C696E6B696E67204C454420697351
:10207000204F4E210043757272656E74204C696D5D
:102080006974207365742100566F6C7461676520F4
:102090007365742100494E46004E414E00696E66DC
:1020A000006E616E006C660025660000000E000187
:1020B0007B6F000E7A6F60001CF18CF0600020F1E5
:1020C0008DF0600024F18EF0600028F18FF08FAF6A
:1020D0001ED0000E7B6F010E7A6F600030F206F0AA
:1020E000600034F207F0600038F208F060003CF263
:1020F00009F09FEC28F0600018F08CF060001CF0F4
:102100008DF0600020F08EF0600024F08FF0000E63
:102110000001936F000E926F6000A0F37FF06000EB
:10212000A4F380F07A517B11D8A402D058A414D023
:102130007A517B11D8A404D0000E656F2B0E03D00A
:10214000000E656F2D0E646F600090F120F1924BD0
:10215000932B7F07D8A08007600030F206F0600064
:1021600034F207F0600038F208F060003CF209F049
:10217000C0EC22F006040710D8A452D0BF0E4C6E5B
:10218000FF0E4D6E4B504E6E4F6A4C504E264D50CA
:102190004F224F5006E11A0E4E5CD8B002D0010E0D
:1021A00001D0000E0001666F676B66516711D8B4ED
:1021B0000DD0200E9225066E010E9321076E950E0E
:1021C000086E200E096E2AEC27F00CD0200E922506
:1021D000066E010E9321076E9D0E086E200E096E8D
:1021E0002AEC27F00001FD0E7F27FF0E8023600000
:1021F00014F116F0600018F117F0200E186E010EA1
:10220000196E6000FCF11AF0600000F21BF06AEC3D
:1022100024F0600058F045F060005CF046F01200D9
:10222000600030F206F0600034F207F0600038F22F
:1022300008F060003CF209F0C0EC22F006500710F4
:10224000D8A435D0BF0E4C6EFF0E4D6E4B504E6E67
:102250004F6A4C504E264D504F224F5006E11A0EF9
:102260004E5CD8B002D0010E01D0000E0001686FA4
:10227000696B68516911D8B40DD0200E9225066E95
:10228000010E9321076E990E086E200E096E2AEC3E
:1022900027F0A8D7200E9225066E010E9321076E17
:1022A000A10E086E200E096E2AEC27F09BD7000EB7
:1022B0000001946F000E956F800E966F3F0E976F22
:1022C000000E916F000E906F600030F206F060001B
:1022D00034F207F0600038F208F060003CF209F0D8
:1022E000000E0A6E000E0B6E000E0C6E000E0D6ED0
:1022F000B9EC25F0D8A026D09AD0600050F214F0A6
:10230000600054F215F0600058F216F060005CF2C4
:1023100017F0000E186E000E196E200E1A6E410E88
:102320001B6E01EC16F0600050F094F0600054F069
:1023300095F0600058F096F060005CF097F00001B6
:10234000904B912B600030F22DF0600034F22EF0B3
:10235000600038F22FF060003CF230F0000E186E92
:10236000000E196E200E1A6E410E1B6E600050F2A8
:1023700014F0600054F215F0600058F216F060009E
:102380005CF217F001EC16F0600050F031F06000E4
:1023900054F032F0600058F033F060005CF034F03C
:1023A00036EC23F0D8A027D0A8D7600050F206F072
:1023B000600054F207F0600058F208F060005CF230
:1023C00009F0000E0A6E000E0B6E200E0C6E410E10
:1023D0000D6EDEEC1CF0600018F094F060001CF054
:1023E00095F0600020F096F0600024F097F0000176
:1023F0009007D8A09107600030F22DF0600034F211
:102400002EF0600038F22FF060003CF230F06000F7
:1024100050F231F0600054F232F0600058F233F0C4
:1024200060005CF234F036EC23F0D8A0BED7600038
:102430002CF10CF00D6A11EC28F00C500001816FAA
:10244000600004F27EF0670E8119D8A41BD05650AC
:102450005710D8A404D0000E576E010E566E57BE0A
:1024600005D0575008E15604D8B005D0000E7D6F56
:10247000060E7C6F0AD0600058F17CF060005CF1C1
:102480007DF003D057AEF7D7F1D7670E8119D8A4E6
:1024900024D091AF06D0FC0E905DFF0E9159D8A0CC
:1024A0001AD0FF0E4C6EFF0E4D6E6000F0F14EF034
:1024B0006000F4F14FF04C504E264D504F22905199
:1024C0004E5C4F50800A506E9151800A5058D8A0EF
:1024D00002D0660E01D0650E7E6F6000F0F174F0E0
:1024E0006000F4F175F0670E8119D8A405D0660E6E
:1024F0007E19D8B491AF02D0744B752B660E7E193D
:10250000D8A416D091AF0CD0000E946F000E956F2A
:10251000800E966F3F0E976F000E916F000E906FBA
:10252000670E8119D8B404D0905174279151752346
:10253000000E8B6F000E8A6F600030F282F0600038
:1025400034F283F0600038F284F060003CF285F0F1
:10255000600050F260F0600054F261F0600058F2E8
:1025600062F060005CF263F0ADD0600008F206F04B
:1025700060000CF207F0600010F208F0600014F246
:1025800009F0600050F20AF0600054F20BF06000B5
:1025900058F20CF060005CF20DF0DEEC1CF0600014
:1025A00018F01FF060001CF020F0600020F021F017
:1025B000600024F022F079EC1FF060007CF086F0DF
:1025C000600080F087F0600084F088F0600088F0A0
:1025D00089F0600018F206F060001CF207F060005D
:1025E00020F208F0600024F209F005EC24F060000D
:1025F00018F078F060001CF079F0600008F23DF00F
:1026000060000CF23EF0600010F23FF0600014F247
:1026100040F0600050F218F0600054F219F06000D1
:1026200058F21AF060005CF21BF0600018F214F02F
:1026300060001CF215F0600020F216F0600024F239
:1026400017F001EC16F0600050F041F0600054F01B
:1026500042F0600058F043F060005CF044F05EEC43
:1026600027F06000F4F082F06000F8F083F0600082
:10267000FCF084F0600000F185F0600050F206F09C
:10268000600054F207F0600058F208F060005CF25D
:1026900009F0000E0A6E000E0B6E200E0C6E410E3D
:1026A0000D6EDEEC1CF0600018F094F060001CF081
:1026B00095F0600020F096F0600024F097F00001A3
:1026C0008A4B8B2B74518A5D8B51800A4C6E7551ED
:1026D000800A4C58D8A049D7600050F214F060002E
:1026E00054F215F0600058F216F060005CF217F03A
:1026F000000E186E000E196EA00E1A6E400E1B6EA4
:1027000001EC16F0600050F086F0600054F087F0A5
:10271000600058F088F060005CF089F0600008F21A
:102720002DF060000CF22EF0600010F22FF060002F
:1027300014F230F0600018F231F060001CF232F058
:10274000600020F233F0600024F234F036EC23F025
:10275000D8B003D0000E000120D0600008F206F0CF
:1027600060000CF207F0600010F208F0600014F254
:1027700009F0600018F20AF060001CF20BF0600033
:1027800020F20CF0600024F20DF0B9EC25F0D8A096
:102790000BD0000178B108D0000E866F000E876F55
:1027A000000E886F000E896F600030F22DF060001F
:1027B00034F22EF0600038F22FF060003CF230F07E
:1027C000600018F231F060001CF232F0600020F27C
:1027D00033F0600024F234F0A5EC19F06000B4F09E
:1027E00082F06000B8F083F06000BCF084F060001C
:1027F000C0F085F0600080F194F0600084F195F005
:10280000600088F196F060008CF197F0650E000191
:102810007E19D8B407D0600040F276F0600044F230
:1028200077F004D0000E776F000E766F000E736F96
:10283000000E726F000E716F000E706F000E8B6FC6
:10284000000E8A6FF9D0600008F206F060000CF20A
:1028500007F0600010F208F0600014F209F0600068
:1028600050F20AF0600054F20BF0600058F20CF0E5
:1028700060005CF20DF0DEEC1CF0600018F01FF060
:1028800060001CF020F0600020F021F0600024F0D7
:1028900022F079EC1FF060007CF086F0600080F0A0
:1028A00087F0600084F088F0600088F089F06000B4
:1028B00018F206F060001CF207F0600020F208F049
:1028C000600024F209F005EC24F0600018F078F0C4
:1028D00060001CF079F058B80DD0000178517911E2
:1028E000D8A408D0670E8119D8B477AF03D0704B45
:1028F000712B3AD0000172517311D8B477AF22D046
:10290000200E9225D96E010E9321DA6E2E0EDF6E07
:10291000924B932B7F07D8A08007000E736F010E98
:10292000726F10D0200E9225D96E010E9321DA6EAF
:10293000300EDF6E924B932B7F07D8A08007700775
:10294000D8A0710770517111D8A4ECD7200E922530
:10295000D96E010E9321DA6E7851300FDF6E924BF3
:10296000932B7F07D8A08007600008F23DF060003D
:102970000CF23EF0600010F23FF0600014F240F004
:10298000600050F218F0600054F219F0600058F244
:102990001AF060005CF21BF0600018F214F06000A6
:1029A0001CF215F0600020F216F0600024F217F01F
:1029B00001EC16F0600050F041F0600054F042F07D
:1029C000600058F043F060005CF044F05EEC27F0EB
:1029D0006000F4F082F06000F8F083F06000FCF03A
:1029E00084F0600000F185F0600050F206F06000B5
:1029F00054F207F0600058F208F060005CF209F051
:102A0000000E0A6E000E0B6E200E0C6E410E0D6E47
:102A1000DEEC1CF0600018F094F060001CF095F003
:102A2000600020F096F0600024F097F00001760737
:102A3000D8A077078A4B8B2B74518A5D8B51800A03
:102A40004C6E7551800A4C58D8B008D093BFFBD655
:102A5000935104E14B0E925DD8A0F5D672517311DB
:102A6000D8B458A80AD0200E9225D96E010E932111
:102A7000DA6E2E0EDF6E924B932B200E9225D96EBE
:102A8000010E9321DA6E000EDF6E650E7E19D8A45A
:102A9000F7EF10F0000E8B6F4F0E8A6F200E8A2515
:102AA000D96E010E8B21DA6E000EDF6E000E7B6F89
:102AB000000E7A6F91AF08D0000E7B6F010E7A6F17
:102AC000906D911FD8B0912B000E7D6F020E7C6F20
:102AD00031D08A07D8A08B07200E8A25D96E010E27
:102AE0008B21DA6E600040F206F0600044F207F0DD
:102AF000000E096E0A0E086E83EC26F00650300FA9
:102B0000DF6E600040F206F0600044F207F0000E55
:102B1000096E0A0E086EFEEC25F0600018F090F0C9
:102B200060001CF091F000017C07D8A07D077F07B2
:102B3000D8A0800790519111D8A4CBD77DBF05D0E4
:102B40007D51C7E17C05D8B0C4D78A07D8A08B07D0
:102B50007A517B11D8A404D0000E6B6F2B0E03D0DA
:102B6000000E6B6F2D0E6A6F200E8A25D96E010E36
:102B70008B21DA6E6000ABF1DFFF7F07D8A0800702
:102B80008A07D8A08B07BF0E4C6EFF0E4D6E4B50C0
:102B90004E6E4F6A4C504E264D504F224F5006E11C
:102BA0001A0E4E5CD8B002D0010E01D0000E6E6F2E
:102BB0006F6B6E516F11D8A404D0000E6D6F650E4F
:102BC00003D0000E6D6F450E6C6F200E8A25D96EF6
:102BD000010E8B21DA6E6000B3F1DFFF7F07D8A012
:102BE0008007200E9225066E010E9321076E200E9F
:102BF0008A25086E010E8B21096E2AEC27F0F7EF6B
:102C000010F01750800B206E17501724266E16BE3A
:102C100026802650D8B40DD02628D8A408D0000E7F
:102C2000146E000E156E000E166E000E176E168EC8
:102C300008D0000E146E000E156E000E166E000EFB
:102C4000176E1B50800B201A1B501B24216E1ABEBE
:102C500021802150D8B40DD02128D8A408D0000E4E
:102C6000186E000E196E000E1A6E000E1B6E1A8E74
:102C700008D0000E186E000E196E000E1A6E000EAF
:102C80001B6E2150D8B403D02650D8A409D0000E12
:102C9000146E000E156E000E166E000E176E1200EA
:102CA0001A5014026F00CCFF2BF06F00D0FF2CF0F5
:102CB0002B50226E236A246A256A2C50276E286ABC
:102CC000296A2A6A195015026F00CCFF2BF06F0099
:102CD000D0FF2CF02B502226000E23222422252266
:102CE0002C502726000E282229222A2218501602AC
:102CF0006F00CCFF2BF06F00D0FF2CF02B50222662
:102D0000000E2322242225222C502726000E2822C2
:102D100029222A22600090F025F060008CF024F037
:102D2000600088F023F0226A185015026F00CCFF73
:102D30002BF06F00D0FF2CF02B5022262C5023229A
:102D4000000E2422000E2522195014026F00CCFF21
:102D50002BF06F00D0FF2CF02B5022262C5023227A
:102D6000000E2422000E2522600090F025F0600065
:102D70008CF024F0600088F023F0226A18501402CE
:102D80006F00CCFF2BF06F00D0FF2CF02B502226D1
:102D90002C502322000E2422000E25221A50150248
:102DA0006F00CCFF2BF06F00D0FF2CF02B502726AC
:102DB0002C502822000E2922000E2A221950160219
:102DC0006F00CCFF2BF06F00D0FF2CF02B5027268C
:102DD0002C502822000E2922000E2A221A501602F8
:102DE0006F00CCFF2BF06F00D0FF2CF02B501C6E2F
:102DF0002C501D6E1E6A1F6A600078F01FF0600084
:102E000074F01EF0600070F01DF01C6A1C50272644
:102E10001D5028221E5029221F502A22600088F0AF
:102E20001CF060008CF01DF0600090F01EF060005F
:102E300094F01FF0190E05D0D8901F321E321D32AB
:102E40001C32E82EF9D71C5027261D5028221E5070
:102E500029221F502A22600090F025F060008CF09B
:102E600024F0600088F023F0226A2150600098F07E
:102E70001CF01D6A1C26000E1D22820E1C242B6EC7
:102E8000FF0E1D202C6E0FD0D890273628362936FD
:102E90002A3625BE2780D89022362336243625367A
:102EA0002B06D8A02C0629AEEFD7000E216E25AE3A
:102EB00017D0FF0E22141C6EFF0E23141D6EFF0E82
:102EC00024141E6E7F0E25141F6E1C501D101E1024
:102ED0001F10D8B403D0010E216E02D027B0FBD74B
:102EE0002150D8B427D0010E2726000E28222922EF
:102EF0002A222AA01FD060009CF01CF06000A0F0E5
:102F00001DF06000A4F01EF06000A8F01FF01F3458
:102F10001F321E321D321C32600070F027F060003C
:102F200074F028F0600078F029F060007CF02AF05E
:102F30002B4A2C2A2CBE0DD02C5003E12B28D8A0D4
:102F400008D0000E276E000E286E800E296E7F0EB0
:102F500021D02CBE05D02C500EE12B04D8B00BD0C4
:102F6000000E276E000E286E000E296E000E2A6ECF
:102F7000000E206E10D06000ACF026F0FF0E271679
:102F8000FF0E28167F0E2916000E2A1626B0298E4F
:102F9000D89026302A6E20502A1260009CF014F03F
:102FA0006000A0F015F06000A4F016F06000A8F03A
:102FB00017F0120060006BF2D9FF60006FF2DAFFC9
:102FC0006F007BFFF6FF6F0077FFF7FF000EF86ED4
:102FD0000800F550250AD8A494D160006BF2D9FFFF
:102FE00060006FF2DAFFDE2A000EDD22000E000123
:102FF000E96F000EE86F6000A0F358F06000A4F3E2
:1030000059F05668576860006BF2D9FF60006FF2A4
:10301000DAFF6F007BFFF6FF6F0077FFF7FF000E10
:10302000F86E0800F5500C6E0D6A11EC28F00C508B
:103030000001A46FA451D8B445D060006BF2D9FF51
:1030400060006FF2DAFF6F0078FF51F06F0074FFDD
:1030500052F0010E5126000E5222600047F1F6FF99
:1030600060004BF1F7FF000EF86E0800F5500C6E93
:103070000D6A11EC28F00C500001A56FA551D8B4D1
:1030800021D060006BF2D9FF60006FF2DAFF6F00B1
:1030900078FF51F06F0074FF52F0020E5126000EBF
:1030A0005222600047F1F6FF60004BF1F7FF000E7F
:1030B000F86E0800F5500C6E0D6A11EC28F00C50FB
:1030C0000001A66F660EA419D8A45BD060006BF255
:1030D000D9FF60006FF2DAFF6F007BFFF6FF6F0031
:1030E00077FFF7FF000EF86E08006F00D4FFA7F01F
:1030F00060006BF2D9FF60006FF2DAFFDE2A000E8B
:10310000DD22600073F2D9FF600077F2DAFF6F0012
:103110007CFF51F0040EDE266F007CFF52F0000EA3
:10312000DD22600047F1D9FF60004BF1DAFF6F004C
:1031300078FFA0F06F0078FFA1F06F0078FFA2F099
:103140006F0078FFA3F0600060F245F0600064F269
:1031500046F0600080F247F0600084F248F06000C2
:1031600088F249F060008CF24AF060009CF24BF06B
:1031700056EC10F0600014F198F0600018F199F02E
:103180001200A40E066E000E076EA50E086E200E2D
:10319000096E000E0B6E020E0A6E9EEC23F00650B6
:1031A0000710D8A471D060006BF2D9FF60006FF2F5
:1031B000DAFF6F0078FF51F06F0074FF52F0010EDC
:1031C0005126000E5222600047F1F6FF60004BF1DD
:1031D000F7FF000EF86E08006F00D4FFA7F0BF0ED7
:1031E000516EFF0E526E60006BF2D9FF60006FF2FD
:1031F000DAFF6F007BFFF6FF6F0077FFF7FF000E2F
:10320000F86E0800F550536E546A515053265250D0
:103210005422545006E11A0E535CD8B002D0010E6D
:1032200001D0000E00019E6F9F6B9E519F116000A8
:1032300073F2D9FF600077F2DAFF6F007CFF51F084
:10324000040EDE266F007CFF52F0000EDD226000CF
:1032500047F1D9FF60004BF1DAFF6F0078FFA0F073
:103260006F0078FFA1F06F0078FFA2F06F0078FF89
:10327000A3F0020E60006BF2D9FF60006FF2DAFF7C
:10328000DE26000EDD225FD760006BF2D9FF600002
:103290006FF2DAFF6F007BFFF6FF6F0077FFF7FF3B
:1032A000000EF86E0800F550250AD8A41BD0600067
:1032B0006BF2D9FF60006FF2DAFFDE2A000EDD222A
:1032C000000E076E250E066E600060F208F06000CA
:1032D00064F209F0C3EC24F0000E0001996F010EB6
:1032E000986F120060006BF2D9FF60006FF2DAFF96
:1032F000DE2A000EDD22000E0001996F000E986F8D
:10330000120060006BF2D9FF60006FF2DAFF6F000D
:103310007BFFF6FF6F0077FFF7FF000EF86E0800E7
:10332000F550066E076A600060F208F0600064F213
:1033300009F0C3EC24F060006BF2D9FF60006FF27B
:10334000DAFFDE2A000EDD22C7D73050800B396E3F
:10335000305030243B6E2FBE3B803B50D8B40DD054
:103360003B28D8A408D0000E2D6E000E2E6E000E45
:103370002F6E000E306E2F8E06D0000E2D6E000EBA
:103380002E6E000E2F6E000E306E3450800B3A6E93
:1033900039503A18D8A4398C345034243A6E33BE9C
:1033A0003A803A50D8B40DD03A28D8A408D0000EAC
:1033B000316E000E326E000E336E000E346E338EA0
:1033C00006D0000E316E000E326E000E336E000E0F
:1033D000346E3B503A5CD8B031D039AC02D0800E5C
:1033E000391A6000ECF03CF06000E8F03BF060005F
:1033F000F0F03AF06000B4F03CF06000C4F02DF062
:103400006000F0F031F06000B8F03CF06000C8F00F
:103410002EF06000F0F032F06000BCF03CF0600094
:10342000CCF02FF06000F0F033F06000C0F03CF022
:103430006000D0F030F06000F0F034F0000E3C6E30
:103440003B506000E8F035F0366A355E000E365AC3
:1034500036BE2DD0365004E11A0E355CD8A027D0E8
:103460002D502E102F103010D8B402D0010E01D0E4
:10347000000E3C6E000E2D6E000E2E6E000E2F6E96
:10348000000E306E6000E8F03BF015D03CA005D097
:10349000D8903C3001093C6E02D0D8903C322DB01F
:1034A0003C8E303430322F322E322D323B2A3A507D
:1034B0003B5CD8A0EBD739BC28D03B50D8A409D06E
:1034C000000E2D6E000E2E6E000E2F6E000E306E52
:1034D000120031502D2632502E2233502F223450DC
:1034E000302230A071D03CA005D0D8903C300109EA
:1034F0003C6E02D0D8903C322DB03C8E303430320D
:103500002F322E322D323B2A5FD031502D5C32507B
:103510002E5833502F583050800A356E3450800A60
:103520003558D8B025D02D50315C356E2E503258DC
:10353000366E2F503358376E30503458386EFF0E79
:1035400035242D6EFF0E36202E6EFF0E37202F6E87
:10355000FF0E3820306E800E391A3C6C3C50D8A4D7
:103560000FD0010E2D26000E2E222F22302208D041
:1035700031502D5E32502E5A33502F5A3450305A1B
:103580002D502E102F103010D8A41CD03C50D8A491
:1035900019D0000E2D6E000E2E6E000E2F6E000E36
:1035A000306E1200D8902D362E362F3630363CBE77
:1035B0002D803CA002D0D88001D0D8903C363B5022
:1035C000D8A43B062FAEEED7000E3A6E3CAE0CD020
:1035D0006000F0F035F07F0E3516D8B403D0010E40
:1035E0003A6E02D02DB0FBD73A50D8B428D0010E95
:1035F0002D26000E2E222F22302230A020D0600057
:10360000B4F035F06000B8F036F06000BCF037F090
:103610006000C0F038F03834383237323632353264
:103620006000D4F02DF06000D8F02EF06000DCF0E7
:103630002FF06000E0F030F03B28D8A43B2A3B2874
:10364000D8B403D03B50D8A40DD0000E2D6E000E80
:103650002E6E000E2F6E000E306E3B50D8A402D09E
:10366000000E396E3BA002D02F8E01D02F9ED89035
:103670003B30306E39BE308E6000B4F02DF060000B
:10368000B8F02EF06000BCF02FF06000C0F030F019
:1036900012005A50D8A402D0000E12005A04D8A426
:1036A00010D0570E0001C619D8B40BD0520EC6194F
:1036B000D8B407D0430EC619D8B403D0000E5A6E42
:1036C000EBD7520E0001C619D8A432D0020E5A18F8
:1036D000D8A407D02F0EC765F1D7390EC76501D022
:1036E000EDD7030E5A18D8A404D00D0EC819D8A4CB
:1036F000E5D7040E5A18D8A4CFD7520EC619D8A4AD
:10370000DDD72F0EC765DAD73A0EC761D7D70D0EB2
:10371000C819D8A4D3D70A0EC919D8A4CFD7010E77
:10372000F66FC751D00FF56F000E5A6E010E1200E2
:10373000570EC619D8A49AD0020E5A18D8A407D08A
:103740002F0EC765BBD7390EC76501D0B7D7030E9B
:103750005A18D8A407D02F0EC865B0D7390EC8653F
:1037600001D0ACD7040E5A18D8A407D02F0EC965C3
:10377000A5D7390EC96501D0A1D7050E5A18D8A40E
:1037800007D02F0ECA659AD7390ECA6501D096D7D1
:10379000060E5A18D8A407D02F0ECB658FD7390E36
:1037A000CB6501D08BD7070E5A18D8A404D00D0EC4
:1037B000CC19D8A483D7080E5A18D8A46DD7570EA1
:1037C000C619D8A47BD72F0EC76578D73A0EC76124
:1037D00075D72F0EC86572D73A0EC8616FD72F0EF6
:1037E000C9656CD73A0EC96169D72F0ECA6566D70D
:1037F0003A0ECA6163D72F0ECB6560D73A0ECB6104
:103800005DD70D0ECC19D8A459D70A0ECD19D8A45E
:1038100055D7000EF66FC751D00FF56F600020F33B
:1038200006F0076A030E096EE80E086E08EC29F030
:103830000001C951640D6F00CCFF0CF06F00D0FF88
:103840000DF0CA510A0DF3500C26F4500D2206500B
:103850000C2607500D22CB510C26000E0D22B00E67
:103860000C24EE6F2F0E0D20EF6F5ED7430EC6199E
:10387000D8A412D7020E5A18D8A407D02F0EC765A5
:103880001DD7390EC76501D019D7030E5A18D8A411
:1038900004D02E0EC819D8A411D7040E5A18D8A4D3
:1038A00007D02F0EC9650AD7390EC96501D006D7D2
:1038B000050E5A18D8A407D02F0ECA65FFD6390EA8
:1038C000CA6501D0FBD6060E5A18D8A407D02F0E11
:1038D000CB65F4D6390ECB6501D0F0D6070E5A1859
:1038E000D8A407D02F0ECC65E9D6390ECC6501D00F
:1038F000E5D6080E5A18D8A407D02F0ECD65DED60F
:10390000390ECD6501D0DAD6090E5A18D8A407D0E1
:103910002F0ECE65D3D6390ECE6501D0CFD60A0E86
:103920005A18D8A404D00D0ECF19D8A4C7D60B0EA0
:103930005A18D8A4B1D6030E0E6EC60E0E24D96E38
:10394000DA6A000EDA222F0EDF64B8D6C60E0E2415
:10395000D96EDA6A000EDA22390EDF6401D0AED6F3
:10396000C60E0E24D96EDA6A000EDA22A60E0E24D6
:10397000E16EE26A010EE2226F007FFFE7FF0E2A8E
:10398000080E0E64DAD7430E0001C619D8A496D6E5
:103990002E0EC819D8A492D60D0ECF19D8A48ED643
:1039A0000A0ED019D8A48AD6C7C0A7F12E0E0101DD
:1039B000A86F000E0001F66F020EB5D60950800BFD
:1039C000166E095009241D6E08BE1D801D50D8B406
:1039D0000DD01D28D8A408D0000E066E000E076E6C
:1039E000000E086E000E096E088E06D0000E066EE0
:1039F000000E076E000E086E000E096E0D50800B53
:103A0000161A0D500D241E6E0CBE1E801E50D8B40A
:103A10000DD01E28D8A408D0000E0A6E000E0B6E22
:103A2000000E0C6E000E0D6E0C8E06D0000E0A6E8F
:103A3000000E0B6E000E0C6E000E0D6E0A500B1079
:103A40000C100D10D8A41BD0000E066E000E076ED1
:103A5000000E086E000E096E800E08127F0E09120D
:103A600016500912600018F006F060001CF007F014
:103A7000600020F008F0600024F009F012001D50F2
:103A8000D8A409D0000E066E000E076E000E086E58
:103A9000000E096E12001E50600074F00EF00F6AE6
:103AA0000E5E000E0F5A7F0E0E24176E000E0F20B2
:103AB000186E600018F012F060001CF013F0600047
:103AC00020F014F0600024F015F0000E066E000ED9
:103AD000076E000E086E000E096E000E196E000EC5
:103AE0001A6E000E1B6E000E1C6E000E1E6E28D08D
:103AF0001E50D8B411D0D89012361336143615365D
:103B0000D89006360736083609361CBE0680D8908F
:103B100019361A361B361C360A50125C0B501358D5
:103B20000C5014580D501558D8A009D01C8C0A50B0
:103B3000125E0B50135A0C50145A0D50155A1E2A6F
:103B4000190E1E64D5D71250131014101510D8B4C6
:103B500011D019800FD0D8900636073608360936AE
:103B60001CBE0680D89019361A361B361C3617062E
:103B7000D8A0180608AEEFD7000E1E6E1CAE17D0E8
:103B8000FF0E19140E6EFF0E1A140F6EFF0E1B148B
:103B9000106E7F0E1C14116E0E500F1010101110AD
:103BA000D8B403D0010E1E6E02D006B0FBD71E5053
:103BB000D8B427D0010E0626000E072208220922BB
:103BC00009A01FD0600018F00EF060001CF00FF08C
:103BD000600020F010F0600024F011F01134113278
:103BE00010320F320E32600038F006F060003CF008
:103BF00007F0600040F008F0600044F009F0174A58
:103C0000182A18BE10D0185003E11728D8A00BD0DE
:103C1000000E186E1768000E066E000E076E000E7E
:103C2000086E000E096E18BE05D0185011E1170479
:103C3000D8B00ED0000E186E000E176E000E066E75
:103C4000000E076E000E086E000E096E000E166E56
:103C500060005CF01DF01DA002D0088E01D0089E0F
:103C6000D8901D30096EFCD6700E066E010E076EE0
:103C7000000E086E000E0A6E370E096EBAEC28F0C0
:103C80000001F651D8A4A7D013D16000B0F306F01C
:103C90006000B4F307F0000E07BEFF0E086E096E59
:103CA000010E67EC21F0600018F014F060001CF0C9
:103CB00015F0600020F016F0600024F017F0680E98
:103CC000186EE80E196E9F0E1A6E3A0E1B6E01ECFE
:103CD00016F0600050F0AFF1600054F0B0F16000F9
:103CE00058F0B1F160005CF0B2F1700E0001B06FFD
:103CF000010EB16FA80EB26F200EB36F6000BCF65C
:103D0000B4F06000C0F6B5F06000C4F6B6F0600034
:103D1000C8F6B7F08DEC27F0DDD06000A8F306F010
:103D20006000ACF307F0000E07BEFF0E086E096ED0
:103D3000010E67EC21F0600018F014F060001CF038
:103D400015F0600020F016F0600024F017F0680E07
:103D5000186EE80E196E9F0E1A6E3A0E1B6E01EC6D
:103D600016F0600050F0AFF1600054F0B0F1600068
:103D700058F0B1F160005CF0B2F1700E0001B06F6C
:103D8000010EB16FA80EB26F200EB36F6000BCF6CB
:103D9000B4F06000C0F6B5F06000C4F6B6F06000A4
:103DA000C8F6B7F08DEC27F095D0700EB06F010E0D
:103DB000B16F010EB26F200EB36F8DEC27F08AD079
:103DC000700EB06F010EB16F340EB26F200EB36F74
:103DD0008DEC27F07FD0F551C26FC36BC351000A41
:103DE000D8A4EED7C251000AD8B44FD7010AD8B42C
:103DF00094D7030AD8B4D9D7E3D7EE51EF11D8B48A
:103E00000DD0010EF06F700EB06F010EB16F610E2C
:103E1000B26F200EB36F8DEC27F05CD0000EF06F08
:103E2000700EB06F010EB16F4C0EB26F200EB36FFB
:103E30008DEC27F04FD06000B8F312F06000BCF3B7
:103E400013F01FEC29F0700E0001B06F010EB16F7E
:103E5000880EB26F200EB36F8DEC27F03BD0A70E0B
:103E60003D6E010E3E6E75EC20F06000F4F0FAF04D
:103E70006000F8F0FBF06000FCF0FCF0600000F186
:103E8000FDF0700E0001B06F010EB16F750EB26FD4
:103E9000200EB36F8DEC27F01DD0700EB06F010EA9
:103EA000B16F340EB26F200EB36F8DEC27F012D0CD
:103EB000F551C26FC36BC351000AD8A4EED7C251EB
:103EC000000AD8B49AD7010AD8B4B5D7030AD8B42F
:103ED000C6D7E3D7700E0A6E010E0B6E81EC28F088
:103EE000600018F00CF060001CF00DF06DEC25F097
:103EF0001200600050F42FF0600054F430F06000C5
:103F000058F431F060005CF432F060007CF02FF087
:103F1000600080F030F0600084F031F0600088F0E4
:103F200032F0810E236EFF0E246E6000BCF025F08F
:103F30006000C0F026F06000C4F027F06000C8F018
:103F400028F0180E05D0D890283227322632253294
:103F5000E82EF9D7255023242D6E000E24202E6E36
:103F60002EBE13D02E5004E1170E2D5CD8A00DD01C
:103F700060007CF01FF0600080F020F0600084F0B2
:103F800021F0600088F022F012002EBE67D06000A1
:103F9000B4F023F0FF0E246EFF0E256E7F0E266E0A
:103FA000000E276E236601D007D027342732263231
:103FB00025322432232EF6D7600090F029F06000DD
:103FC00094F02AF0600098F02BF060009CF02CF048
:103FD00029502F14236E2A503014246E2B50311484
:103FE000256E2C503214266E2350241025102610D6
:103FF000D8B4BED76000BCF023F06000C0F024F05D
:104000006000C4F025F06000C8F026F0200E05D056
:10401000D8902632253224322332E82EF9D7235085
:10402000241025102610D8B408D029502F262A5045
:1040300030222B5031222C503222291C236E2A1C74
:10404000246E2B1C256E2C1C266E23502F162450FC
:10405000301625503116265032163AD06000BCF08A
:1040600023F06000C0F024F06000C4F025F0600090
:10407000C8F026F0200E05D0D89026322532243202
:104080002332E82EF9D72350241025102610D8A467
:1040900008D0000E2F6E000E306E000E316E000E36
:1040A00016D0D8902F34236E3034246E3134256EE0
:1040B0003234266E2350241025102610D8B408D090
:1040C000000E2F6E000E306E800E316EBF0E326EFF
:1040D0006000BCF01FF06000C0F020F06000C4F091
:1040E00021F06000C8F022F01200000E446E000EB5
:1040F000456E000E466E000E476E000E486E000EB6
:10410000496E800E4A6E3F0E4B6E6000F7F0D9FF8D
:104110006000FBF0DAFF2D0EDE18D8A40AD03D4A6D
:104120003E2A000E486E000E496E800E4A6EBF0E8B
:104130004B6E000E436E000E426E99D06000F7F099
:10414000D9FF6000FBF0DAFF2E0EDE18D8A405D0F0
:10415000000E436E010E426E88D06000F7F0D9FF6A
:104160006000FBF0DAFFDF50416ED00E41244C6E50
:104170004D6AFF0E4D224DBE78D04DBE06D04D503B
:1041800074E10A0E4C5CD8B070D042504310D8B4E1
:1041900022D0600020F106F0600024F107F06000FA
:1041A00028F108F060002CF109F0000E0A6E000EF4
:1041B0000B6E200E0C6E410E0D6EDEEC1CF06000DE
:1041C00018F048F060001CF049F0600020F04AF060
:1041D000600024F04BF0000E186E000E196E200ED9
:1041E0001A6E410E1B6E600010F114F0600014F1A5
:1041F00015F0600018F116F060001CF117F001ECEA
:1042000016F0600050F02DF0600054F02EF06000C9
:1042100058F02FF060005CF030F0600030F106F0F4
:10422000600034F107F0000E07BEFF0E086E096E45
:10423000010E67EC21F0600018F031F060001CF016
:1042400032F0600020F033F0600024F034F0A5EC90
:1042500019F06000B4F044F06000B8F045F0600080
:10426000BCF046F06000C0F047F03D4A3E2A6000D6
:10427000F7F0D9FF6000FBF0DAFFDF50D8A45ED77B
:10428000600010F114F0600014F115F0600018F1F6
:1042900016F060001CF117F0600020F118F06000CB
:1042A00024F119F0600028F11AF060002CF11BF0E5
:1042B00001EC16F0600050F03DF0600054F03EF06C
:1042C000600058F03FF060005CF040F012000E6EAD
:1042D0000E50D8A409AE22D0600018F00AF0600099
:1042E0001CF00BF0600020F00CF0600024F00DF0EA
:1042F0000A1E0B1E0C1E0D1E0A2A000E0B220C227B
:104300000D22600028F010F060002CF011F0600029
:1043100030F012F0600034F013F00CD0600018F0B0
:1043200010F060001CF011F0600020F012F060004E
:1043300024F013F00650071008100910D8A409D073
:10434000000E066E000E076E000E086E000E096E5F
:104350001200960E0F6E06D00F2AD890133212322A
:1043600011321032000E10140A6E000E11140B6E72
:10437000000E12140C6EFE0E13140D6E0A500B106C
:104380000C100D10D8B40DD0E7D70F2A010E10264F
:10439000000E112212221322D8901332123211323F
:1043A0001032000E10140A6E000E11140B6E000E67
:1043B00012140C6EFF0E13140D6E0A500B100C101D
:1043C0000D10D8B407D0E1D70F06D89010361136AB
:1043D0001236133612BE03D0020E0F60F5D70FA0AF
:1043E000129ED8900F3260003CF00AF00B6A0C6A03
:1043F0000D6A600028F00DF00C6A0B6A0A6A0A5018
:1044000010120B5011120C5012120D5013120E50AC
:10441000D8A409AE01D0138E600040F006F0600011
:1044200044F007F0600048F008F060004CF009F03C
:104430001200080E3901DF6F000EDE6F400EDD6FD7
:10444000DCBD02D0DCA5FCD7010ED46E070E5C6F7C
:104450003F0E5B6F3A01BF9135EC29F0010E42EC43
:1044600026F046EC29F0F4EC26F0D28ED28CD28ADB
:10447000C2903A014081010E0001F06FC2923A01F0
:104480004083BA92C394C396BB84BB86A30E00013B
:10449000C56F570EC46F020EE82EFED7C42FFCD78F
:1044A000C52FFAD700F01C0E0001F86F020EF96F4D
:1044B000F80E066E000E076E020E086E5E0E096E96
:1044C0001AEC25F00001F251D8B4FCD7040EF86FB5
:1044D00049EC1BF0556E6000A8F306F06000ACF3E9
:1044E00007F0000E07BEFF0E086E096E010E67ECA6
:1044F00021F0600018F014F060001CF015F060006E
:1045000020F016F0600024F017F0680E186EE80E28
:10451000196E9F0E1A6E3A0E1B6E01EC16F06000BB
:1045200050F01CF1600054F01DF1600058F01EF1D5
:1045300060005CF01FF1600070F42DF0600074F416
:104540002EF0600078F42FF060007CF430F0600012
:10455000E8F331F06000ECF332F06000F0F333F098
:104560006000F4F334F036EC23F0D8A002D0BA8225
:1045700001D0BA925550D8B4ABD734EC1EF0A8D7BE
:10458000600060F410F0600064F411F0600068F402
:1045900012F060006CF413F0600018F010F060008E
:1045A0001CF011F0600020F012F0600024F013F015
:1045B000600040F00AF0600044F00BF0600048F04A
:1045C0000CF060004CF00DF0180E05D0D8900D32B4
:1045D0000C320B320A32E82EF9D70A500E6E0F6AEF
:1045E0000E500F10D8A419D0D89010340A6E113480
:1045F0000B6E12340C6E13340D6E0A500B100C102F
:104600000D10D8A405D0000E076E020E066E120023
:10461000000E076E030E066E12000E280F10D8A4AF
:1046200020D0600040F00AF0600044F00BF0600021
:1046300048F00CF060004CF00DF0090ED8900A36EE
:104640000B360C360D36E82EF9D70A500B100C102D
:104650000D10D8A402D0010E01D0000E066E076A1C
:104660001200000E076E040E066E1200000E2D14CE
:10467000356E000E2E14366E800E2F14376E7F0EA0
:104680003014386E3550361037103810D8A408D092
:10469000000E2D6E000E2E6E000E2F6E000E306E70
:1046A000000E3114356E000E3214366E800E331447
:1046B000376E7F0E3414386E355036103710381080
:1046C000D8A408D0000E316E000E326E000E336E8C
:1046D000000E346E30AE09D02D6C2E1ED8B02E2AAE
:1046E0002F1ED8B02F2A800E305634AE09D0316C30
:1046F000321ED8B0322A331ED8B0332A800E345638
:10470000000E2D1A000E2E1A000E2F1A800E301ACF
:10471000000E311A000E321A000E331A800E341AAF
:1047200031502D5C32502E5833502F583450305861
:10473000D8B002D0D8901200D8801200600018F0D3
:104740000DF060001CF00EF0600020F00FF0600033
:1047500024F010F00A06D8A00B060A280FE10B2857
:10476000D8A40CD0000E076E000E066E12000D4A83
:104770000E2A0F4A102A0A06D8A00B06600037F04E
:10478000D9FF60003BF0DAFFDF50D8B426D06000DC
:104790003FF0F6FF600043F0F7FF000EF86E0800F0
:1047A000F5500009D8B419D00A500B10D8B415D060
:1047B000600037F0D9FF60003BF0DAFFDF500C6E8D
:1047C00060003FF0F6FF600043F0F7FF000EF86E68
:1047D0000800F5500C18D8B4CAD7600037F0D9FFDC
:1047E00060003BF0DAFFDF500C6E60003FF0F6FF38
:1047F000600043F0F7FF000EF86E0800F5500C5C07
:10480000066E076AD8A007061200083409340F6E36
:104810000F50D8A409D0000E066E000E076E000ED1
:10482000086E000E096E1200600018F00AF06000B9
:104830001CF00BF0600020F00CF0600024F00DF094
:10484000200E05D0D8900D320C320B320A32E82EF1
:10485000F9D70A500E6E088EFF0E0616FF0E0716C9
:10486000FF0E0816000E0916960E0F5E0FAE0DD045
:104870000F50800A970FD8A0CED7D89009320832AF
:10488000073206320F3EF9D70DD01F0E0F6407D046
:10489000C2D7D89006360736083609360F060F50AD
:1048A000D8A4F7D70E50D8B408D0091E081E071E8A
:1048B000066C000E072208220922600018F006F09C
:1048C00060001CF007F0600020F008F0600024F0A9
:1048D00009F0120058A00ED0600060F00FF06000E8
:1048E00064F010F0600058F011F060005CF012F01D
:1048F00062EC28F01BBE07D0600068F01FF060007B
:104900006CF020F004D0000E206E000E1F6E000E22
:104910001E6E000E1D6E0ED0000E076E200E066E6F
:10492000600058F008F060005CF009F0C3EC24F07F
:104930001D4A1E2A1F501D5C1E50800A1C6E2050EE
:10494000800A1C58D8A0E8D758B00ED0600060F09C
:104950000FF0600064F010F0600058F011F060009B
:104960005CF012F062EC28F0600060F006F060008D
:1049700064F007F0EFEC28F01F500624166E20506C
:104980000720176E120008500910D8B404D0085040
:104990000910D8A404D00650A7EC29F0120020EE8C
:1049A00004F00850D9260950DA22DE50DE10D8B4BF
:1049B00016D020EE04F00850D9260950DA2210EE65
:1049C00002F00850E1260950E222DE50E65CE65093
:1049D000800A0E6EDE50800A0E58D8B0120020EE0B
:1049E00002F00850D9260950DA226F0078FF0AF049
:1049F0006F0074FF0BF0600023F0D9FF600027F018
:104A0000DAFF6F0078FF0CF06F0074FF0DF00A50B2
:104A10000C24D96E0B500D20DA6E60001BF0DFFF06
:104A200020EE02F00850D9260950DA22DE2A000EC4
:104A3000DD2212000001F251D8B412003D0177AF1F
:104A400012006C51D8A41200000E0001F26F000E8B
:104A5000116E16D0115006240A6E000E07200B6E40
:104A6000010E0A24D96E000E0B20DA6E0A0E1124F4
:104A7000E16EE26A010EE2226F007FFFE7FF112A7A
:104A8000FF0E0A6EFF0E0B6E08500C6E0D6A0A5078
:104A90000C260B500D2211500E6E0F6A0C500E5C3E
:104AA0000F50800A106E0D50800A1058D8A0D2D72F
:104AB000600027F06EFD600023F06CFD60001BF0CD
:104AC000D9FF60001FF0DAFFDF503D016B6F000E71
:104AD0000001F46F3D01738B1200FD0E116EE80EA4
:104AE000106E000E0F6E000E0E6E1CD00E500A24BB
:104AF000D96E0F500B20DA6EDF5065EC29F00009FB
:104B0000D8A406D01006D8A011060E06D8A00F060D
:104B100010501110D8B41200FD0E116EE80E106E78
:104B20000E4A0F2A0C500E5C0D500F58D8A0DED73D
:104B3000FD0E116EE80E106E0D0E65EC29F00009E9
:104B4000D8A408D01006D8A011061028F5E1112825
:104B5000D8A4F2D70A0E65EC29F00009D8A41200F7
:104B60001006D8A011061028F5E11128D8B41200BB
:104B7000F1D7000E06140E6E000E07140F6E800E95
:104B80000814106E7F0E0914116E0E500F101010C5
:104B90001110D8A408D0000E066E000E076E000E8D
:104BA000086E000E096E000E0A140E6E000E0B1435
:104BB0000F6E800E0C14106E7F0E0D14116E0E50C1
:104BC0000F1010101110D8A408D0000E0A6E000E9D
:104BD0000B6E000E0C6E000E0D6E0A5006180AE1E8
:104BE0000B50071807E10C50081804E10D50091884
:104BF000D8B402D0D8901200D8801200000E0B6EEC
:104C000009AE06D0086C091ED8B0092A010E0B6E39
:104C100007AE06D0066C071ED8B0072A010E0B1A85
:104C2000000E0D6E000E0C6E08500910D8B41CD08A
:104C3000010E0A6E04D0D890083609360A2A09AE49
:104C4000FAD7D8900C360D360850065C0950075834
:104C5000D8A005D00850065E0950075A0C80D8909D
:104C6000093208320A2EEDD70B50D8B404D00C6CA0
:104C70000D1ED8B00D2A600030F006F0600034F050
:104C800007F01200086EC48CC49E3A01609D609FBC
:104C9000160EE56F130E176F10D0030E3D01F66F61
:104CA000400E09D0010E3D01F66F140E04D0000E27
:104CB0003D01F66F890EF56F10D00850066E076A39
:104CC0000750000AD8A4F3D70650010AD8B4E5D794
:104CD000030AD8B4E7D7010AEAD7000E5A6EB00E1D
:104CE000F26F000EF36F800EDC6F000EFA6F000E95
:104CF000F86F39019387938983878389000EA36FA7
:104D00003D01F38F1200000E0B6E07AE06D0066C4D
:104D1000071ED8B0072A010E0B6E09AE04D0086C2E
:104D2000091ED8B0092A08500910D8B418D0010EAD
:104D30000A6E04D0D890083609360A2A09AEFAD786
:104D40000850065C09500758D8A004D00850065EE9
:104D50000950075AD890093208320A2EF1D70B5061
:104D6000D8B404D0066C071ED8B0072A600018F02B
:104D700006F060001CF007F012006000A8F2AEF030
:104D80006000ACF2AFF0000E0001E76F000EE66FBE
:104D900017D06000A0F298F06000A4F299F0AE0E77
:104DA0009A6F000E9B6F6000B0F29CF06000B4F24E
:104DB0009DF0DAEC17F000019851E6279951E723AE
:104DC0006000BBF2F6FF6000BFF2F7FF000EF86E66
:104DD0000800F5500009D8A4DCD7600098F3A8F0CB
:104DE00060009CF3A9F01200C392C390BB92BB90E9
:104DF0003A015093509152835281010E5A6F53934E
:104E00005391090EE16F080EE26F210E096F220E19
:104E1000086F040E3D01736F800E746F240E756F62
:104E2000030E7B6F000E796F000E766F010E00018E
:104E3000F26F39018391829FA391A29F9381928FF8
:104E40003D0179957A8539018393A39393833D013D
:104E5000738F1200600020F00CF0600024F00DF061
:104E6000600018F00EF060001CF00FF00C500A6E9D
:104E70000D500B6E0C4A0D2A60002BF0F6FF6000FF
:104E80002FF0F7FF000EF86E60003BF0D9FF6000D6
:104E90003FF0DAFF0E4A0F2A1F0EF76403D0080016
:104EA000F55007D06F00DBFFE1FF6F00DFFFE2FF8F
:104EB000E750DF6EDF50D8B41200D8D7000E411A89
:104EC000000E421A000E431A800E441A6000F4F0DD
:104ED0002DF06000F8F02EF06000FCF02FF0600084
:104EE00000F130F0600004F131F0600008F132F0C0
:104EF00060000CF133F0600010F134F0A5EC19F013
:104F00006000B4F03DF06000B8F03EF06000BCF02E
:104F10003FF06000C0F040F01200B40E0001BA6F24
:104F2000000EBB6F6000C0F2BCF06000C4F2BDF0C8
:104F3000000EBF6F000EBE6F000EC16F000EC06F7F
:104F4000BC0EA86F000EA96F6000C8F2AAF0600046
:104F5000CCF2ABF0BA0EAC6F000EAD6FBDEC26F02C
:104F60000001BE51B025D96EBF51B121DA6E000EDD
:104F7000DF6E1200B89E0001F12B020EF119D8A4C9
:104F800002D0BA9009D0280EF119D8A405D0F0515A
:104F9000D8A4BA80000EF16FB00EB66E3C0EB76E9C
:104FA000FE51D8B404D00C0E94EC29F003D00D0EB1
:104FB00094EC29F00001FE51D8A402D0010E01D0DA
:104FC000000EFE6F3901A39FB88E1100480EF66ED9
:104FD000530EF76E000EF86E00EEFAF010EE06F0CB
:104FE00009006F00D7FFEEFFE550E150F9E100EE58
:104FF00000F1AF0EEE6AE806FDE100EEC6F0340EF9
:10500000EE6AE806FDE15A6A596A586A576A566AB2
:10501000080ED56E000ED66E000ED76E000119EF89
:1050200022F0BF0E0E6EFF0E0F6E600030F010F01B
:10503000600034F011F00E5010260F501122115064
:1050400006E11A0E105CD8B002D0010E01D0000E9D
:10505000126E136A12501310D8B406D0200E0C1022
:105060000C6E0D500D6E1200600030F00CF0600000
:0650700034F00DF0120007
:105078006F00BCFB04F0056A3E01F051036E026A42
:1050880004500210046E05500310056E0C0EF11941
:10509800D8A407D0600010F0ECF0600014F0EDF038
:1050A8000AD00D0EF119D8A406D0600010F0EAF06D
:1050B800600014F0EBF03901A1951100000E156E97
:1050C800000E146E0ED060004CF006F0076A600007
:1050D80044F008F0600048F009F0C3EC24F0144AEA
:1050E800152A14500F24D96E15501020DA6EDF508F
:1050F800136E1350D8B41200E6D7000E096E000ED6
:10510800086E700E0824D96E010E0920DA6EDF5081
:10511800D8B40AD0084A092A09BEF3D7095004E1CD
:10512800370E085CD8A0EDD7600020F006F06000CC
:1051380024F007F012000650071008100910D8B420
:1051480008D0000E061A000E071A000E081A800E64
:10515800091A600018F006F060001CF007F0600003
:1051680020F008F0600024F009F01200000E0D6E27
:10517800000E0C6E0BD00C500624D96E0D50072073
:10518800DA6E600023F0DFFF0C4A0D2A09500C5C30
:105198000D50800A0B6E0A50800A0B58D8B01200C6
:1051A800EAD7BF0E086EFF0E096E600018F00AF00D
:1051B80060001CF00BF008500A2609500B220B5017
:1051C80006E11A0E0A5CD8B002D0010E01D0000E1A
:1051D800066E076A1200600018F008F060001CF004
:1051E80009F002D0064A072A60001BF0D9FF6000C8
:1051F8001FF0DAFFDF50D8A4F5D70850065C066E1A
:1052080009500758076E1200065008026F00CCFFBD
:105218000AF06F00D0FF0BF006500902F3500B267E
:1052280007500802F3500B26600028F006F06000D3
:105238002CF007F01200135004090001F86F600009
:1052480048F0F9F0F80E066E000E076E020E086EB2
:105258005E0E096E1AEC25F00001F251D8A4120076
:10526800FBD7100EB86E750EB96EB00EB66E3C0E4A
:10527800B76E000E0001F16F3901839FA39F938FD2
:10528800B88E1200C3883A015089940E3E01F86F17
:10529800000EF96F000EFA6F000EFD6F390181954F
:0652A8009185A1951200A2
:1052B0000A0E0001F425D96EDA6A010EDA22DF50F7
:1052C0003D016B6F0001F42B1100066E390193B99B
:1052D00006D0600018F0F7F09389010E1200000E5E
:0252E0001200BA
:1052E400000E0001F325D96EDA6A010EDA226F008E
:1052F400ABF5DFFFF32B1100C60E5A24D96EDA6A20
:0E530400000EDA226F00A3F7DFFF5A2A110015
:105314003D0179A503D0010E0001F26F000E3D019D
:10532400796F1100016E3E01F8B11200600007F0C0
:06533400F1FEF8811200F9
:10533C006000DFF3EAFD3901939911000000C03FD2
:06534C00015E12001100D9
:020000040020DA
:10000000FF0FFF0FFF0FFF0FFF0FFF0FFF0FFF0F80
:020000040030CA
:0A0000008CD7BDFC9FFFFFDFFFFF60
:00000001FF
