:020000040000FA
:0400000035EF00F0E8
:100008004182D9CF29F0DACF2AF09DB89EA805D031
:10001800ACA203D023C0ADFF9D989EAA1CD0ABB460
:1000280018D0ABB2AB92010E2124D96E000E22205B
:10003800DA6EAECFDFFF214A222A210E21182210C4
:10004800D8A409D0000E286E030E276E5CEC05F0CC
:1000580002D0AB9EF7D72AC0DAFF29C0D9FF419258
:06006800110082EF05F01B
:0B08000000766F756C616B690A0000E8
:10080C00700ED36E940ED26E800E9B6ED3A4D2B2A9
:10081C0002D0D2AEFBD7000E2F6E030E2E6E46EC1E
:10082C0005F0D08EF28EF28C000E926E000E0F013F
:10083C005B6F010E896E3D0E396EE10E386E400E07
:10084C00E82EFED7382EFCD7392EFAD7000E896E3B
:10085C003D0E396EE10E386E400EE82EFED7382E66
:10086C00FCD7392EFAD73A0E2F6E000E306E000ED2
:10087C00326E020E316EDAEC04F02F2803E13028D0
:10088C00D8B4F1D76F0E3A18D8A4D3D76B0E3B1847
:10089C00D8A4CFD7010E2E6E080E2F6E000E316E1F
:1008AC00080E306E5BEC04F0C4D70B0E376EB80E2E
:1008BC00366E0D0E72EC05F02B502C10D8A408D00F
:1008CC003606D8A037063628F4E13728D8A4F1D755
:1008DC000A0E72EC05F02B502C10D8A408D036065A
:1008EC00D8A037063628F4E13728D8A4F1D7000E63
:1008FC00356E000E346E1ED034502E24326E3550B0
:10090C002F20336E32C0F6FF33C0F7FF0800F550CE
:10091C0072EC05F02B502C10D8A406D03606D8A0BB
:10092C0037063406D8A0350636503710D8B4120026
:10093C00344A352A3050345C3550800A326E31508E
:10094C00800A3258D8B01200D7D722BE2BD02250F2
:10095C0003E12104D8A026D02106D8A0220601C08C
:10096C002CF0000E2E6E000E2D6E10D0020E2D24CB
:10097C00D96E000E2E20DA6E010E2D24E16E000EC3
:10098C002E20E26EDFCFE7FF2D4A2E2A21502D5C60
:10099C002E50800A2B6E2250800A2B58D8A0E6D7F6
:1009AC002C501200000E12003150215C2250800A93
:1009BC00336E3250800A3358D8B003D02F68306869
:1009CC001200000E356E000E346E0DD0ABEC04F040
:1009DC00336E34502F24D96E35503020DA6E33C03C
:1009EC00DFFF344A352A3150345C3550800A336E7F
:1009FC003250800A3358D8A0E9D7000E306E010E61
:100A0C002F6E12002D6E000EB86E09D09B0EAF6EBD
:100A1C001200330EAF6E1200190EAF6E12002D5075
:100A2C002B6E2C6A2C50000AD8A412002B50010AF1
:100A3C00D8B4ECD7030AD8B4ECD7010AD8A4120066
:100A4C00EBD7266E000EB86E09D09B0EAF6E12005F
:100A5C00330EAF6E1200190EAF6E12002650246EBC
:100A6C00256A2550000AD8A412002450010AD8B4D3
:100A7C00ECD7030AD8B4ECD7010AD8A41200EBD7F0
:100A8C00948C948E0F015D9D5D9F000E226E000E66
:100A9C00216E7E9C240EAC6E2E5008EC05F0900E50
:100AAC00AB6E9F889F8A9D8A9D981200948C948E21
:100ABC000F015D9D5D9F000E226E000E216E7E9CCF
:100ACC00240EAC6E275027EC05F0900EAB6E9F8871
:100ADC009F8A9D8A9D9812002D6E9DB808D02DC0BE
:100AEC0023F09D88000E2C6E010E2B6E1200000E52
:100AFC002C6E000E2B6E120000EE01F0230EEE6A2F
:100B0C00E806FDE141904192000EF86E000106EFFF
:020B1C0004F0E3
:020000040020DA
:08000000FFFFFFFFFFFFFFFF00
:020000040030CA
:0E00000023684720FFD181FF0FC00FE00F40A3
:00000001FF
