:020000040000FA
:0400000057EF00F0C6
:10000800E013E013E013E013E013E013E013E01350
:10001800E013E013AE11E013E013E013E013E01374
:10002800E013E013E013E013E013E013E013CC1344
:10003800C613D213E013C013DC13E013E013151337
:10004800E013E013E013E0132B00E013E013E013D8
:10005800E013E013E013E013E013E013E013E01300
:10006800E013E013E013E013E013E013E013E013F0
:10007800E013E0132B00E013E013E0132B002B0038
:100088002B002B002B002B002B002B00E013E01380
:10009800E013E013E013E0132B002B002B002B00E0
:0A00A800E013E013FF00CCEF25F099
:102000000056657273696F6E20312E300A54656117
:102010006D2035560A5861726973204B65746F677D
:102020006C6F752C566F756C61204B6F6E746F748E
:102030006F6C690A00436F6D6D616E64206E6F7422
:10204000207265636F676E697A65642100426C690E
:102050006E6B696E67204C4544206973204F46467D
:102060002100426C696E6B696E67204C45442069A3
:1020700073204F4E210043757272656E74204C6957
:102080006D6974207365742100566F6C74616765A7
:10209000207365742100494E46004E414E00696E22
:0D20A00066006E616E006C66002566000033
:1020AE00000E0001916F000E906F6000B0F1A2F073
:1020BE006000B4F1A3F06000B8F1A4F06000BCF1D0
:1020CE00A5F0A5AF1ED0000E916F010E906F6000AF
:1020DE0088F214F060008CF215F0600090F216F0A9
:1020EE00600094F217F0BCEC26F0600050F0A2F005
:1020FE00600054F0A3F0600058F0A4F060005CF0B3
:10210E00A5F0000E0001A96F000EA86F600004F18B
:10211E0095F0600008F196F090519111D8A402D07C
:10212E0045A414D090519111D8A404D0000E7B6F09
:10213E002B0E03D0000E7B6F2D0E7A6F6000E8F130
:10214E0020F1A84BA92B9507D8A09607600088F21E
:10215E0014F060008CF215F0600090F216F0600042
:10216E0094F217F057EC20F014041510D8A452D0A6
:10217E00BF0E0001716FFF0E726F7051736F746B33
:10218E007151732772517423745106E11A0E735DE7
:10219E00D8B002D0010E01D0000E7C6F7D6B7C5149
:1021AE007D11D8B40DD0200EA825146E010EA921D4
:1021BE00156E960E166E200E176E67EC25F00CD06F
:1021CE00200EA825146E010EA921156E9E0E166EF8
:1021DE00200E176E67EC25F00001FD0E9527FF0E01
:1021EE0096236000A8F124F06000ACF125F0200EDB
:1021FE00266E010E276E600054F228F0600058F231
:10220E0029F05AEC22F0600090F06AF0600094F031
:10221E006BF01200600088F214F060008CF215F082
:10222E00600090F216F0600094F217F057EC20F078
:10223E0014501510D8A435D0BF0E0001716FFF0ECB
:10224E00726F7051736F746B715173277251742367
:10225E00745106E11A0E735DD8B002D0010E01D092
:10226E00000E7E6F7F6B7E517F11D8B40DD0200E85
:10227E00A825146E010EA921156E9A0E166E200E4B
:10228E00176E67EC25F0A8D7200EA825146E010E48
:10229E00A921156EA20E166E200E176E67EC25F094
:1022AE009BD7000E0001AA6F000EAB6F800EAC6FB5
:1022BE003F0EAD6F000EA76F000EA66F600088F286
:1022CE0014F060008CF215F0600090F216F06000D1
:1022DE0094F217F0000E186E000E196E000E1A6EA4
:1022EE00000E1B6EF6EC23F0D8A026D09AD060001C
:1022FE00A8F214F06000ACF215F06000B0F216F027
:10230E006000B4F217F0000E186E000E196E200E5B
:10231E001A6E410E1B6E02EC16F0600050F0AAF021
:10232E00600054F0ABF0600058F0ACF060005CF070
:10233E00ADF00001A64BA72B600088F22DF06000D7
:10234E008CF22EF0600090F22FF0600094F230F0DC
:10235E00000E186E000E196E200E1A6E410E1B6EB8
:10236E006000A8F214F06000ACF215F06000B0F25C
:10237E0016F06000B4F217F002EC16F0600050F0A8
:10238E0031F0600054F032F0600058F033F060002D
:10239E005CF034F0CDEC20F0D8A027D0A8D76000A8
:1023AE00A8F214F06000ACF215F06000B0F216F076
:1023BE006000B4F217F0000E186E000E196E200EAB
:1023CE001A6E410E1B6E49EC1BF0600050F0AAF025
:1023DE00600054F0ABF0600058F0ACF060005CF0C0
:1023EE00ADF00001A607D8A0A707600088F22DF077
:1023FE0060008CF22EF0600090F22FF0600094F2EC
:10240E0030F06000A8F231F06000ACF232F0600003
:10241E00B0F233F06000B4F234F0CDEC20F0D8A07E
:10242E00BED76000C0F11AF01B6A55EC26F01A50A8
:10243E000001976F60005CF294F0670E9719D8A4B4
:10244E001BD043504410D8A404D0000E446E010E8D
:10245E00436E44BE05D0445008E14304D8B005D0C5
:10246E00000E936F060E926F0AD060000CF192F080
:10247E00600010F193F003D044AEF7D7F1D7670E9A
:10248E009719D8A424D0A7AF06D0FC0EA65DFF0ED8
:10249E00A759D8A01AD0FF0E716FFF0E726F600091
:1024AE0048F273F060004CF274F071517327725160
:1024BE007423A651735D7451800A756FA751800AFB
:1024CE007559D8A002D0660E01D0650E946F6000CB
:1024DE0048F28AF060004CF28BF0670E9719D8A480
:1024EE0005D0660E9419D8B4A7AF02D08A4B8B2BA9
:1024FE00660E9419D8A416D0A7AF0CD0000EAA6FF2
:10250E00000EAB6F800EAC6F3F0EAD6F000EA76F5F
:10251E00000EA66F670E9719D8B404D0A6518A275D
:10252E00A7518B23000EA16F000EA06F600088F2E2
:10253E0098F060008CF299F0600090F29AF06000D2
:10254E0094F29BF06000A8F276F06000ACF277F0A7
:10255E006000B0F278F06000B4F279F0ADD06000B7
:10256E0060F214F0600064F215F0600068F216F08C
:10257E0060006CF217F06000A8F218F06000ACF288
:10258E0019F06000B0F21AF06000B4F21BF049ECE2
:10259E001BF0600050F02DF0600054F02EF0600043
:1025AE0058F02FF060005CF030F0B7EC1DF06000DA
:1025BE00B4F09CF06000B8F09DF06000BCF09EF0AE
:1025CE006000C0F09FF0600070F214F0600074F2D2
:1025DE0015F0600078F216F060007CF217F09CECBB
:1025EE0021F0600050F08EF0600054F08FF060002B
:1025FE0060F22DF0600064F22EF0600068F22FF0B1
:10260E0060006CF230F06000A8F218F06000ACF2DE
:10261E0019F06000B0F21AF06000B4F21BF0600026
:10262E0070F214F0600074F215F0600078F216F09B
:10263E0060007CF217F002EC16F0600050F031F002
:10264E00600054F032F0600058F033F060005CF03F
:10265E0034F0FBEC25F06000B4F098F06000B8F0B8
:10266E0099F06000BCF09AF06000C0F09BF0600042
:10267E00A8F214F06000ACF215F06000B0F216F0A3
:10268E006000B4F217F0000E186E000E196E200ED8
:10269E001A6E410E1B6E49EC1BF0600050F0AAF052
:1026AE00600054F0ABF0600058F0ACF060005CF0ED
:1026BE00ADF00001A04BA12B8A51A05DA151800A63
:1026CE00716F8B51800A7159D8A049D76000A8F25A
:1026DE0014F06000ACF215F06000B0F216F060007D
:1026EE00B4F217F0000E186E000E196EA00E1A6ED0
:1026FE00400E1B6E02EC16F0600050F09CF0600075
:10270E0054F09DF0600058F09EF060005CF09FF079
:10271E00600060F22DF0600064F22EF0600068F24E
:10272E002FF060006CF230F0600070F231F060005B
:10273E0074F232F0600078F233F060007CF234F024
:10274E00CDEC20F0D8B003D0000E000120D06000F8
:10275E0060F214F0600064F215F0600068F216F09A
:10276E0060006CF217F0600070F218F0600074F206
:10277E0019F0600078F21AF060007CF21BF0F6ECB3
:10278E0023F0D8A00BD000018EB108D0000E9C6FA4
:10279E00000E9D6F000E9E6F000E9F6F600088F200
:1027AE0014F060008CF215F0600090F216F06000EC
:1027BE0094F217F0600070F218F0600074F219F0E5
:1027CE00600078F21AF060007CF21BF0A5EC19F0B4
:1027DE00600050F098F0600054F099F0600058F0EE
:1027EE009AF060005CF09BF06000D8F1AAF06000F7
:1027FE00DCF1ABF06000E0F1ACF06000E4F1ADF0C4
:10280E00650E00019419D8B407D0600098F28CF0D0
:10281E0060009CF28DF004D0000E8D6F000E8C6F58
:10282E00000E896F000E886F000E876F000E866F88
:10283E00000EA16F000EA06FF9D0600060F214F0D0
:10284E00600064F215F0600068F216F060006CF241
:10285E0017F06000A8F218F06000ACF219F06000FA
:10286E00B0F21AF06000B4F21BF049EC1BF06000FD
:10287E0050F02DF0600054F02EF0600058F02FF064
:10288E0060005CF030F0B7EC1DF06000B4F09CF02E
:10289E006000B8F09DF06000BCF09EF06000C0F0EB
:1028AE009FF0600070F214F0600074F215F060009A
:1028BE0078F216F060007CF217F09CEC21F06000CC
:1028CE0050F08EF0600054F08FF045B80DD000013E
:1028DE008E518F11D8A408D0670E9719D8B48DAF2A
:1028EE0003D0864B872B3AD0000188518911D8B47A
:1028FE008DAF22D0200EA825D96E010EA921DA6E39
:10290E002E0EDF6EA84BA92B9507D8A09607000EAA
:10291E00896F010E886F10D0200EA825D96E010E7A
:10292E00A921DA6E300EDF6EA84BA92B9507D8A021
:10293E0096078607D8A0870786518711D8A4ECD7AB
:10294E00200EA825D96E010EA921DA6E8E51300FF8
:10295E00DF6EA84BA92B9507D8A09607600060F2F2
:10296E002DF0600064F22EF0600068F22FF060002F
:10297E006CF230F06000A8F218F06000ACF219F0C2
:10298E006000B0F21AF06000B4F21BF0600070F25A
:10299E0014F0600074F215F0600078F216F060002A
:1029AE007CF217F002EC16F0600050F031F060008F
:1029BE0054F032F0600058F033F060005CF034F008
:1029CE00FBEC25F06000B4F098F06000B8F099F0E0
:1029DE006000BCF09AF06000C0F09BF06000A8F2BE
:1029EE0014F06000ACF215F06000B0F216F060006A
:1029FE00B4F217F0000E186E000E196E200E1A6E3D
:102A0E00410E1B6E49EC1BF0600050F0AAF0600006
:102A1E0054F0ABF0600058F0ACF060005CF0ADF03C
:102A2E0000018C07D8A08D07A04BA12B8A51A05D69
:102A3E00A151800A716F8B51800A7159D8B008D09C
:102A4E00A9BFFBD6A95104E14B0EA85DD8A0F5D6BF
:102A5E0088518911D8B445A80AD0200EA825D96E60
:102A6E00010EA921DA6E2E0EDF6EA84BA92B200EB9
:102A7E00A825D96E010EA921DA6E000EDF6E650E45
:102A8E009419D8A4F8EF10F0000EA16F4F0EA06F9E
:102A9E00200EA025D96E010EA121DA6E000EDF6E7A
:102AAE00000E916F000E906FA7AF08D0000E916FC1
:102ABE00010E906FA66DA71FD8B0A72B000E936FB7
:102ACE00020E926F31D0A007D8A0A107200EA0252C
:102ADE00D96E010EA121DA6E600098F214F060003A
:102AEE009CF215F0000E176E0A0E166EC0EC24F056
:102AFE001450300FDF6E600098F214F060009CF2FC
:102B0E0015F0000E176E0A0E166E3BEC24F06000E8
:102B1E0050F0A6F0600054F0A7F000019207D8A084
:102B2E0093079507D8A09607A651A711D8A4CBD77F
:102B3E0093BF05D09351C7E19205D8B0C4D7A00773
:102B4E00D8A0A10790519111D8A404D0000E816F86
:102B5E002B0E03D0000E816F2D0E806F200EA02540
:102B6E00D96E010EA121DA6E600003F2DFFF950728
:102B7E00D8A09607A007D8A0A107BF0E716FFF0EB1
:102B8E00726F7051736F746B71517327725174231E
:102B9E00745106E11A0E735DD8B002D0010E01D049
:102BAE00000E846F856B84518511D8A404D0000E5D
:102BBE00836F650E03D0000E836F450E826F200E5D
:102BCE00A025D96E010EA121DA6E60000BF2DFFF97
:102BDE009507D8A09607200EA825146E010EA921E0
:102BEE00156E200EA025166E010EA121176E67EC34
:102BFE0025F0F8EF10F01750800B206E17501724A9
:102C0E00266E16BE26802650D8B40DD02628D8A4FF
:102C1E0008D0000E146E000E156E000E166E000E0D
:102C2E00176E168E08D0000E146E000E156E000E66
:102C3E00166E000E176E1B50800B201A1B501B2495
:102C4E00216E1ABE21802150D8B40DD02128D8A4CF
:102C5E0008D0000E186E000E196E000E1A6E000EC1
:102C6E001B6E1A8E08D0000E186E000E196E000E16
:102C7E001A6E000E1B6E2150D8B403D02650D8A465
:102C8E0009D0000E146E000E156E000E166E000E9C
:102C9E00176E12001A5014026F00CCFF2BF06F004B
:102CAE00D0FF2CF02B50226E236A246A256A2C50FA
:102CBE00276E286A296A2A6A195015026F00CCFFFE
:102CCE002BF06F00D0FF2CF02B502226000E23226B
:102CDE00242225222C502726000E282229222A22A1
:102CEE00185016026F00CCFF2BF06F00D0FF2CF0A7
:102CFE002B502226000E2322242225222C5027265A
:102D0E00000E282229222A22600090F025F0600071
:102D1E008CF024F0600088F023F0226A185015021F
:102D2E006F00CCFF2BF06F00D0FF2CF02B50222623
:102D3E002C502322000E2422000E2522195014029C
:102D4E006F00CCFF2BF06F00D0FF2CF02B50222603
:102D5E002C502322000E2422000E2522600090F01B
:102D6E0025F060008CF024F0600088F023F0226AD9
:102D7E00185014026F00CCFF2BF06F00D0FF2CF018
:102D8E002B5022262C502322000E2422000E252208
:102D9E001A5015026F00CCFF2BF06F00D0FF2CF0F5
:102DAE002B5027262C502822000E2922000E2A22D4
:102DBE00195016026F00CCFF2BF06F00D0FF2CF0D5
:102DCE002B5027262C502822000E2922000E2A22B4
:102DDE001A5016026F00CCFF2BF06F00D0FF2CF0B4
:102DEE002B501C6E2C501D6E1E6A1F6A600078F0F0
:102DFE001FF0600074F01EF0600070F01DF01C6A91
:102E0E001C5027261D5028221E5029221F502A22D0
:102E1E00600088F01CF060008CF01DF0600090F0F7
:102E2E001EF0600094F01FF0190E05D0D8901F32DE
:102E3E001E321D321C32E82EF9D71C5027261D508B
:102E4E0028221E5029221F502A22600090F025F0C1
:102E5E0060008CF024F0600088F023F0226A21508C
:102E6E00600098F01CF01D6A1C26000E1D22820EBA
:102E7E001C242B6EFF0E1D202C6E0FD0D8902736E3
:102E8E00283629362A3625BE2780D8902236233674
:102E9E00243625362B06D8A02C0629AEEFD7000EE9
:102EAE00216E25AE17D0FF0E22141C6EFF0E2314BA
:102EBE001D6EFF0E24141E6E7F0E25141F6E1C50E9
:102ECE001D101E101F10D8B403D0010E216E02D09B
:102EDE0027B0FBD72150D8B427D0010E2726000EDD
:102EEE00282229222A222AA01FD060009CF01CF042
:102EFE006000A0F01DF06000A4F01EF06000A8F0CD
:102F0E001FF01F341F321E321D321C32600070F053
:102F1E0027F0600074F028F0600078F029F060006F
:102F2E007CF02AF02B4A2C2A2CBE0DD02C5003E11B
:102F3E002B28D8A008D0000E276E000E286E800E0B
:102F4E00296E7F0E21D02CBE05D02C500EE12B0405
:102F5E00D8B00BD0000E276E000E286E000E296E14
:102F6E00000E2A6E000E206E10D06000ACF026F01F
:102F7E00FF0E2716FF0E28167F0E2916000E2A1694
:102F8E0026B0298ED89026302A6E20502A12600044
:102F9E009CF014F06000A0F015F06000A4F016F0A4
:102FAE006000A8F017F012006000C3F2D9FF6000B5
:102FBE00C7F2DAFF6F007BFFF6FF6F0077FFF7FFB8
:102FCE00000EF86E0800F550250AD8A493D16000C3
:102FDE00C3F2D9FF6000C7F2DAFFDE2A000EDD224F
:102FEE00000E426E000E416E600004F145F060006E
:102FFE0008F146F0436844686000C3F2D9FF6000F0
:10300E00C7F2DAFF6F007BFFF6FF6F0077FFF7FF67
:10301E00000EF86E0800F5501A6E1B6A55EC26F07D
:10302E001A500001BA6FBA51D8B445D06000C3F23D
:10303E00D9FF6000C7F2DAFF6F0078FF39F06F003A
:10304E0074FF3AF0010E3926000E3A226000E7F0C6
:10305E00F6FF6000EBF0F7FF000EF86E0800F5507B
:10306E001A6E1B6A55EC26F01A500001BB6FBB514D
:10307E00D8B421D06000C3F2D9FF6000C7F2DAFFE6
:10308E006F0078FF39F06F0074FF3AF0020E3926A8
:10309E00000E3A226000E7F0F6FF6000EBF0F7FF5B
:1030AE00000EF86E0800F5501A6E1B6A55EC26F0ED
:1030BE001A500001BC6F660EBA19D8A45BD060001E
:1030CE00C3F2D9FF6000C7F2DAFF6F007BFFF6FF95
:1030DE006F0077FFF7FF000EF86E08006F00D4FF49
:1030EE00BDF06000C3F2D9FF6000C7F2DAFFDE2A3E
:1030FE00000EDD226000CBF2D9FF6000CFF2DAFFC6
:10310E006F007CFF39F0040EDE266F007CFF3AF074
:10311E00000EDD226000E7F0D9FF6000EBF0DAFF71
:10312E006F0078FFB6F06F0078FFB7F06F0078FF92
:10313E00B8F06F0078FFB9F06000B8F26AF0600086
:10314E00BCF26BF06000D8F26CF06000DCF26DF057
:10315E006000E0F26EF06000E4F26FF06000F4F2F6
:10316E0070F057EC10F06000A8F1AEF06000ACF11A
:10317E00AFF01200BA0E146E000E156EA60E166E7D
:10318E00200E176E000E196E020E186E35EC21F021
:10319E0014501510D8A471D06000C3F2D9FF60008E
:1031AE00C7F2DAFF6F0078FF39F06F0074FF3AF064
:1031BE00010E3926000E3A226000E7F0F6FF60009D
:1031CE00EBF0F7FF000EF86E08006F00D4FFBDF0B5
:1031DE00BF0E396EFF0E3A6E6000C3F2D9FF60006B
:1031EE00C7F2DAFF6F007BFFF6FF6F0077FFF7FF86
:1031FE00000EF86E0800F5503B6E3C6A39503B26C7
:10320E003A503C223C5006E11A0E3B5CD8B002D03C
:10321E00010E01D0000E0001B46FB56BB451B511A3
:10322E006000CBF2D9FF6000CFF2DAFF6F007CFFB7
:10323E0039F0040EDE266F007CFF3AF0000EDD2220
:10324E006000E7F0D9FF6000EBF0DAFF6F0078FF67
:10325E00B6F06F0078FFB7F06F0078FFB8F06F0030
:10326E0078FFB9F0020E6000C3F2D9FF6000C7F21A
:10327E00DAFFDE26000EDD225FD76000C3F2D9FF33
:10328E006000C7F2DAFF6F007BFFF6FF6F0077FF7B
:10329E00F7FF000EF86E0800F550250AD8A41BD0D3
:1032AE006000C3F2D9FF6000C7F2DAFFDE2A000E1B
:1032BE00DD22000E156E250E146E6000B8F216F0AB
:1032CE006000BCF217F0B3EC22F0000E0001AF6FFD
:1032DE00010EAE6F12006000C3F2D9FF6000C7F29C
:1032EE00DAFFDE2A000EDD22000E0001AF6F000EA7
:1032FE00AE6F12006000C3F2D9FF6000C7F2DAFFB2
:10330E006F007BFFF6FF6F0077FFF7FF000EF86E82
:10331E000800F550146E156A6000B8F216F06000E1
:10332E00BCF217F0B3EC22F06000C3F2D9FF6000DC
:10333E00C7F2DAFFDE2A000EDD22C7D71750800B48
:10334E00206E17501724226E16BE22802250D8B43B
:10335E000DD02228D8A408D0000E146E000E156EC3
:10336E00000E166E000E176E168E06D0000E146E20
:10337E00000E156E000E166E000E176E1B50800B93
:10338E00216E20502118D8A4208C1B501B24216E96
:10339E001ABE21802150D8B40DD02128D8A408D02F
:1033AE00000E186E000E196E000E1A6E000E1B6EB9
:1033BE001A8E06D0000E186E000E196E000E1A6EC2
:1033CE00000E1B6E2250215CD8B031D020AC02D042
:1033DE00800E201A600088F023F0600084F022F046
:1033EE0060008CF021F0600050F023F0600060F07F
:1033FE0014F060008CF018F0600054F023F06000C0
:10340E0064F015F060008CF019F0600058F023F0B5
:10341E00600068F016F060008CF01AF060005CF04E
:10342E0023F060006CF017F060008CF01BF0000EC3
:10343E00236E2250600084F01CF01D6A1C5E000E8C
:10344E001D5A1DBE2DD01D5004E11A0E1C5CD8A0B5
:10345E0027D01450151016101710D8B402D0010E24
:10346E0001D0000E236E000E146E000E156E000EAF
:10347E00166E000E176E600084F022F015D023A099
:10348E0005D0D89023300109236E02D0D890233274
:10349E0014B0238E17341732163215321432222AF4
:1034AE002150225CD8A0EBD720BC28D02250D8A423
:1034BE0009D0000E146E000E156E000E166E000E64
:1034CE00176E120018501426195015221A50162273
:1034DE001B50172217A071D023A005D0D8902330EF
:1034EE000109236E02D0D890233214B0238E1734E4
:1034FE001732163215321432222A5FD01850145C4D
:10350E00195015581A5016581750800A1C6E1B5019
:10351E00800A1C58D8B025D01450185C1C6E15505B
:10352E0019581D6E16501A581E6E17501B581F6EC6
:10353E00FF0E1C24146EFF0E1D20156EFF0E1E2096
:10354E00166EFF0E1F20176E800E201A236C23504E
:10355E00D8A40FD0010E1426000E15221622172203
:10356E0008D01850145E1950155A1A50165A1B507E
:10357E00175A1450151016101710D8A41CD023501B
:10358E00D8A419D0000E146E000E156E000E166E15
:10359E00000E176E1200D8901436153616361736E2
:1035AE0023BE148023A002D0D88001D0D890233619
:1035BE002250D8A4220616AEEED7000E216E23AEF0
:1035CE000CD060008CF01CF07F0E1C16D8B403D00B
:1035DE00010E216E02D014B0FBD72150D8B428D0E2
:1035EE00010E1426000E15221622172217A020D027
:1035FE00600050F01CF0600054F01DF0600058F0B8
:10360E001EF060005CF01FF01F341F321E321D32A0
:10361E001C32600070F014F0600074F015F0600061
:10362E0078F016F060007CF017F02228D8A4222A39
:10363E002228D8B403D02250D8A40DD0000E146E78
:10364E00000E156E000E166E000E176E2250D8A4C8
:10365E0002D0000E206E22A002D0168E01D0169E31
:10366E00D8902230176E20BE178E600050F014F0E6
:10367E00600054F015F0600058F016F060005CF039
:10368E0017F012001750800B246E175017242B6E54
:10369E0016BE2B802B50D8B40DD02B28D8A408D012
:1036AE00000E146E000E156E000E166E000E176EC6
:1036BE00168E06D0000E146E000E156E000E166ECF
:1036CE00000E176E1B50800B241A1B501B242C6EE1
:1036DE001ABE2C802C50D8B40DD02C28D8A408D0CB
:1036EE00000E186E000E196E000E1A6E000E1B6E76
:1036FE001A8E06D0000E186E000E196E000E1A6E7F
:10370E00000E1B6E185019101A101B10D8A41BD0C7
:10371E00000E146E000E156E000E166E000E176E55
:10372E00800E16127F0E171224501712600050F0E2
:10373E0014F0600054F015F0600058F016F06000C0
:10374E005CF017F012002B50D8A409D0000E146EA6
:10375E00000E156E000E166E000E176E12002C5017
:10376E006000ACF01CF01D6A1C5E000E1D5A7F0E30
:10377E001C24256E000E1D20266E600050F020F0D9
:10378E00600054F021F0600058F022F060005CF010
:10379E0023F0000E146E000E156E000E166E000E47
:1037AE00176E000E276E000E286E000E296E000E8C
:1037BE002A6E000E2C6E28D02C50D8B411D0D89072
:1037CE002036213622362336D89014361536163644
:1037DE0017362ABE1480D8902736283629362A3630
:1037EE001850205C195021581A5022581B5023583B
:1037FE00D8A009D02A8C1850205E1950215A1A5080
:10380E00225A1B50235A2C2A190E2C64D5D720501D
:10381E00211022102310D8B411D027800FD0D890A9
:10382E0014361536163617362ABE1480D89027361B
:10383E00283629362A362506D8A0260616AEEFD704
:10384E00000E2C6E2AAE17D0FF0E27141C6EFF0E24
:10385E0028141D6EFF0E29141E6E7F0E2A141F6E65
:10386E001C501D101E101F10D8B403D0010E2C6E4C
:10387E0002D014B0FBD72C50D8B427D0010E14268A
:10388E00000E15221622172217A01FD0600050F02E
:10389E001CF0600054F01DF0600058F01EF0600047
:1038AE005CF01FF01F341F321E321D321C326000BE
:1038BE0070F014F0600074F015F0600078F016F0FF
:1038CE0060007CF017F0254A262A26BE10D026501E
:1038DE0003E12528D8A00BD0000E266E2568000E19
:1038EE00146E000E156E000E166E000E176E26BEAE
:1038FE0005D0265011E12504D8B00ED0000E266E4C
:10390E00000E256E000E146E000E156E000E166E55
:10391E00000E176E000E246E600094F02BF02BA09C
:10392E0002D0168E01D0169ED8902B30176EFCD674
:10393E00700E146E010E156E000E166E000E186EC1
:10394E00370E176ED7EC26F00001FA51D8A48BD0A3
:10395E00E6D06000BCF314F06000C0F315F0600018
:10396E00C4F316F06000C8F317F0680E186EE80E78
:10397E00196E9F0E1A6E3A0E1B6E02EC16F0600058
:10398E0050F0EFF0600054F0F0F0600058F0F1F0FD
:10399E0060005CF0F2F0700E0001C66F010EC76F92
:1039AE00A90EC86F200EC96F6000BCF3CAF060008C
:1039BE00C0F3CBF06000C4F3CCF06000C8F3CDF0E0
:1039CE009BEC25F0BED06000ACF314F06000B0F3B9
:1039DE0015F06000B4F316F06000B8F317F0680E3F
:1039EE00186EE80E196E9F0E1A6E3A0E1B6E02ECD2
:1039FE0016F0600050F0EBF0600054F0ECF0600058
:103A0E0058F0EDF060005CF0EEF0700E0001C66F45
:103A1E00010EC76FA90EC86F200EC96F6000ACF300
:103A2E00CAF06000B0F3CBF06000B4F3CCF06000ED
:103A3E00B8F3CDF09BEC25F084D0700EC66F010E5E
:103A4E00C76F010EC86F200EC96F9BEC25F079D0A1
:103A5E00700EC66F010EC76F350EC86F200EC96F80
:103A6E009BEC25F06ED0F951CE6FCF6BCF51000A83
:103A7E00D8A4EED7CE51000AD8B46BD7010AD8B469
:103A8E00A2D7030AD8B4D9D7E3D7F751D8A402D016
:103A9E00010E01D0000EF76FF751D8B40BD0700E97
:103AAE00C66F010EC76F620EC86F200EC96F9BECFA
:103ABE0025F047D0700EC66F010EC76F4D0EC86F42
:103ACE00200EC96F9BEC25F03CD06000D4F320F0A3
:103ADE006000D8F321F03CEC27F0700E0001C66FA9
:103AEE00010EC76F890EC86F200EC96F9BEC25F0B3
:103AFE0028D0700EC66F010EC76F760EC86F200EDF
:103B0E00C96F9BEC25F01DD0700EC66F010EC76FEE
:103B1E00350EC86F200EC96F9BEC25F012D0F951EF
:103B2E00CE6FCF6BCF51000AD8A4EED7CE51000A7C
:103B3E00D8B4ABD7010AD8B4C8D7030AD8B4D9D7EA
:103B4E00E3D7700E186E010E196E9EEC26F0600013
:103B5E0050F01AF0600054F01BF0AAEC23F01200A3
:103B6E0060009CF366F06000A0F367F06000A4F3C1
:103B7E0068F06000A8F369F06000B4F066F06000D1
:103B8E00B8F067F06000BCF068F06000C0F069F05B
:103B9E00810E316EFF0E326E600098F133F06000D0
:103BAE009CF134F06000A0F135F06000A4F136F025
:103BBE00180E05D0D8903632353234323332E82EE4
:103BCE00F9D7335031240001646F000E3220656F37
:103BDE0065BF13D0655104E1170E645DD8A00DD0FA
:103BEE006000B4F02DF06000B8F02EF06000BCF074
:103BFE002FF06000C0F030F0120065BF68D060009A
:103C0E0090F131F0FF0E326EFF0E336E7F0E346E7A
:103C1E00000E356E316601D007D035343532343270
:103C2E0033323232312EF6D76000C8F060F06000C9
:103C3E00CCF061F06000D0F062F06000D4F063F080
:103C4E00000160516615316E61516715326E625119
:103C5E006815336E63516915346E3150321033105E
:103C6E003410D8B4BDD7600098F131F060009CF1EB
:103C7E0032F06000A0F133F06000A4F134F0200EB9
:103C8E0005D0D8903432333232323132E82EF9D771
:103C9E003150321033103410D8B408D0605166272A
:103CAE00615167236251682363516923601D316E30
:103CBE00611D326E621D336E631D346E3150661798
:103CCE003250671733506817345069173AD0600076
:103CDE0098F131F060009CF132F06000A0F133F009
:103CEE006000A4F134F0200E05D0D8903432333277
:103CFE0032323132E82EF9D73150321033103410BF
:103D0E00D8A408D0000E666F000E676F000E686FA5
:103D1E00000E16D0D8906635316E6735326E683526
:103D2E00336E6935346E3150321033103410D8B4CE
:103D3E0008D0000E666F000E676F800E686FBF0EA4
:103D4E00696F600098F12DF060009CF12EF060001C
:103D5E00A0F12FF06000A4F130F012004B50D8A467
:103D6E0002D0000E12004B04D8A40CD0570E010145
:103D7E000019D8B407D0520E0019D8B403D0000ED3
:103D8E004B6EEFD7520E01010019D8A435D0020E9A
:103D9E004B18D8A407D02F0E0165F1D7390E016547
:103DAE0001D0EDD7030E4B18D8A404D00D0E021976
:103DBE00D8A4E5D7040E4B18D8A4D3D7520E0019A9
:103DCE00D8A4DDD72F0E0165DAD73A0E0161D7D709
:103DDE000D0E0219D8A4D3D70A0E0319D8A4CFD723
:103DEE00010E0001FA6F01010151D00F0001F96FB0
:103DFE00000E4B6E010E1200570E0019D8A4B1D74B
:103E0E00020E4B18D8A407D02F0E0165B8D7390E65
:103E1E00016501D0B4D7030E4B18D8A407D02F0ECE
:103E2E000265ADD7390E026501D0A9D7040E4B1825
:103E3E00D8A407D02F0E0365A2D7390E036501D083
:103E4E009ED7050E4B18D8A407D02F0E046597D712
:103E5E00390E046501D093D7060E4B18D8A407D09F
:103E6E002F0E05658CD7390E056501D088D7070E44
:103E7E004B18D8A404D00D0E0619D8A480D7080E5E
:103E8E004B18D8A46ED7570E0019D8A478D72F0E7A
:103E9E00016575D73A0E016172D72F0E02656FD785
:103EAE003A0E02616CD72F0E036569D73A0E036185
:103EBE0066D72F0E046563D73A0E046160D72F0EB6
:103ECE0005655DD73A0E05615AD70D0E0619D8A4B1
:103EDE0056D70A0E0719D8A452D7000E0001FA6F52
:103EEE0001010151D00F0001F96F600008F414F0C8
:103EFE00156A030E176EE80E166E25EC27F00101FB
:103F0E000351640D6F00CCFF1AF06F00D0FF1BF051
:103F1E0004510A0DF3501A26F4501B2214501A267F
:103F2E0015501B2205511A26000E1B22B00E1A2404
:103F3E000001F56F2F0E1B20F66F5AD70A6E0A502E
:103F4E00D8A405AE22D0600008F006F060000CF098
:103F5E0007F0600010F008F0600014F009F0061E83
:103F6E00071E081E091E062A000E07220822092215
:103F7E00600018F00CF060001CF00DF0600020F0F6
:103F8E000EF0600024F00FF00CD0600008F00CF082
:103F9E0060000CF00DF0600010F00EF0600014F0F8
:103FAE000FF00250031004100510D8A409D0000E13
:103FBE00026E000E036E000E046E000E056E1200F1
:103FCE00960E0B6E06D00B2AD8900F320E320D3293
:103FDE000C32000E0C14066E000E0D14076E000E41
:103FEE000E14086EFE0E0F14096E06500710081000
:103FFE000910D8B40DD0E7D70B2A010E0C26000EEF
:10400E000D220E220F22D8900F320E320D320C32AC
:10401E00000E0C14066E000E0D14076E000E0E141C
:10402E00086EFF0E0F14096E0650071008100910C7
:10403E00D8B407D0E1D70B06D8900C360D360E3615
:10404E000F360EBE03D0020E0B60F5D70BA00E9EE0
:10405E00D8900B3260002CF006F0076A086A096AE5
:10406E00600018F009F0086A076A066A06500C121A
:10407E0007500D1208500E1209500F120A50D8A4F4
:10408E0005AE01D00F8E600030F002F0600034F00B
:10409E0003F0600038F004F060003CF005F0120010
:1040AE006000F4F01EF06000F8F01FF06000FCF00D
:1040BE0020F0600000F121F0600050F01EF0600072
:1040CE0054F01FF0600058F020F060005CF021F01A
:1040DE00600078F018F060007CF019F0600080F05D
:1040EE001AF0600084F01BF0180E05D0D8901B3229
:1040FE001A3219321832E82EF9D718501C6E1D6A72
:10410E001C501D10D8A419D0D8901E34186E1F3410
:10411E00196E20341A6E21341B6E185019101A1095
:10412E001B10D8A405D0000E156E020E146E1200D0
:10413E00000E156E030E146E12001C281D10D8A44E
:10414E0020D0600078F018F060007CF019F060006C
:10415E0080F01AF0600084F01BF0090ED89018362B
:10416E0019361A361B36E82EF9D7185019101A10B0
:10417E001B10D8A402D0010E01D0000E146E156AC9
:10418E001200000E156E040E146E1200000E2D1489
:10419E00356E000E2E14366E800E2F14376E7F0E77
:1041AE003014386E3550361037103810D8A408D069
:1041BE00000E2D6E000E2E6E000E2F6E000E306E47
:1041CE00000E3114356E000E3214366E800E33141E
:1041DE00376E7F0E3414386E355036103710381057
:1041EE00D8A408D0000E316E000E326E000E336E63
:1041FE00000E346E30AE09D02D6C2E1ED8B02E2A85
:10420E002F1ED8B02F2A800E305634AE09D0316C06
:10421E00321ED8B0322A331ED8B0332A800E34560E
:10422E00000E2D1A000E2E1A000E2F1A800E301AA6
:10423E00000E311A000E321A000E331A800E341A86
:10424E0031502D5C32502E5833502F583450305838
:10425E00D8B002D0D8901200D8801200600050F072
:10426E001BF0600054F01CF0600058F01DF0600070
:10427E005CF01EF01806D8A0190618280FE11928B0
:10428E00D8A40CD0000E156E000E146E12001B4A30
:10429E001C2A1D4A1E2A1806D8A0190660006FF0A7
:1042AE00D9FF600073F0DAFFDF50D8B426D060007B
:1042BE0077F0F6FF60007BF0F7FF000EF86E080057
:1042CE00F5500009D8B419D018501910D8B415D01B
:1042DE0060006FF0D9FF600073F0DAFFDF501A6EE6
:1042EE00600077F0F6FF60007BF0F7FF000EF86ECF
:1042FE000800F5501A18D8B4CAD760006FF0D9FF6D
:10430E00600073F0DAFFDF501A6E600077F0F6FF90
:10431E0060007BF0F7FF000EF86E0800F5501A5C97
:10432E00146E156AD8A015061200163417341D6EB9
:10433E001D50D8A409D0000E146E000E156E000E7E
:10434E00166E000E176E1200600050F018F060002E
:10435E0054F019F0600058F01AF060005CF01BF099
:10436E00200E05D0D8901B321A3219321832E82E90
:10437E00F9D718501C6E168EFF0E1416FF0E15165A
:10438E00FF0E1616000E1716960E1D5E1DAE0DD0E4
:10439E001D50800A970FD8A0CED7D890173216325C
:1043AE00153214321D3EF9D70DD01F0E1D6407D0E5
:1043BE00C2D7D89014361536163617361D061D5030
:1043CE00D8A4F7D71C50D8B408D0171E161E151E29
:1043DE00146C000E152216221722600050F014F0F5
:1043EE00600054F015F0600058F016F060005CF0BC
:1043FE0017F01200080E3901DF6F000EDE6F400E4F
:10440E00DD6FDCBD02D0DCA5FCD7010ED46E070E2D
:10441E005C6F3F0E5B6F3A01BF9163EC27F0010EAC
:10442E007FEC24F052EC27F031EC25F0D28ED28CBA
:10443E00D28AC2903A014081010E0001F76FC292FA
:10444E003A014083BA92C394C396BB84BB86A30E33
:10445E000001D16F570ED06F020EE82EFED7D02F6F
:10446E00FCD7D12FFAD700F01C0E0001FB6F020E05
:10447E00FC6FFB0E146E000E156E020E166E5E0EA7
:10448E00176E0AEC23F00001F851D8B4FCD7040ED5
:10449E00FB6FB5EC1EF00001D26FD251D8B4F9D734
:1044AE009FEC1CF0F6D745A00ED0600098F01DF0E2
:1044BE0060009CF01EF0600090F01FF0600094F021
:1044CE0020F07FEC26F029BE07D06000A0F02DF082
:1044DE006000A4F02EF004D0000E2E6E000E2D6E95
:1044EE00000E2C6E000E2B6E0ED0000E156E200ED2
:1044FE00146E600090F016F0600094F017F0B3ECBC
:10450E0022F02B4A2C2A2D502B5C2C50800A2A6E1E
:10451E002E50800A2A58D8A0E8D745B00ED0600099
:10452E0098F01DF060009CF01EF0600090F01FF0FF
:10453E00600094F020F07FEC26F0600098F014F00C
:10454E0060009CF015F00CEC27F02D501424246E16
:10455E002E501520256E120016501710D8B404D008
:10456E0016501710D8A404D01450BEEC27F0120029
:10457E0020EE04F01650D9261750DA22DE50DE1047
:10458E00D8B416D020EE04F01650D9261750DA22E1
:10459E0010EE02F01650E1261750E222DE50E65CD5
:1045AE00E650800A1C6EDE50800A1C58D8B01200ED
:1045BE0020EE02F01650D9261750DA226F0078FF3F
:1045CE0018F06F0074FF19F060005BF0D9FF600007
:1045DE005FF0DAFF6F0078FF1AF06F0074FF1BF0C8
:1045EE0018501A24D96E19501B20DA6E600053F041
:1045FE00DFFF20EE02F01650D9261750DA22DE2AFF
:10460E00000EDD2212000001F851D8B412003D0157
:10461E0077AF12006C51D8A41200000E0001F86F93
:10462E00000E1F6E16D01F501424186E000E15208B
:10463E00196E010E1824D96E000E1920DA6EDD0ED9
:10464E001F24E16EE26A000EE2226F007FFFE7FF99
:10465E001F2AFF0E186EFF0E196E16501A6E1B6A69
:10466E0018501A2619501B221F501C6E1D6A1A5004
:10467E001C5C1D50800A1E6E1B50800A1E58D8A04E
:10468E00D2D760005FF06EFD60005BF06CFD6000E5
:10469E0053F0D9FF600057F0DAFFDF503D016B6F2A
:0846AE00000E496E738B12002F
:1046B8006F00BCFB12F0136A3E01F051116E106AD4
:1046C80012501010126E13501110136E0C0EF119B7
:1046D800D8A41BD0600048F002F060004CF003F052
:1046E800000E03BEFF0E046E056E010EA5EC1FF052
:1046F800600008F0EFF060000CF0F0F0600010F0DF
:10470800F1F0600014F0F2F01ED00D0EF119D8A4EB
:104718001AD0600048F002F060004CF003F0000E80
:1047280003BEFF0E046E056E010EA5EC1FF06000BF
:1047380008F0EBF060000CF0ECF0600010F0EDF029
:10474800600014F0EEF03901A1951100FD0E1F6E06
:10475800E80E1E6E000E1D6E000E1C6E1CD01C5046
:104768001824D96E1D501920DA6EDF5073EC27F02B
:104778000009D8A406D01E06D8A01F061C06D8A07B
:104788001D061E501F10D8B41200FD0E1F6EE80E35
:104798001E6E1C4A1D2A1A501C5C1B501D58D8A09E
:1047A800DED7FD0E1F6EE80E1E6E0D0E73EC27F0A1
:1047B8000009D8A408D01E06D8A01F061E28F5E1B7
:1047C8001F28D8A4F2D70A0E73EC27F00009D8A442
:1047D80012001E06D8A01F061E28F5E11F28D8B40F
:1047E8001200F1D7000E14141C6E000E15141D6E65
:1047F800800E16141E6E7F0E17141F6E1C501D108F
:104808001E101F10D8A408D0000E146E000E156ECE
:10481800000E166E000E176E000E18141C6E000E99
:1048280019141D6E800E1A141E6E7F0E1B141F6E37
:104838001C501D101E101F10D8A408D0000E186E92
:10484800000E196E000E1A6E000E1B6E185014180A
:104858000AE11950151807E11A50161804E11B50FF
:104868001718D8B402D0D8901200D8801200000EC1
:10487800196E17AE06D0166C171ED8B0172A010E7F
:10488800196E15AE06D0146C151ED8B0152A010E77
:10489800191A000E1B6E000E1A6E16501710D8B497
:1048A8001CD0010E186E04D0D89016361736182A68
:1048B80017AEFAD7D8901A361B361650145C175014
:1048C8001558D8A005D01650145E1750155A1A80DE
:1048D800D89017321632182EEDD71950D8B404D004
:1048E8001A6C1B1ED8B01B2A600068F014F0600018
:1048F8006CF015F01200166EC48CC49E3A01609DCF
:10490800609F160EE56F130E176F10D0030E3D0152
:10491800F66F400E09D0010E3D01F66F140E04D05B
:10492800000E3D01F66F890EF56F10D01650146E0B
:10493800156A1550000AD8A4F3D71450010AD8B440
:10494800E5D7030AD8B4E7D7010AEAD7000E4B6EB9
:10495800B00EF26F000EF36F800EDC6F000EFA6F70
:10496800000EF86F39019387938983878389000E36
:10497800A36F3D01F38F1200000E196E15AE06D01D
:10498800146C151ED8B0152A010E196E17AE04D076
:10499800166C171ED8B0172A16501710D8B418D08E
:1049A800010E186E04D0D89016361736182A17AE8E
:1049B800FAD71650145C17501558D8A004D01650C2
:1049C800145E1750155AD89017321632182EF1D790
:1049D8001950D8B404D0146C151ED8B0152A60002C
:1049E80050F014F0600054F015F01200600000F36D
:1049F800C4F0600004F3C5F0000E0001F46F000E6F
:104A0800F36F17D06000F8F2AEF06000FCF2AFF080
:104A1800C40EB06F000EB16F600008F3B2F0600012
:104A28000CF3B3F0DBEC17F00001AE51F327AF51F4
:104A3800F423600013F3F6FF600017F3F7FF000E8E
:104A4800F86E0800F5500009D8A4DCD76000CCF354
:104A5800BEF06000D0F3BFF01200C392C390BB92C7
:104A6800BB903A015093509152835281010E5A6F74
:104A780053935391090EE16F080EE26F210E096FEF
:104A8800220E086F040E3D01736F800E746F240EA2
:104A9800756F030E7B6F000E796F000E766F010E37
:104AA8000001F86F39018391829FA391A29F93819E
:104AB800928F3D0179957A8539018393A3939383E6
:104AC8003D01738F1200600058F01AF060005CF02E
:104AD8001BF0600050F01CF0600054F01DF01A50FC
:104AE800186E1B50196E1A4A1B2A600063F0F6FFF5
:104AF800600067F0F7FF000EF86E600073F0D9FFF2
:104B0800600077F0DAFF1C4A1D2A1F0EF76403D0F5
:104B18000800F55007D06F00DBFFE1FF6F00DFFFF3
:104B2800E2FFE750DF6EDF50D8B41200D8D7CA0EC4
:104B38000101A96F000EAA6F600018F3ABF16000C5
:104B48001CF3ACF1000EAE6F000EAD6F000EB06F2F
:104B5800000EAF6FAB0E0001BE6F010EBF6F60009D
:104B680020F3C0F0600024F3C1F0A90EC26F010E5B
:104B7800C36FFAEC24F00101AD510001C625D96ECE
:104B88000101AE510001C721DA6E000EDF6E12007E
:104B9800830EF66E4F0EF76E000EF86E09006F006A
:104BA800D4FFFDF0820EF66E4F0EF76E000EF86E13
:104BB80009006F00D4FF4CF000EE00F1A70EEE6A7A
:104BC800E806FDE100EED3F02A0EEE6AE806FDE104
:104BD80000EE3DF00F0EEE6AE806FDE1080ED56E18
:104BE800000ED66E000ED76E000101EF22F0000E07
:104BF800311A000E321A000E331A800E341A600071
:104C0800B4F014F06000B8F015F06000BCF016F0D5
:104C18006000C0F017F06000C4F018F06000C8F041
:104C280019F06000CCF01AF06000D0F01BF0A5EC91
:104C380019F0600050F02DF0600054F02EF0600084
:104C480058F02FF060005CF030F01200B89E472A50
:104C5800020E4718D8A402D0BA900AD0280E4718D6
:104C6800D8A406D00001F751D8A4BA80000E476E28
:104C7800B00EB66E3C0EB76E4C50D8B404D00C0EC5
:104C8800AEEC27F003D00D0EAEEC27F04C50D8A4B4
:104C980002D0010E01D0000E4C6E3901A39FB88ED0
:104CA8001100BF0E1C6EFF0E1D6E600068F01EF036
:104CB80060006CF01FF01C501E261D501F221F5054
:104CC80006E11A0E1E5CD8B002D0010E01D0000E0B
:104CD800206E216A20502110D8B406D0200E1A1058
:104CE8001A6E1B501B6E1200600068F01AF060000C
:104CF8006CF01BF01200000E236E000E226E0ED018
:104D0800600084F014F0156A60007CF016F0600012
:104D180080F017F0B3EC22F0224A232A22501D24F7
:104D2800D96E23501E20DA6EDF50216E2150D8B480
:104D38001200E6D7000E176E000E166E700E1624BF
:104D4800D96E010E1720DA6EDF50D8B40AD0164A91
:104D5800172A17BEF3D7175004E1370E165CD8A0F0
:104D6800EDD7600058F014F060005CF015F0120008
:104D78001450151016101710D8B408D0000E141AB5
:104D8800000E151A000E161A800E171A600050F041
:104D980014F0600054F015F0600058F016F0600050
:104DA8005CF017F01200000E1B6E000E1A6E0BD08E
:104DB8001A501424D96E1B501520DA6E60005BF06F
:104DC800DFFF1A4A1B2A17501A5C1B50800A196EFB
:104DD8001850800A1958D8B01200EAD7BF0E166EBC
:104DE800FF0E176E600050F018F0600054F019F0D4
:104DF8001650182617501922195006E11A0E185C79
:104E0800D8B002D0010E01D0000E146E156A12003F
:104E1800600050F016F0600054F017F002D0144A09
:104E2800152A600053F0D9FF600057F0DAFFDF5011
:104E3800D8A4F5D71650145C146E17501558156E73
:104E48001200145016026F00CCFF18F06F00D0FF4C
:104E580019F014501702F350192615501602F35082
:104E68001926600060F014F0600064F015F012007C
:104E780021500001FB11FB6F600080F0FCF0FB0E7D
:104E8800146E000E156E020E166E5E0E176E0AEC8C
:104E980023F00001F851D8A41200FBD7C3883A01C7
:104EA8005089940E3E01F86F000EF96F000EFA6FEC
:104EB800000EFD6F390181959185A1951200100EA4
:104EC800B86E750EB96EB00EB66E3C0EB76E000EAB
:104ED800476E3901839FA39F938FB88E1200146E7B
:104EE800390193B906D0600050F04AF09389010E59
:064EF8001200000E120082
:104F0000000E4B24D96EDA6A010EDA226F00A3F785
:064F1000DFFF4B2A110037
:104F1800DD0E4924D96EDA6A000EDA22DF503D012F
:064F28006B6F492A110025
:104F3000D30E4824D96EDA6A000EDA226F00ABF580
:064F4000DFFF482A11000A
:104F48003D0179A503D0010E0001F86F000E3D0167
:104F5800796F1100016E3E01F8B11200600007F090
:064F6800F1FEF8811200C9
:0E4F700060002BF1EAFD390193991100120047
:044F80001100015EBD
:020000040020DA
:10000000FF0FFF0FFF0FFF0FFF0FFF0FFF0FFF0F80
:020000040030CA
:0A0000008CD7BDFC9FFFFFDFFFFF60
:00000001FF
