:020000040000FA
:0400000057EF00F0C6
:10000800A914A914A914A914A914A914A914A91400
:10001800A914A9140513A914A914A914A914A91495
:10002800A914A914A914A914A914A914A9149514F4
:100038008F149B14A9148914A514A914A9142014A5
:10004800A914A914A914A9142B00A914A914A91452
:10005800A914A914A914A914A914A914A914A914B0
:10006800A914A914A914A914A914A914A914A914A0
:10007800A914A9142B00A914A914A9142B002B0046
:100088002B002B002B002B002B002B00A914A914EC
:10009800A914A914A914A9142B002B002B002B00B8
:0A00A800A914A914FF00B4EF27F01B
:1020000000436F6D6D616E64206E6F742072656346
:102010006F676E697A65642100426C696E6B696EE8
:1020200067204C4544206973204F46462100437584
:102030007272656E74204C696D6974207365746585
:10204000642100426C696E6B696E67204C454420C8
:102050006973204F4E2100566F6C74616765207361
:1020600065746564210043757272656E743A256605
:10207000204100566F6C746167653A2566205600F2
:10208000494E46004E414E00696E66006E616E001C
:102090006C660000000E0001B46F000EB36F6000AC
:1020A0003CF2C5F0600040F2C6F0600044F2C7F0B8
:1020B000600048F2C8F0C8AF1ED0000EB46F010E29
:1020C000B36F600014F360F0600018F361F060001B
:1020D0001CF362F0600020F363F05DEC28F0600018
:1020E00080F1C5F0600084F1C6F0600088F1C7F0AF
:1020F00060008CF1C8F0000E0001CC6F000ECB6FB9
:10210000600014F1B8F0600018F1B9F0B351B411E7
:10211000D8A402D049A414D0B351B411D8A404D087
:10212000000E9E6F2B0E03D0000E9E6F2D0E9D6F26
:10213000600074F22AF1CB4BCC2BB807D8A0B907BA
:10214000600014F360F0600018F361F060001CF3AD
:1021500062F0600020F363F0DDEC21F00001600527
:102160006111D8A452D0BF0E946FFF0E956F93519A
:10217000966F976B9451962795519723975106E147
:102180001A0E965DD8B002D0010E01D0000E9F6FDE
:10219000A06B9F51A011D8B40DD02A0ECB25606F33
:1021A000010ECC21616F800E626F200E636FF3EC25
:1021B00026F00CD02A0ECB25606F010ECC21616F6A
:1021C000880E626F200E636FF3EC26F00001FD0EA7
:1021D000B827FF0EB923600034F270F0600038F2C7
:1021E00071F02A0E0001726F010E736F6000E0F251
:1021F00074F06000E4F275F08BEC23F06000C0F145
:102200008DF06000C4F18EF01200600014F360F0F5
:10221000600018F361F060001CF362F0600020F3CE
:1022200063F0DDEC21F0000160516111D8A434D0DD
:10223000BF0E946FFF0E956F9351966F976B9451ED
:10224000962795519723975106E11A0E965DD8B0BF
:1022500002D0010E01D0000EA16FA26BA151A211FC
:10226000D8B40DD02A0ECB25606F010ECC21616F42
:10227000840E626F200E636FF3EC26F0A7D72A0E50
:10228000CB25606F010ECC21616F8C0E626F200E2A
:10229000636FF3EC26F09AD7000ECD6F000ECE6F71
:1022A000800ECF6F3F0ED06F000ECA6F000EC96F49
:1022B000600014F360F0600018F361F060001CF33C
:1022C00062F0600020F363F0000E646F000E656F33
:1022D000000E666F000E676F3BEC25F00001D8A082
:1022E00026D09CD0600034F360F0600038F361F0D9
:1022F00060003CF362F0600040F363F0000E646F36
:10230000000E656F200E666F410E676FF8EC15F0DA
:10231000600080F1CDF0600084F1CEF0600088F1C3
:10232000CFF060008CF1D0F00001C94BCA2B6000E7
:1023300014F379F0600018F37AF060001CF37BF07E
:10234000600020F37CF0000E646F000E656F200EBD
:10235000666F410E676F600034F360F0600038F321
:1023600061F060003CF362F0600040F363F0F8EC71
:1023700015F0600080F17DF0600084F17EF0600077
:1023800088F17FF060008CF180F054EC22F00001C5
:10239000D8A027D0A7D7600034F360F0600038F3EE
:1023A00061F060003CF362F0600040F363F0000E07
:1023B000646F000E656F200E666F410E676F1BEC39
:1023C0001DF0600080F1CDF0600084F1CEF060007F
:1023D00088F1CFF060008CF1D0F00001C907D8A0DF
:1023E000CA07600014F379F0600018F37AF0600017
:1023F0001CF37BF0600020F37CF0600034F37DF090
:10240000600038F37EF060003CF37FF0600040F342
:1024100080F054EC22F00001D8A0BDD760004CF24F
:1024200066F0676B89EC27F000016651BA6F6000B7
:10243000E8F2B7F0670EBA19D8A41BD0475048107D
:10244000D8A404D0000E486E010E476E48BE05D0D9
:10245000485008E14704D8B005D0000EB66F060E0C
:10246000B56F0AD060001CF1B5F0600020F1B6F045
:1024700003D048AEF7D7F1D7670EBA19D8A424D045
:10248000CAAF06D0FC0EC95DFF0ECA59D8A01AD03B
:10249000FF0E946FFF0E956F6000D4F296F060000F
:1024A000D8F297F09451962795519723C951965D8C
:1024B0009751800A986FCA51800A9859D8A002D0C3
:1024C000660E01D0650EB76F6000D4F2ADF060000B
:1024D000D8F2AEF0670EBA19D8A405D0660EB719B7
:1024E000D8B4CAAF02D0AD4BAE2B660EB719D8A484
:1024F00016D0CAAF0CD0000ECD6F000ECE6F800E7E
:10250000CF6F3F0ED06F000ECA6F000EC96F670EFF
:10251000BA19D8B404D0C951AD27CA51AE23000EA0
:10252000C46F000EC36F600014F3BBF0600018F3BB
:10253000BCF060001CF3BDF0600020F3BEF0600052
:1025400034F399F0600038F39AF060003CF39BF0AC
:10255000600040F39CF0AED06000ECF260F06000F0
:10256000F0F261F06000F4F262F06000F8F263F003
:10257000600034F364F0600038F365F060003CF311
:1025800066F0600040F367F01BEC1DF0600080F126
:1025900079F0600084F17AF0600088F17BF06000EF
:1025A0008CF17CF072EC1EF06000E4F1BFF0600092
:1025B000E8F1C0F06000ECF1C1F06000F0F1C2F0B1
:1025C0006000FCF260F0600000F361F0600004F372
:1025D00062F0600008F363F025EC23F0600080F106
:1025E000B1F0600084F1B2F06000ECF279F06000CC
:1025F000F0F27AF06000F4F27BF06000F8F27CF028
:10260000600034F364F0600038F365F060003CF380
:1026100066F0600040F367F06000FCF260F060007C
:1026200000F361F0600004F362F0600008F363F00F
:10263000F8EC15F0600080F17DF0600084F17EF030
:10264000600088F17FF060008CF180F059EC27F099
:102650006000E4F1BBF06000E8F1BCF06000ECF178
:10266000BDF06000F0F1BEF0600034F360F0600097
:1026700038F361F060003CF362F0600040F363F017
:10268000000E0001646F000E656F200E666F410E34
:10269000676F1BEC1DF0600080F1CDF0600084F1ED
:1026A000CEF0600088F1CFF060008CF1D0F0000136
:1026B000C34BC42BAD51C35DC451800A946FAE515E
:1026C000800A9459D8A048D7600034F360F06000C5
:1026D00038F361F060003CF362F0600040F363F0B7
:1026E000000E646F000E656FA00E666F400E676F80
:1026F000F8EC15F0600080F1BFF0600084F1C0F0EC
:10270000600088F1C1F060008CF1C2F06000ECF272
:1027100079F06000F0F27AF06000F4F27BF0600093
:10272000F8F27CF06000FCF27DF0600000F37EF0D7
:10273000600004F37FF0600008F380F054EC22F0B6
:102740000001D8A01ED06000ECF260F06000F0F252
:1027500061F06000F4F262F06000F8F263F0600093
:10276000FCF264F0600000F365F0600004F366F0D2
:10277000600008F367F03BEC25F00001D8B0B1B180
:1027800008D0000EBF6F000EC06F000EC16F000EAC
:10279000C26F600014F360F0600018F361F0600035
:1027A0001CF362F0600020F363F06000FCF264F060
:1027B000600000F365F0600004F366F0600008F369
:1027C00067F076EC1BF0600080F1BBF0600084F1F4
:1027D000BCF0600088F1BDF060008CF1BEF06000DC
:1027E00064F2CDF0600068F2CEF060006CF2CFF0E1
:1027F000600070F2D0F0650E0001B719D8B407D0B0
:10280000600024F3AFF0600028F3B0F004D0000EB5
:10281000B06F000EAF6F000EAC6F000EAB6F000E0E
:10282000AA6F000EA96F000EC46F000EC36FFAD01E
:102830006000ECF260F06000F0F261F06000F4F231
:1028400062F06000F8F263F0600034F364F060005E
:1028500038F365F060003CF366F0600040F367F029
:102860001BEC1DF0600080F179F0600084F17AF0DB
:10287000600088F17BF060008CF17CF072EC1EF05F
:102880006000E4F1BFF06000E8F1C0F06000ECF13E
:10289000C1F06000F0F1C2F06000FCF260F0600096
:1028A00000F361F0600004F362F0600008F363F08D
:1028B00025EC23F0600080F1B1F0600084F1B2F00B
:1028C00049B80DD00001B151B211D8A408D0670E9B
:1028D000BA19D8B4B0AF03D0A94BAA2B3AD0000193
:1028E000AB51AC11D8B4B0AF22D02A0ECB25D96EE3
:1028F000010ECC21DA6E2E0EDF6ECB4BCC2BB8073F
:10290000D8A0B907000EAC6F010EAB6F10D02A0E25
:10291000CB25D96E010ECC21DA6E300EDF6ECB4B9B
:10292000CC2BB807D8A0B907A907D8A0AA07A951E6
:10293000AA11D8A4ECD72A0ECB25D96E010ECC2132
:10294000DA6EB151300FDF6ECB4BCC2BB807D8A06D
:10295000B9076000ECF279F06000F0F27AF0600004
:10296000F4F27BF06000F8F27CF0600034F364F085
:10297000600038F365F060003CF366F0600040F3FF
:1029800067F06000FCF260F0600000F361F060004E
:1029900004F362F0600008F363F0F8EC15F06000F7
:1029A00080F17DF0600084F17EF0600088F17FF0BE
:1029B00060008CF180F059EC27F06000E4F1BBF08E
:1029C0006000E8F1BCF06000ECF1BDF06000F0F1F7
:1029D000BEF0600034F360F0600038F361F0600036
:1029E0003CF362F0600040F363F0000E0001646F9E
:1029F000000E656F200E666F410E676F1BEC1DF0B9
:102A0000600080F1CDF0600084F1CEF0600088F1CC
:102A1000CFF060008CF1D0F00001AF07D8A0B00774
:102A2000C34BC42BAD51C35DC451800A946FAE51EA
:102A3000800A9459D8B008D0CCBFFAD6CC5104E162
:102A40004B0ECB5DD8A0F4D6AB51AC11D8B449A88D
:102A50000AD02A0ECB25D96E010ECC21DA6E2E0EAD
:102A6000DF6ECB4BCC2B2A0ECB25D96E010ECC21A1
:102A7000DA6E000EDF6E650EB719D8A4EBEF10F01A
:102A8000000EC46F4F0EC36F2A0EC325D96E010E00
:102A9000C421DA6E000EDF6E000EB46F000EB36F4D
:102AA000CAAF08D0000EB46F010EB36FC96DCA1F54
:102AB000D8B0CA2B000EB66F020EB56F32D0C30766
:102AC000D8A0C4072A0EC325D96E010EC421DA6E20
:102AD000600024F360F0600028F361F0000E636F83
:102AE0000A0E626F4BEC26F000016051300FDF6E72
:102AF000600024F360F0600028F361F0000E636F63
:102B00000A0E626F81EC25F0600080F1C9F0600070
:102B100084F1CAF00001B507D8A0B607B807D8A05D
:102B2000B907C951CA11D8A4CAD7B6BF05D0B65182
:102B3000C6E1B505D8B0C3D7C307D8A0C407B35101
:102B4000B411D8A404D0000EA46F2B0E03D0000E35
:102B5000A46F2D0EA36F2A0EC325D96E010EC421BA
:102B6000DA6E60008FF2DFFFB807D8A0B907C3079D
:102B7000D8A0C407BF0E946FFF0E956F9351966F48
:102B8000976B9451962795519723975106E11A0E0A
:102B9000965DD8B002D0010E01D0000EA76FA86BD1
:102BA000A751A811D8A404D0000EA66F650E03D0BB
:102BB000000EA66F450EA56F2A0EC325D96E010E15
:102BC000C421DA6E600097F2DFFFB807D8A0B9071A
:102BD0002A0ECB25606F010ECC21616F2A0EC32512
:102BE000626F010EC421636FF3EC26F0EBEF10F07F
:102BF00000016351800B6C6F63516325726F62BF7C
:102C000072817251D8B40DD07229D8A408D0000EA8
:102C1000606F000E616F000E626F000E636F628F57
:102C200008D0000E606F000E616F000E626F000E24
:102C3000636F6751800B6C1B675167256D6F66BFB3
:102C40006D816D51D8B40DD06D29D8A408D0000E77
:102C5000646F000E656F000E666F000E676F668F03
:102C600008D0000E646F000E656F000E666F000ED8
:102C7000676F6D51D8B403D07251D8A409D0000E3B
:102C8000606F000E616F000E626F000E636F1200C6
:102C9000665160036F00CCFF77F06F00D0FF78F0D3
:102CA00077516E6F6F6B706B716B7851736F746B64
:102CB000756B766B655161036F00CCFF77F06F0029
:102CC000D0FF78F077516E27000E6F2370237123A9
:102CD00078517327000E74237523762364516203A1
:102CE0006F00CCFF77F06F00D0FF78F077516E2740
:102CF000000E6F237023712378517327000E742305
:102D0000752376236000C0F171F06000BCF170F0B3
:102D10006000B8F16FF06E6B645161036F00CCFF1F
:102D200077F06F00D0FF78F077516E2778516F23DE
:102D3000000E7023000E7123655160036F00CCFFFD
:102D400077F06F00D0FF78F077516E2778516F23BE
:102D5000000E7023000E71236000C0F171F060005E
:102D6000BCF170F06000B8F16FF06E6B64516003FD
:102D70006F00CCFF77F06F00D0FF78F077516E27AF
:102D800078516F23000E7023000E7123665161038A
:102D90006F00CCFF77F06F00D0FF78F0775173278A
:102DA00078517423000E7523000E7623655162035B
:102DB0006F00CCFF77F06F00D0FF78F0775173276A
:102DC00078517423000E7523000E7623665162033A
:102DD0006F00CCFF77F06F00D0FF78F07751686F0D
:102DE0007851696F6A6B6B6B6000A8F16BF06000E3
:102DF000A4F16AF06000A0F169F0686B6851732774
:102E0000695174236A5175236B5176236000B8F1C0
:102E100068F06000BCF169F06000C0F16AF0600029
:102E2000C4F16BF0190E05D0D8906B336A33693357
:102E30006833E82EF9D768517327695174236A51B2
:102E400075236B5176236000C0F171F06000BCF116
:102E500070F06000B8F16FF06E6B6D516000C8F1FA
:102E600068F0696B6827000E6923820E6825776F0A
:102E7000FF0E6921786F0FD0D8907337743775378C
:102E8000763771BF7381D8906E376F37703771376F
:102E90007707D8A0780775AFEFD7000E6D6F71AFC9
:102EA00017D0FF0E6E15686FFF0E6F15696FFF0E5E
:102EB00070156A6F7F0E71156B6F685169116A1119
:102EC0006B11D8B403D0010E6D6F02D073B1FBD774
:102ED0006D51D8B427D0010E7327000E74237523CB
:102EE000762376A11FD06000CCF168F06000D0F1AD
:102EF00069F06000D4F16AF06000D8F16BF06B35D6
:102F00006B336A33693368336000A0F173F060009B
:102F1000A4F174F06000A8F175F06000ACF176F0F7
:102F2000774B782B78BF0DD0785103E17729D8A063
:102F300008D0000E736F000E746F800E756F7F0ED9
:102F400021D078BF05D078510EE17705D8B00BD0ED
:102F5000000E736F000E746F000E756F000E766FAB
:102F6000000E6C6F10D06000DCF172F0FF0E731772
:102F7000FF0E74177F0E7517000E761772B1758FDE
:102F8000D8907231766F6C5176136000CCF160F09E
:102F90006000D0F161F06000D4F162F06000D8F11F
:102FA00063F012001350800B1C6E13501324226E1A
:102FB00012BE22802250D8B40DD02228D8A408D026
:102FC000000E106E000E116E000E126E000E136ECB
:102FD000128E08D0000E106E000E116E000E126ED2
:102FE000000E136E1750800B1C1A17501724216EF9
:102FF00016BE21802150D8B40DD02128D8A408D0E5
:10300000000E146E000E156E000E166E000E176E7A
:10301000168E08D0000E146E000E156E000E166E81
:10302000000E176E2150D8B403D02250D8A409D076
:10303000000E106E000E116E000E126E000E136E5A
:103040001200165010026F00CCFF27F06F00D0FF67
:1030500028F027501D6E1E6A1F6A206A2850236EB2
:10306000246A256A266A155011026F00CCFF27F0EA
:103070006F00D0FF28F027501D26000E1E221F22B1
:10308000202228502326000E2422252226221450F6
:1030900012026F00CCFF27F06F00D0FF28F02750FE
:1030A0001D26000E1E221F22202228502326000E3D
:1030B00024222522262260007CF020F0600078F097
:1030C0001FF0600074F01EF01D6A145011026F00B2
:1030D000CCFF27F06F00D0FF28F027501D26285086
:1030E0001E22000E1F22000E2022155010026F001B
:1030F000CCFF27F06F00D0FF28F027501D26285066
:103100001E22000E1F22000E202260007CF020F004
:10311000600078F01FF0600074F01EF01D6A14501B
:1031200010026F00CCFF27F06F00D0FF28F027506F
:103130001D2628501E22000E1F22000E202216508F
:1031400011026F00CCFF27F06F00D0FF28F027504E
:10315000232628502422000E2522000E2622155058
:1031600012026F00CCFF27F06F00D0FF28F027502D
:10317000232628502422000E2522000E2622165037
:1031800012026F00CCFF27F06F00D0FF28F027500D
:10319000186E2850196E1A6A1B6A600068F01BF0DE
:1031A000600064F01AF0600060F019F0186A1850BE
:1031B0002326195024221A5025221B502622600053
:1031C00074F018F0600078F019F060007CF01AF0EC
:1031D000600080F01BF0190E05D0D8901B321A3217
:1031E00019321832E82EF9D7185023261950242204
:1031F0001A5025221B50262260007CF020F060002F
:1032000078F01FF0600074F01EF01D6A215060001D
:1032100088F018F0196A1826000E1922820E182458
:10322000276EFF0E1920286E0FD0D8902336243633
:103230002536263620BE2380D8901D361E361F36F2
:1032400020362706D8A0280625AEEFD7000E216E1F
:1032500020AE17D0FF0E1D14186EFF0E1E14196E2F
:10326000FF0E1F141A6E7F0E20141B6E18501910BB
:103270001A101B10D8B403D0010E216E02D023B057
:10328000FBD72150D8B427D0010E2326000E2422CC
:103290002522262226A01FD060008CF018F06000A6
:1032A00090F019F0600094F01AF0600098F01BF0B4
:1032B0001B341B321A3219321832600060F023F0CE
:1032C000600064F024F0600068F025F060006CF0AD
:1032D00026F0274A282A28BE0DD0285003E12728A7
:1032E000D8A008D0000E236E000E246E800E256E2E
:1032F0007F0E21D028BE05D028500EE12704D8B07B
:103300000BD0000E236E000E246E000E256E000EF4
:10331000266E000E1C6E10D060009CF022F0FF0E96
:103320002316FF0E24167F0E2516000E261622B039
:10333000258ED8902230266E1C50261260008CF00C
:1033400010F0600090F011F0600094F012F0600056
:1033500098F013F0120060004FF3D9FF600053F3B0
:10336000DAFF6F007BFFF6FF6F0077FFF7FF000EBD
:10337000F86E0800F550250AD8A493D160004FF3E9
:10338000D9FF600053F3DAFFDE2A000EDD22000EC3
:10339000466E000E456E600014F149F0600018F1B1
:1033A0004AF04768486860004FF3D9FF600053F364
:1033B000DAFF6F007BFFF6FF6F0077FFF7FF000E6D
:1033C000F86E0800F5500001666F676B89EC27F016
:1033D00000016651E16FE151D8B445D060004FF370
:1033E000D9FF600053F3DAFF6F0078FFD7F06F006A
:1033F00074FFD8F0010ED727000ED82360005FF3CA
:10340000F6FF600063F3F7FF000EF86E0800F5505A
:10341000666F676B89EC27F000016651E26FE2513D
:10342000D8B421D060004FF3D9FF600053F3DAFF26
:103430006F0078FFD7F06F0074FFD8F0020ED72727
:10344000000ED82360005FF3F6FF600063F3F7FF20
:10345000000EF86E0800F550666F676B89EC27F078
:1034600000016651E36F660EE119D8A45BD06000DD
:103470004FF3D9FF600053F3DAFF6F007BFFF6FFD5
:103480006F0077FFF7FF000EF86E08006F00D4FFA3
:10349000E4F060004FF3D9FF600053F3DAFFDE2A57
:1034A000000EDD22600057F3D9FF60005BF3DAFF06
:1034B0006F007CFFD7F0040EDE266F007CFFD8F093
:1034C000000EDD2260005FF3D9FF600063F3DAFFD6
:1034D0006F0078FFDDF06F0078FFDEF06F0078FF9F
:1034E000DFF06F0078FFE0F0600044F38DF06000E3
:1034F00048F38EF0600074F38FF0600078F390F082
:1035000060007CF391F0600080F392F0600090F333
:1035100093F04AEC10F0600034F2D1F0600038F221
:10352000D2F01200E10E606F000E616F900E626FBC
:10353000200E636F000E656F020E646FBDEC22F00B
:10354000000160516111D8A470D060004FF3D9FF21
:10355000600053F3DAFF6F0078FFD7F06F0074FF5D
:10356000D8F0010ED727000ED82360005FF3F6FFD6
:10357000600063F3F7FF000EF86E08006F00D4FFE1
:10358000E4F0BF0ED76FFF0ED86F60004FF3D9FF86
:10359000600053F3DAFF6F007BFFF6FF6F0077FFE9
:1035A000F7FF000EF86E0800F550D96FDA6BD751AF
:1035B000D927D851DA23DA5106E11A0ED95DD8B0ED
:1035C00002D0010E01D0000EDB6FDC6BDB51DC1191
:1035D000600057F3D9FF60005BF3DAFF6F007CFFF8
:1035E000D7F0040EDE266F007CFFD8F0000EDD223F
:1035F00060005FF3D9FF600063F3DAFF6F0078FFCC
:10360000DDF06F0078FFDEF06F0078FFDFF06F0015
:1036100078FFE0F0020E60004FF3D9FF600053F333
:10362000DAFFDE26000EDD225FD760004FF3D9FF00
:10363000600053F3DAFF6F007BFFF6FF6F0077FF48
:10364000F7FF000EF86E0800F550250AD8A41BD02D
:1036500060004FF3D9FF600053F3DAFFDE2A000E5B
:10366000DD22000E616F250E606F600044F362F092
:10367000600048F363F041EC24F0000E0001D26FCB
:10368000010ED16F120060004FF3D9FF600053F3B9
:10369000DAFFDE2A000EDD22000ED26F000ED16F9F
:1036A000120060004FF3D9FF600053F3DAFF6F00A0
:1036B0007BFFF6FF6F0077FFF7FF000EF86E080044
:1036C000F5500001606F616B600044F362F06000D0
:1036D00048F363F041EC24F060004FF3D9FF600041
:1036E00053F3DAFFDE2A000EDD22C7D70001635153
:1036F000800B6C6F635163256E6F62BF6E816E517C
:10370000D8B40DD06E29D8A408D0000E606F000E7A
:10371000616F000E626F000E636F628F06D0000E45
:10372000606F000E616F000E626F000E636F675175
:10373000800B6D6F6C516D19D8A46C8D6751672526
:103740006D6F66BF6D816D51D8B40DD06D29D8A451
:1037500008D0000E646F000E656F000E666F000EDD
:10376000676F668F06D0000E646F000E656F000EE7
:10377000666F000E676F6E516D5DD8B031D06CAD65
:1037800002D0800E6C1B6000B8F16FF06000B4F1E5
:103790006EF06000BCF16DF0600080F16FF06000D1
:1037A00090F160F06000BCF164F0600084F16FF0B3
:1037B000600094F161F06000BCF165F0600088F198
:1037C0006FF0600098F162F06000BCF166F060009C
:1037D0008CF16FF060009CF163F06000BCF167F069
:1037E000000E6F6F6E516000B4F168F0696B685F36
:1037F000000E695B69BF2DD0695104E11A0E685D46
:10380000D8A027D06051611162116311D8B402D0E1
:10381000010E01D0000E6F6F000E606F000E616F21
:10382000000E626F000E636F6000B4F16EF015D091
:103830006FA105D0D8906F3101096F6F02D0D89079
:103840006F3360B16F8F63356333623361336033DD
:103850006E2B6D516E5DD8A0EBD76CBD28D06E512C
:10386000D8A409D0000E606F000E616F000E626F69
:10387000000E636F12006451602765516123665129
:1038800062236751632363A171D06FA105D0D890E3
:103890006F3101096F6F02D0D8906F3360B16F8FB5
:1038A000633563336233613360336E2B5FD06451B1
:1038B000605D65516159665162596351800A686F54
:1038C0006751800A6859D8B025D06051645D686F2F
:1038D00061516559696F625166596A6F63516759E1
:1038E0006B6FFF0E6825606FFF0E6921616FFF0E21
:1038F0006A21626FFF0E6B21636F800E6C1B6F6D10
:103900006F51D8A40FD0010E6027000E61236223EF
:10391000632308D06451605F6551615B6651625BEF
:103920006751635B6051611162116311D8A41CD0AF
:103930006F51D8A419D0000E606F000E616F000E99
:10394000626F000E636F1200D89060376137623784
:1039500063376FBF60816FA102D0D88001D0D8904B
:103960006F376E51D8A46E0762AFEED7000E6D6F41
:103970006FAF0CD06000BCF168F07F0E6817D8B450
:1039800003D0010E6D6F02D060B1FBD76D51D8B47A
:1039900028D0010E6027000E61236223632363A1F8
:1039A00020D0600080F168F0600084F169F0600070
:1039B00088F16AF060008CF16BF06B356B336A3321
:1039C000693368336000A0F160F06000A4F161F039
:1039D0006000A8F162F06000ACF163F06E29D8A439
:1039E0006E2B6E29D8B403D06E51D8A40DD0000E22
:1039F000606F000E616F000E626F000E636F6E519C
:103A0000D8A402D0000E6C6F6EA102D0628F01D0DC
:103A1000629FD8906E31636F6CBF638F600080F1DE
:103A200060F0600084F161F0600088F162F0600095
:103A30008CF163F0120000016351800B706F6351D1
:103A40006325776F62BF77817751D8B40DD077291E
:103A5000D8A408D0000E606F000E616F000E626F78
:103A6000000E636F628F06D0000E606F000E616FF4
:103A7000000E626F000E636F6751800B701B675101
:103A80006725786F66BF78817851D8B40DD07829D2
:103A9000D8A408D0000E646F000E656F000E666F2C
:103AA000000E676F668F06D0000E646F000E656FA4
:103AB000000E666F000E676F645165116611671125
:103AC000D8A41BD0000E606F000E616F000E626FF5
:103AD000000E636F800E62137F0E631370516313C9
:103AE000600080F160F0600084F161F0600088F1B6
:103AF00062F060008CF163F012007751D8A409D015
:103B0000000E606F000E616F000E626F000E636F3B
:103B1000120078516000DCF168F0696B685F000E9C
:103B2000695B7F0E6825716F000E6921726F6000FE
:103B300080F16CF0600084F16DF0600088F16EF04F
:103B400060008CF16FF0000E606F000E616F000E70
:103B5000626F000E636F000E736F000E746F000EC5
:103B6000756F000E766F000E786F28D07851D8B43C
:103B700011D0D8906C376D376E376F37D89060376B
:103B800061376237633776BF6081D8907337743797
:103B90007537763764516C5D65516D5966516E5954
:103BA00067516F59D8A009D0768D64516C5F65510B
:103BB0006D5B66516E5B67516F5B782B190E786594
:103BC000D5D76C516D116E116F11D8B411D07381AE
:103BD0000FD0D890603761376237633776BF608126
:103BE000D89073377437753776377107D8A0720756
:103BF00062AFEFD7000E786F76AF17D0FF0E731558
:103C0000686FFF0E7415696FFF0E75156A6F7F0E72
:103C100076156B6F685169116A116B11D8B403D0B6
:103C2000010E786F02D060B1FBD77851D8B427D09D
:103C3000010E6027000E61236223632363A11FD05E
:103C4000600080F168F0600084F169F0600088F144
:103C50006AF060008CF16BF06B356B336A3369335B
:103C600068336000A0F160F06000A4F161F06000D2
:103C7000A8F162F06000ACF163F0714B722B72BF7F
:103C800010D0725103E17129D8A00BD0000E726FD1
:103C90007169000E606F000E616F000E626F000EA2
:103CA000636F72BF05D0725111E17105D8B00ED0AB
:103CB000000E726F000E716F000E606F000E616F6C
:103CC000000E626F000E636F000E706F6000C4F133
:103CD00077F077A102D0628F01D0629FD8907731C0
:103CE000636FFCD66000DCF089F06000E0F08AF0E1
:103CF0006000E4F08BF06000E8F08CF06000E4F12C
:103D000089F06000E8F18AF06000ECF18BF060006F
:103D1000F0F18CF0810E00017D6FFF0E7E6F600070
:103D200024F27FF0600028F280F060002CF281F035
:103D3000600030F282F0180E05D0D89082338133C3
:103D400080337F33E82EF9D77F517D25876F000EB2
:103D50007E21886F88BF13D0885104E1170E875DDC
:103D6000D8A00DD06000E4F179F06000E8F17AF0BD
:103D70006000ECF17BF06000F0F17CF0120088BF95
:103D800068D060001CF27DF0FF0E7E6FFF0E7F6F2B
:103D90007F0E806F000E816F7D6701D007D0813567
:103DA000813380337F337E337D2FF6D76000F8F187
:103DB00083F06000FCF184F0600000F285F06000A8
:103DC00004F286F00001835189157D6F84518A15B4
:103DD0007E6F85518B157F6F86518C15806F7D515D
:103DE0007E117F118011D8B4BDD7600024F27DF020
:103DF000600028F27EF060002CF27FF0600030F26C
:103E000080F0200E05D0D89080337F337E337D3311
:103E1000E82EF9D77D517E117F118011D8B408D0DA
:103E20008351892784518A2385518B2386518C2382
:103E3000831D7D6F841D7E6F851D7F6F861D806F46
:103E40007D5189177E518A177F518B1780518C17AE
:103E50003AD0600024F27DF0600028F27EF060002D
:103E60002CF27FF0600030F280F0200E05D0D89068
:103E700080337F337E337D33E82EF9D77D517E1139
:103E80007F118011D8A408D0000E896F000E8A6FB0
:103E9000000E8B6F000E16D0D89089357D6F8A3555
:103EA0007E6F8B357F6F8C35806F7D517E117F11DA
:103EB0008011D8B408D0000E896F000E8A6F800E72
:103EC0008B6FBF0E8C6F600024F279F0600028F2D7
:103ED0007AF060002CF27BF0600030F27CF012008F
:103EE0005350D8A402D0000E12005304D8A40CD012
:103EF000570E01010019D8B407D0520E0019D8B4DA
:103F000003D0000E536EEFD7520E01010019D8A452
:103F100032D0020E5318D8A407D02F0E0165F1D766
:103F2000390E016501D0EDD7030E5318D8A404D083
:103F30000D0E0219D8A4E5D7040E5318D8A4D3D770
:103F4000520E0019D8A4DDD72F0E0165DAD73A0E2C
:103F50000161D7D70D0E0219D8A4D3D70A0E0319C1
:103F6000D8A4CFD7010E516E0151D00F506E000E64
:103F7000536E010E1200020E5318D8A407D02F0E54
:103F80000165BFD7390E016501D0BBD7030E5318A9
:103F9000D8A407D02F0E0265B4D7390E026501D020
:103FA000B0D7040E5318D8A407D02F0E0365A9D795
:103FB000390E036501D0A5D7050E5318D8A407D034
:103FC0002F0E04659ED7390E046501D09AD7060ED0
:103FD0005318D8A407D02F0E056593D7390E056561
:103FE00001D08FD7070E5318D8A404D00D0E061990
:103FF000D8A487D7080E5318D8A475D7570E001920
:10400000D8A47FD72F0E01657CD73A0E016179D7EE
:104010002F0E026576D73A0E026173D72F0E036515
:1040200070D73A0E03616DD72F0E04656AD73A0E2A
:10403000046167D72F0E056564D73A0E056161D715
:104040000D0E0619D8A45DD70A0E0719D8A459D7A2
:10405000000E516E0151D00F506E600008F460F0F8
:104060000001616B030E636FE80E626FCBEC28F00A
:1040700001010351640D6F00CCFF66F06F00D0FFAB
:1040800067F004510A0DF35000016627F4506723CE
:1040900060516627615167230101055100016627C0
:1040A000000E6723B00E66254B6E2F0E67214C6EF7
:1040B0005ED77A0E0001606F010E616F000E626FB5
:1040C000000E646F200E636F79EC28F05150D8A475
:1040D0003AD09ED07A0EED6F010EEE6F730EEF6F39
:1040E000200EF06F6000FCF0F1F0600000F1F2F0E3
:1040F000600004F1F3F0600008F1F4F028EC27F020
:104100009AD07A0EED6F010EEE6F660EEF6F200EF5
:10411000F06F6000FCF0F1F0600000F1F2F0600080
:1041200004F1F3F0600008F1F4F028EC27F083D0FC
:104130007A0EED6F010EEE6F010EEF6F200EF06F35
:1041400028EC27F078D050500001F56FF66BF6514F
:10415000000AD8A4EDD7F551000AD8B4BBD7010A9C
:10416000D8B4CFD7E5D7F851D8A402D0010E01D0EA
:10417000000EF86FF851D8B40BD07A0EED6F010E27
:10418000EE6F430EEF6F200EF06F28EC27F053D048
:104190007A0EED6F010EEE6F190EEF6F200EF06FBD
:1041A00028EC27F048D060002CF16CF0600030F172
:1041B0006DF0000EDAEC27F07A0E0001ED6F010EC3
:1041C000EE6F570EEF6F200EF06F28EC27F033D014
:1041D00060002CF16CF0600030F16DF0010EDAEC53
:1041E00027F07A0E0001ED6F010EEE6F2E0EEF6FCD
:1041F000200EF06F28EC27F01ED07A0EED6F010E26
:10420000EE6F010EEF6F200EF06F28EC27F013D049
:1042100050500001F56FF66BF651000AD8A4EDD7A7
:10422000F551000AD8B49FD7010AD8B4BCD7030A05
:10423000D8B4CED7E2D77A0E0001646F010E656F55
:1042400020EC28F0600080F166F0600084F167F0F7
:1042500099EC24F012000A6E0A50D8A405AE22D0C0
:10426000600008F006F060000CF007F0600010F04D
:1042700008F0600014F009F0061E071E081E091E53
:10428000062A000E072208220922600018F00CF00E
:1042900060001CF00DF0600020F00EF0600024F0D3
:1042A0000FF00CD0600008F00CF060000CF00DF086
:1042B000600010F00EF0600014F00FF002500310D8
:1042C00004100510D8A409D0000E026E000E036E73
:1042D000000E046E000E056E1200960E0B6E06D0D8
:1042E0000B2AD8900F320E320D320C32000E0C1405
:1042F000066E000E0D14076E000E0E14086EFE0EF4
:104300000F14096E0650071008100910D8B40DD00C
:10431000E7D70B2A010E0C26000E0D220E220F22CB
:10432000D8900F320E320D320C32000E0C14066E85
:10433000000E0D14076E000E0E14086EFF0E0F1403
:10434000096E0650071008100910D8B407D0E1D73D
:104350000B06D8900C360D360E360F360EBE03D037
:10436000020E0B60F5D70BA00E9ED8900B326000AA
:104370002CF006F0076A086A096A600018F009F074
:10438000086A076A066A06500C1207500D12085098
:104390000E1209500F120A50D8A405AE01D00F8E8C
:1043A000600030F002F0600034F003F0600038F09C
:1043B00004F060003CF005F012006000ECF06AF0E0
:1043C0006000F0F06BF06000F4F06CF06000F8F06A
:1043D0006DF0600080F16AF0600084F16BF06000C5
:1043E00088F16CF060008CF16DF06000A8F164F071
:1043F0006000ACF165F06000B0F166F06000B4F10F
:1044000067F0180E06D00001D89067336633653325
:104410006433E82EF8D76451686F696B685169118D
:10442000D8A419D0D8906A35646F6B35656F6C3538
:10443000666F6D35676F6451651166116711D8A499
:1044400005D0000E616F020E606F1200000E616FEA
:10445000030E606F120068296911D8A420D0600093
:10446000A8F164F06000ACF165F06000B0F166F0B6
:104470006000B4F167F0090ED8906437653766378D
:104480006737E82EF9D76451651166116711D8A412
:1044900002D0010E01D0000E606F616B1200000EA1
:1044A000616F040E606F1200000E00017915816FBC
:1044B000000E7A15826F800E7B15836F7F0E7C1540
:1044C000846F8151821183118411D8A408D0000E09
:1044D000796F000E7A6F000E7B6F000E7C6F000EFE
:1044E0007D15816F000E7E15826F800E7F15836FA4
:1044F0007F0E8015846F8151821183118411D8A49D
:1045000008D0000E7D6F000E7E6F000E7F6F000ED4
:10451000806F7CAF09D0796D7A1FD8B07A2B7B1F62
:10452000D8B07B2B800E7C5780AF09D07D6D7E1F6D
:10453000D8B07E2B7F1FD8B07F2B800E8057000E07
:10454000791B000E7A1B000E7B1B800E7C1B000E5D
:104550007D1B000E7E1B000E7F1B800E801B7D517D
:10456000795D7E517A597F517B5980517C59D8B001
:1045700002D0D8901200D8801200600080F167F05D
:10458000600084F168F0600088F169F060008CF1EF
:104590006AF000016407D8A0650764290FE1652966
:1045A000D8A40CD0000E616F000E606F1200674B34
:1045B000682B694B6A2B6407D8A0650760009FF1E0
:1045C000D9FF6000A3F1DAFFDF50D8B426D0600035
:1045D000A7F1F6FF6000ABF1F7FF000EF86E0800E0
:1045E000F5500009D8B419D064516511D8B415D06C
:1045F00060009FF1D9FF6000A3F1DAFFDF50666F22
:104600006000A7F1F6FF6000ABF1F7FF000EF86E57
:104610000800F5506619D8B4CAD760009FF1D9FFD9
:104620006000A3F1DAFFDF50666F6000A7F1F6FFCC
:104630006000ABF1F7FF000EF86E0800F550665D04
:10464000606F616BD8A061071200000162356335AD
:10465000696F6951D8A409D0000E606F000E616FB8
:10466000000E626F000E636F1200600080F164F054
:10467000600084F165F0600088F166F060008CF104
:1046800067F0200E05D0D890673366336533643306
:10469000E82EF9D76451686F628FFF0E6017FF0E26
:1046A0006117FF0E6217000E6317960E695F69AF00
:1046B0000DD06951800A970FD8A0CED7D890633318
:1046C000623361336033693FF9D70DD01F0E6965DE
:1046D00007D0C2D7D8906037613762376337690730
:1046E0006951D8A4F7D76851D8B408D0631F621FA6
:1046F000611F606D000E612362236323600080F1FF
:1047000060F0600084F161F0600088F162F06000A8
:104710008CF163F0120049A00ED06000C8F169F07E
:104720006000CCF16AF06000C0F16BF06000C4F191
:104730006CF0FFEC27F0000175BF07D06000D0F1EE
:1047400079F06000D4F17AF004D0000E7A6F000E98
:10475000796F000E786F000E776F0FD0000E616FCB
:10476000200E606F6000C0F162F06000C4F163F081
:1047700041EC24F00001774B782B7951775D78512B
:10478000800A766F7A51800A7659D8A0E7D749B067
:104790000ED06000C8F169F06000CCF16AF06000F2
:1047A000C0F16BF06000C4F16CF0FFEC27F060002A
:1047B000C8F160F06000CCF161F0B0EC28F00001CD
:1047C00079516025706F7A516121716F1200080E66
:1047D0003901DF6F000EDE6F400EDD6FDCBD02D0F1
:1047E000DCA5FCD7010ED46E070E5C6F3F0E5B6F2D
:1047F0003A01BF91F4EC28F0010EC6EC25F0E3EC91
:1048000028F0BDEC26F0D28ED28CD28A1C0E546ECB
:10481000020E556E540E0001606F000E616F020EA5
:10482000626F5E0E636FEAEC24F00001F951D8B4B8
:10483000FCD7540E606F000E616F020E626F580E4F
:10484000636FEAEC24F00001F951D8B4FCD7040EF0
:10485000546EC2903A014081010E0001F86FC2927D
:104860003A014083BA92C394C396BB84BB8670EC72
:104870001FF00001F76FF751D8B4F9D759EC20F0C9
:10488000F6D7000162516311D8B404D062516311AC
:10489000D8A404D0605151EC29F0120020EE04F0AD
:1048A0006251D9266351DA22DE50DE10D8B416D018
:1048B00020EE04F06251D9266351DA2210EE02F0A4
:1048C0006251E1266351E222DE50E65CE650800A46
:1048D000686FDE50800A6859D8B0120020EE02F0EE
:1048E0006251D9266351DA226F0078FF64F06F00BD
:1048F00074FF65F060008BF1D9FF60008FF1DAFF83
:104900006F0078FF66F06F0074FF67F064516625F2
:10491000D96E65516721DA6E600083F1DFFF20EE0A
:1049200002F06251D9266351DA22DE2A000EDD221E
:104930001200FD0E00016B6FE80E6A6F000E696FCA
:10494000000E686F1ED068516425D96E69516521CB
:10495000DA6EDF5004EC29F00009D8A407D000017A
:104960006A07D8A06B076807D8A0690700016A51D9
:104970006B11D8B41200FD0E6B6FE80E6A6F684BB6
:10498000692B6651685D67516959D8A0DCD7FD0E67
:104990006B6FE80E6A6F0D0E04EC29F00009D8A4C5
:1049A00009D000016A07D8A06B076A29F4E16B29D6
:1049B000D8A4F1D70A0E04EC29F00009D8A41200FB
:1049C00000016A07D8A06B076A29F4E16B29D8B403
:1049D0001200F0D70001F951D8B412003D0177AFB1
:1049E00012006C51D8A41200000E0001F96F000EE5
:1049F0006B6F16D06B516025646F000E6121656F7F
:104A0000010E6425D96E000E6521DA6E2D0E6B2520
:104A1000E16EE26A000EE2226F007FFFE7FF6B2B80
:104A2000FF0E646FFF0E656F6251666F676B6451B6
:104A30006627655167236B51686F696B6651685DC6
:104A40006951800A6A6F6751800A6A59D8A0D2D723
:104A500060008FF16EFD60008BF16CFD600083F1F2
:104A6000D9FF600087F1DAFFDF503D016B6F000E68
:104A70004F6E738B1200000E00016015686F000E00
:104A80006115696F800E62156A6F7F0E63156B6F1B
:104A9000685169116A116B11D8A408D0000E606FBB
:104AA000000E616F000E626F000E636F000E6415E2
:104AB000686F000E6515696F800E66156A6F7F0E50
:104AC00067156B6F685169116A116B11D8A408D012
:104AD000000E646F000E656F000E666F000E676F4C
:104AE000645160190AE16551611907E16651621963
:104AF00004E167516319D8B402D0D8901200D8806D
:104B00001200000E0001656F63AF06D0626D631F77
:104B1000D8B0632B010E656F61AF06D0606D611F69
:104B2000D8B0612B010E651B000E676F000E666F1B
:104B300062516311D8B41CD0010E646F04D0D890B8
:104B400062376337642B63AFFAD7D890663767371D
:104B50006251605D63516159D8A005D06251605FB8
:104B60006351615B6681D89063336233642FEDD704
:104B70006551D8B404D0666D671FD8B0672B60004C
:104B800098F160F060009CF161F012000001626F2A
:104B9000C48CC49E3A01609D609F160EE56F130E93
:104BA000176F10D0030E3D01F66F400E09D0010EB5
:104BB0003D01F66F140E04D0000E3D01F66F890E14
:104BC000F56F11D000016251606F616B6151000A95
:104BD000D8A4F2D76051010AD8B4E4D7030AD8B4F4
:104BE000E6D7010AE9D7000E536EB00EF26F000E41
:104BF000F36F800EDC6F000EFA6F000EF86F390154
:104C00009387938983878389000EA36F3D01F38F78
:024C1000120090
:104C14006F00BCFB2BF02C6A3E01F0512A6E296A0E
:104C24002B5029102B6E2C502A102C6E6000ACF0E7
:104C340002F06000B0F003F0000E03BEFF0E046E3D
:104C4400056E010E2BEC21F0600008F010F06000FE
:104C54000CF011F0600010F012F0600014F013F08A
:104C6400680E146EE80E156E9F0E166E3A0E176ED1
:104C7400D2EC17F0600040F03FF0600044F040F0E8
:104C8400600048F041F060004CF042F03901A19519
:104C94001100000E0001656F61AF06D0606D611FE9
:104CA400D8B0612B010E656F63AF04D0626D631FD2
:104CB400D8B0632B62516311D8B418D0010E646F5D
:104CC40004D0D89062376337642B63AFFAD762514C
:104CD400605D63516159D8A004D06251605F635133
:104CE400615BD89063336233642FF1D76551D8B4D4
:104CF40004D0606D611FD8B0612B600080F160F05A
:104D0400600084F161F0120060009CF3EBF060003D
:104D1400A0F3ECF0000E446E000E436E18D0600059
:104D240094F3D1F0600098F3D2F0EB0E0001D36F4E
:104D3400000ED46F6000A4F3D5F06000A8F3D6F0A1
:104D4400ABEC19F00001D1514326D251442260004A
:104D5400AFF3F6FF6000B3F3F7FF000EF86E080040
:104D6400F5500009D8A4DBD760000CF1E5F0600031
:104D740010F1E6F01200C392C390BB92BB903A01CB
:104D84005093509152835281010E5A6F5393539111
:104D9400090EE16F080EE26F210E096F220E086FF3
:104DA400040E3D01736F800E746F240E756F030E35
:104DB4007B6F000E796F000E766F010E0001F96FA4
:104DC40039018391829FA391A29F9381928F3D0188
:104DD40079957A8539018393A39393833D01738FE6
:104DE4001200600088F166F060008CF167F06000EA
:104DF40080F168F0600084F169F000016651646F2D
:104E04006751656F664B672B600093F1F6FF600096
:104E140097F1F7FF000EF86E6000A3F1D9FF600070
:104E2400A7F1DAFF684B692B1F0EF76403D0080063
:104E3400F55007D06F00DBFFE1FF6F00DFFFE2FFFB
:104E4400E750DF6EDF50D8B41200D7D7F10E01015E
:104E54009C6F000E9D6F6000B4F39EF16000B8F388
:104E64009FF1000EA16F000EA06F000EA36F000E45
:104E7400A26F9E0E0001E56F010EE66F6000BCF3A9
:104E8400E7F06000C0F3E8F09C0EE96F010EEA6FF2
:104E940086EC26F00101A0510001ED25D96E010137
:104EA400A1510001EE21DA6E000EDF6E1200000E39
:104EB40000017D1B000E7E1B000E7F1B800E801BDD
:104EC4006000E4F160F06000E8F161F06000ECF192
:104ED40062F06000F0F163F06000F4F164F06000EF
:104EE400F8F165F06000FCF166F0600000F267F034
:104EF40076EC1BF0600080F179F0600084F17AF0C8
:104F0400600088F17BF060008CF17CF01200BF0E31
:104F14000001686FFF0E696F600098F16AF060002D
:104F24009CF16BF068516A2769516B236B5106E160
:104F34001A0E6A5DD8B002D0010E01D0000E6C6F5B
:104F44006D6B6C516D11D8B406D0200E6611666F6E
:104F54006751676F1200600098F166F060009CF181
:104F640067F01200A00EF66E520EF76E000EF86E89
:104F740009006F00D4FF56F009006F00D4FF57F00A
:104F840000EE00F19A0EEE6AE806FDE10001F96B0D
:104F9400F86B00EE2DF0290EEE6AE806FDE1080E2E
:104FA400D56E000ED66E000ED76E0001E7EF23F02B
:104FB40000016E6F00016D515410546E000E556E59
:104FC4006E51D8A40BD0540E606F000E616F020EA8
:104FD400626F5E0E636FEAEC24F00AD0540E606FC9
:104FE400000E616F020E626F580E636FEAEC24F0DC
:104FF4000001F951D8A41200FBD7000E00016F6F15
:10500400000E6E6F0FD06000B4F160F0616B600051
:10501400ACF162F06000B0F163F041EC24F0000107
:105024006E4B6F2B6E516925D96E6F516A21DA6E02
:10503400DF506D6F6D51D8B41200E5D7000E00013A
:10504400636F000E626F7A0E6225D96E010E6321C2
:10505400DA6EDF50D8B40AD0624B632B63BFF3D748
:10506400635104E1200E625DD8A0EDD7600088F1A1
:0A50740060F060008CF161F01200A2
:10508000B89E4D2A020E4D18D8A402D0BA900AD06C
:10509000280E4D18D8A406D00001F851D8A4BA8023
:1050A000000E4D6EB00EB66E3C0EB76E0C0E40ECA0
:1050B00029F03901A39FB88E1100000160516111E0
:1050C00062116311D8B408D0000E601B000E611B82
:1050D000000E621B800E631B600080F160F06000B8
:1050E00084F161F0600088F162F060008CF163F09F
:1050F0001200000E0001676F000E666F0BD0665144
:105100006025D96E67516121DA6E60008BF1DFFF97
:10511000664B672B6351665D6751800A656F64510A
:10512000800A6559D8B01200EAD7BF0E0001626F3D
:10513000FF0E636F600080F164F0600084F165F041
:105140006251642763516523655106E11A0E645D5F
:10515000D8B002D0010E01D0000E606F616B12005A
:10516000600080F162F0600084F163F003D0000120
:10517000604B612B600083F1D9FF600087F1DAFF9B
:10518000DF50D8A4F4D700016251605D606F6351B5
:105190006159616F12000001605162036F00CCFF22
:1051A00064F06F00D0FF65F060516303F350652732
:1051B00061516203F3506527600090F160F0600078
:1051C00094F161F01200C3883A015089940E3E01B7
:1051D000F86F000EF96F000EFA6F000EFD6F3901C7
:1051E00081959185A1951200100EB86E750EB96E5D
:1051F000B00EB66E3C0EB76E000E4D6E3901839F39
:10520000A39F938FB88E12000001606F390193B98C
:1052100006D0600080F152F09389010E1200000E5A
:0252200012007A
:10522400000E5324D96EDA6A010EDA226F00A3F756
:06523400DFFF532A110008
:10523C002D0E4F24D96EDA6A000EDA22DF503D01B2
:06524C006B6F4F2A1100F8
:10525400200E4E24D96EDA6A010EDA226F00ABF505
:06526400DFFF4E2A1100DD
:10526C003D0179A503D0010E0001F96F000E3D013F
:10527C00796F1100016E3E01F8B11200600007F069
:06528C00F1FEF8811200A2
:1052940060004BF1EAFD390193991100585E120048
:0252A4001100F7
:020000040020DA
:10000000FF0FFF0FFF0FFF0FFF0FFF0FFF0FFF0F80
:020000040030CA
:0A0000008CD7BDFC9FFFFFDFFFFF60
:00000001FF
