:020000040000FA
:0400000057EF00F0C6
:100008007E137E137E137E137E137E137E137E1360
:100018007E137E131D127E137E137E137E137E13B2
:100028007E137E137E137E137E137E137E137E1340
:100038007E137E137E1371137A137E137E1342137D
:100048007E137E137E137E132B007E137E137E1386
:100058007E137E137E137E137E137E137E137E1310
:100068007E137E137E137E137E137E137E137E1300
:100078007E137E132B007E137E137E132B002B0022
:100088002B002B002B002B002B002B007E137E1344
:100098007E137E137E137E132B002B002B002B0068
:0A00A8007E137E13FF009EEF26F08A
:1020000000436F6D6D616E64206E6F742072656346
:102010006F676E697A65642100566F6C74616765DD
:102020003A256600494E46004E414E00696E6600F4
:102030006E616E006C660000000E0001B46F000E51
:10204000B36F60003CF2C5F0600040F2C6F0600083
:1020500044F2C7F0600048F2C8F0C8AF1ED0000ECE
:10206000B46F010EB36F600014F360F0600018F3FA
:1020700061F060001CF362F0600020F363F015EC87
:1020800026F0600080F1C5F0600084F1C6F06000C9
:1020900088F1C7F060008CF1C8F0000E0001CC6F31
:1020A000000ECB6F6000ECF0B8F06000F0F0B9F01B
:1020B000B351B411D8A402D03FA414D0B351B41179
:1020C000D8A404D0000E9E6F2B0E03D0000E9E6F7E
:1020D0002D0E9D6F600074F220F1CB4BCC2BB80716
:1020E000D8A0B907600014F360F0600018F361F045
:1020F00060001CF362F0600020F363F0F4EC1FF06A
:10210000000160056111D8A452D0BF0E946FFF0E7C
:10211000956F9351966F976B94519627955197238E
:10212000975106E11A0E965DD8B002D0010E01D08B
:10213000000E9F6FA06B9F51A011D8B40DD0200E40
:10214000CB25606F010ECC21616F240E626F200ED3
:10215000636FEDEC24F00CD0200ECB25606F010EE8
:10216000CC21616F2C0E626F200E636FEDEC24F0BA
:102170000001FD0EB827FF0EB923600034F270F0A5
:10218000600038F271F0200E0001726F010E736F63
:102190006000E0F274F06000E4F275F007EC22F009
:1021A0006000C0F18DF06000C4F18EF0120060009C
:1021B00014F360F0600018F361F060001CF362F04B
:1021C000600020F363F0F4EC1FF000016051611136
:1021D000D8A434D0BF0E946FFF0E956F9351966FB5
:1021E000976B9451962795519723975106E11A0EB4
:1021F000965DD8B002D0010E01D0000EA16FA26B87
:10220000A151A211D8B40DD0200ECB25606F010EC4
:10221000CC21616F280E626F200E636FEDEC24F00D
:10222000A7D7200ECB25606F010ECC21616F300E39
:10223000626F200E636FEDEC24F09AD7000ECD6F25
:10224000000ECE6F800ECF6F3F0ED06F000ECA6FA4
:10225000000EC96F600014F360F0600018F361F0C5
:1022600060001CF362F0600020F363F0000E646F06
:10227000000E656F000E666F000E676F6BEC23F04B
:102280000001D8A026D09CD0600034F360F060003C
:1022900038F361F060003CF362F0600040F363F0FB
:1022A000000E646F000E656F200E666F410E676F43
:1022B000CAEC15F0600080F1CDF0600084F1CEF042
:1022C000600088F1CFF060008CF1D0F00001C94BC4
:1022D000CA2B600014F379F0600018F37AF0600004
:1022E0001CF37BF0600020F37CF0000E646F000EA6
:1022F000656F200E666F410E676F600034F360F00B
:10230000600038F361F060003CF362F0600040F37D
:1023100063F0CAEC15F0600080F17DF0600084F19C
:102320007EF0600088F17FF060008CF180F06BEC53
:1023300020F00001D8A027D0A7D7600034F360F0C8
:10234000600038F361F060003CF362F0600040F33D
:1023500063F0000E646F000E656F200E666F410E15
:10236000676FEDEC1CF0600080F1CDF0600084F14F
:10237000CEF0600088F1CFF060008CF1D0F0000169
:10238000C907D8A0CA07600014F379F0600018F3F9
:102390007AF060001CF37BF0600020F37CF06000BA
:1023A00034F37DF0600038F37EF060003CF37FF0A2
:1023B000600040F380F06BEC20F00001D8A0BDD7A6
:1023C00060004CF266F0676BAAEC25F000016651E4
:1023D000BA6F6000E8F2B7F0670EBA19D8A41BD044
:1023E0003D503E10D8A404D0000E3E6E010E3D6E4E
:1023F0003EBE05D03E5008E13D04D8B005D0000EE9
:10240000B66F060EB56F0AD06000F4F0B5F060004C
:10241000F8F0B6F003D03EAEF7D7F1D7670EBA1991
:10242000D8A424D0CAAF06D0FC0EC95DFF0ECA598D
:10243000D8A01AD0FF0E946FFF0E956F6000D4F2F3
:1024400096F06000D8F297F0945196279551972313
:10245000C951965D9751800A986FCA51800A985960
:10246000D8A002D0660E01D0650EB76F6000D4F21E
:10247000ADF06000D8F2AEF0670EBA19D8A405D05E
:10248000660EB719D8B4CAAF02D0AD4BAE2B660EEC
:10249000B719D8A416D0CAAF0CD0000ECD6F000E5D
:1024A000CE6F800ECF6F3F0ED06F000ECA6F000E42
:1024B000C96F670EBA19D8B404D0C951AD27CA5133
:1024C000AE23000EC46F000EC36F600014F3BBF0A8
:1024D000600018F3BCF060001CF3BDF0600020F356
:1024E000BEF0600034F399F0600038F39AF06000B9
:1024F0003CF39BF0600040F39CF0AED06000ECF247
:1025000060F06000F0F261F06000F4F262F06000F0
:10251000F8F263F0600034F364F0600038F365F0C3
:1025200060003CF366F0600040F367F0EDEC1CF0F7
:10253000600080F179F0600084F17AF0600088F149
:102540007BF060008CF17CF044EC1EF06000E4F164
:10255000BFF06000E8F1C0F06000ECF1C1F0600095
:10256000F0F1C2F06000FCF260F0600000F361F096
:10257000600004F362F0600008F363F03CEC21F0CB
:10258000600080F1B1F0600084F1B2F06000ECF224
:1025900079F06000F0F27AF06000F4F27BF0600015
:1025A000F8F27CF0600034F364F0600038F365F01A
:1025B00060003CF366F0600040F367F06000FCF2FE
:1025C00060F0600000F361F0600004F362F060000E
:1025D00008F363F0CAEC15F0600080F17DF0600054
:1025E00084F17EF0600088F17FF060008CF180F073
:1025F00022EC25F06000E4F1BBF06000E8F1BCF0F3
:102600006000ECF1BDF06000F0F1BEF0600034F36A
:1026100060F0600038F361F060003CF362F060004D
:1026200040F363F0000E0001646F000E656F200E32
:10263000666F410E676FEDEC1CF0600080F1CDF02D
:10264000600084F1CEF0600088F1CFF060008CF182
:10265000D0F00001C34BC42BAD51C35DC451800AFF
:10266000946FAE51800A9459D8A048D7600034F3D3
:1026700060F0600038F361F060003CF362F06000ED
:1026800040F363F0000E646F000E656FA00E666F7E
:10269000400E676FCAEC15F0600080F1BFF060007B
:1026A00084F1C0F0600088F1C1F060008CF1C2F0EC
:1026B0006000ECF279F06000F0F27AF06000F4F281
:1026C0007BF06000F8F27CF06000FCF27DF06000CE
:1026D00000F37EF0600004F37FF0600008F380F008
:1026E0006BEC20F00001D8A01ED06000ECF260F08E
:1026F0006000F0F261F06000F4F262F06000F8F265
:1027000063F06000FCF264F0600000F365F06000CC
:1027100004F366F0600008F367F06BEC23F000014F
:10272000D8B0B1B108D0000EBF6F000EC06F000E60
:10273000C16F000EC26F600014F360F0600018F308
:1027400061F060001CF362F0600020F363F0600051
:10275000FCF264F0600000F365F0600004F366F0E2
:10276000600008F367F048EC1BF0600080F1BBF0FC
:10277000600084F1BCF0600088F1BDF060008CF175
:10278000BEF0600064F2CDF0600068F2CEF0600050
:102790006CF2CFF0600070F2D0F0650E0001B71956
:1027A000D8B407D0600024F3AFF0600028F3B0F095
:1027B00004D0000EB06F000EAF6F000EAC6F000EB5
:1027C000AB6F000EAA6F000EA96F000EC46F000E53
:1027D000C36FFAD06000ECF260F06000F0F261F0DC
:1027E0006000F4F262F06000F8F263F0600034F32D
:1027F00064F0600038F365F060003CF366F0600060
:1028000040F367F0EDEC1CF0600080F179F06000BF
:1028100084F17AF0600088F17BF060008CF17CF04C
:1028200044EC1EF06000E4F1BFF06000E8F1C0F09D
:102830006000ECF1C1F06000F0F1C2F06000FCF269
:1028400060F0600000F361F0600004F362F060008B
:1028500008F363F03CEC21F0600080F1B1F060001F
:1028600084F1B2F03FB80DD00001B151B211D8A43B
:1028700008D0670EBA19D8B4B0AF03D0A94BAA2BB1
:102880003AD00001AB51AC11D8B4B0AF22D0200E79
:10289000CB25D96E010ECC21DA6E2E0EDF6ECB4B1E
:1028A000CC2BB807D8A0B907000EAC6F010EAB6FE8
:1028B00010D0200ECB25D96E010ECC21DA6E300E51
:1028C000DF6ECB4BCC2BB807D8A0B907A907D8A08F
:1028D000AA07A951AA11D8A4ECD7200ECB25D96EEE
:1028E000010ECC21DA6EB151300FDF6ECB4BCC2B09
:1028F000B807D8A0B9076000ECF279F06000F0F2F8
:102900007AF06000F4F27BF06000F8F27CF0600096
:1029100034F364F0600038F365F060003CF366F077
:10292000600040F367F06000FCF260F0600000F3CC
:1029300061F0600004F362F0600008F363F0CAEC39
:1029400015F0600080F17DF0600084F17EF06000A1
:1029500088F17FF060008CF180F022EC25F06000BF
:10296000E4F1BBF06000E8F1BCF06000ECF1BDF018
:102970006000F0F1BEF0600034F360F0600038F306
:1029800061F060003CF362F0600040F363F0000E21
:102990000001646F000E656F200E666F410E676F59
:1029A000EDEC1CF0600080F1CDF0600084F1CEF021
:1029B000600088F1CFF060008CF1D0F00001AF072B
:1029C000D8A0B007C34BC42BAD51C35DC451800A1E
:1029D000946FAE51800A9459D8B008D0CCBFFAD6C3
:1029E000CC5104E14B0ECB5DD8A0F4D6AB51AC1169
:1029F000D8B43FA80AD0200ECB25D96E010ECC2129
:102A0000DA6E2E0EDF6ECB4BCC2B200ECB25D96E83
:102A1000010ECC21DA6E000EDF6E650EB719D8A458
:102A2000BDEF10F0000EC46F4F0EC36F200EC32514
:102A3000D96E010EC421DA6E000EDF6E000EB46F87
:102A4000000EB36FCAAF08D0000EB46F010EB36FA3
:102A5000C96DCA1FD8B0CA2B000EB66F020EB56F73
:102A600032D0C307D8A0C407200EC325D96E010EEB
:102A7000C421DA6E600024F360F0600028F361F096
:102A8000000E636F0A0E626F7BEC24F00001605150
:102A9000300FDF6E600024F360F0600028F361F017
:102AA000000E636F0A0E626FB1EC23F0600080F1DC
:102AB000C9F0600084F1CAF00001B507D8A0B607DC
:102AC000B807D8A0B907C951CA11D8A4CAD7B6BF88
:102AD00005D0B651C6E1B505D8B0C3D7C307D8A055
:102AE000C407B351B411D8A404D0000EA46F2B0EA8
:102AF00003D0000EA46F2D0EA36F200EC325D96E38
:102B0000010EC421DA6E60008FF2DFFFB807D8A093
:102B1000B907C307D8A0C407BF0E946FFF0E956F07
:102B20009351966F976B9451962795519723975190
:102B300006E11A0E965DD8B002D0010E01D0000E4B
:102B4000A76FA86BA751A811D8A404D0000EA66F38
:102B5000650E03D0000EA66F450EA56F200EC3258F
:102B6000D96E010EC421DA6E600097F2DFFFB8075C
:102B7000D8A0B907200ECB25606F010ECC21616F64
:102B8000200EC325626F010EC421636FEDEC24F0AB
:102B9000BDEF10F000016351800B6C6F6351632532
:102BA000726F62BF72817251D8B40DD07229D8A4ED
:102BB00008D0000E606F000E616F000E626F000E95
:102BC000636F628F08D0000E606F000E616F000EA1
:102BD000626F000E636F6751800B6C1B6751672536
:102BE0006D6F66BF6D816D51D8B40DD06D29D8A4BD
:102BF00008D0000E646F000E656F000E666F000E49
:102C0000676F668F08D0000E646F000E656F000E50
:102C1000666F000E676F6D51D8B403D07251D8A49F
:102C200009D0000E606F000E616F000E626F000E23
:102C3000636F1200665160036F00CCFF77F06F0086
:102C4000D0FF78F077516E6F6F6B706B716B78514E
:102C5000736F746B756B766B655161036F00CCFF9E
:102C600077F06F00D0FF78F077516E27000E6F235A
:102C70007023712378517327000E742375237623F4
:102C8000645162036F00CCFF77F06F00D0FF78F0E3
:102C900077516E27000E6F237023712378517327AD
:102CA000000E7423752376236000C0F171F060007C
:102CB000BCF170F06000B8F16FF06E6B64516103AD
:102CC0006F00CCFF77F06F00D0FF78F077516E2760
:102CD00078516F23000E7023000E7123655160033D
:102CE0006F00CCFF77F06F00D0FF78F077516E2740
:102CF00078516F23000E7023000E71236000C0F125
:102D000071F06000BCF170F06000B8F16FF06E6BB4
:102D1000645160036F00CCFF77F06F00D0FF78F054
:102D200077516E2778516F23000E7023000E7123A8
:102D3000665161036F00CCFF77F06F00D0FF78F031
:102D40007751732778517423000E7523000E762374
:102D5000655162036F00CCFF77F06F00D0FF78F011
:102D60007751732778517423000E7523000E762354
:102D7000665162036F00CCFF77F06F00D0FF78F0F0
:102D80007751686F7851696F6A6B6B6B6000A8F15F
:102D90006BF06000A4F16AF06000A0F169F0686B6C
:102DA00068517327695174236A5175236B517623D7
:102DB0006000B8F168F06000BCF169F06000C0F13B
:102DC0006AF06000C4F16BF0190E05D0D8906B3337
:102DD0006A3369336833E82EF9D76851732769512C
:102DE00074236A5175236B5176236000C0F171F032
:102DF0006000BCF170F06000B8F16FF06E6B6D5167
:102E00006000C8F168F0696B6827000E6923820EC4
:102E10006825776FFF0E6921786F0FD0D8907337D0
:102E200074377537763771BF7381D8906E376F37C7
:102E3000703771377707D8A0780775AFEFD7000ED6
:102E40006D6F71AF17D0FF0E6E15686FFF0E6F15A7
:102E5000696FFF0E70156A6F7F0E71156B6F685189
:102E600069116A116B11D8B403D0010E6D6F02D0D5
:102E700073B1FBD76D51D8B427D0010E7327000E64
:102E800074237523762376A11FD06000CCF168F0FF
:102E90006000D0F169F06000D4F16AF06000D8F110
:102EA0006BF06B356B336A33693368336000A0F1C4
:102EB00073F06000A4F174F06000A8F175F0600098
:102EC000ACF176F0774B782B78BF0DD0785103E1D9
:102ED0007729D8A008D0000E736F000E746F800E93
:102EE000756F7F0E21D078BF05D078510EE1770540
:102EF000D8B00BD0000E736F000E746F000E756F9C
:102F0000000E766F000E6C6F10D06000DCF172F076
:102F1000FF0E7317FF0E74177F0E7517000E7617CE
:102F200072B1758FD8907231766F6C5176136000E4
:102F3000CCF160F06000D0F161F06000D4F162F09B
:102F40006000D8F163F012001350800B1C6E135018
:102F50001324226E12BE22802250D8B40DD0222813
:102F6000D8A408D0000E106E000E116E000E126E66
:102F7000000E136E128E08D0000E106E000E116E31
:102F8000000E126E000E136E1750800B1C1A175095
:102F90001724216E16BE21802150D8B40DD02128CF
:102FA000D8A408D0000E146E000E156E000E166E1A
:102FB000000E176E168E08D0000E146E000E156EE1
:102FC000000E166E000E176E2150D8B403D022509A
:102FD000D8A409D0000E106E000E116E000E126EF5
:102FE000000E136E1200165010026F00CCFF27F077
:102FF0006F00D0FF28F027501D6E1E6A1F6A206ADE
:103000002850236E246A256A266A155011026F0023
:10301000CCFF27F06F00D0FF28F027501D26000EB0
:103020001E221F22202228502326000E2422252281
:103030002622145012026F00CCFF27F06F00D0FF41
:1030400028F027501D26000E1E221F222022285065
:103050002326000E24222522262260007CF020F068
:10306000600078F01FF0600074F01EF01D6A1450CC
:1030700011026F00CCFF27F06F00D0FF28F027501F
:103080001D2628501E22000E1F22000E2022155041
:1030900010026F00CCFF27F06F00D0FF28F0275000
:1030A0001D2628501E22000E1F22000E2022600026
:1030B0007CF020F0600078F01FF0600074F01EF0EB
:1030C0001D6A145010026F00CCFF27F06F00D0FF74
:1030D00028F027501D2628501E22000E1F22000E09
:1030E0002022165011026F00CCFF27F06F00D0FF96
:1030F00028F02750232628502422000E2522000ED7
:103100002622155012026F00CCFF27F06F00D0FF6F
:1031100028F02750232628502422000E2522000EB6
:103120002622165012026F00CCFF27F06F00D0FF4E
:1031300028F02750186E2850196E1A6A1B6A600012
:1031400068F01BF0600064F01AF0600060F019F0A5
:10315000186A18502326195024221A5025221B5071
:103160002622600074F018F0600078F019F060001A
:103170007CF01AF0600080F01BF0190E05D0D8909A
:103180001B321A3219321832E82EF9D7185023267A
:10319000195024221A5025221B50262260007CF050
:1031A00020F0600078F01FF0600074F01EF01D6ADF
:1031B0002150600088F018F0196A1826000E1922B4
:1031C000820E1824276EFF0E1920286E0FD0D8907B
:1031D000233624362536263620BE2380D8901D3649
:1031E0001E361F3620362706D8A0280625AEEFD774
:1031F000000E216E20AE17D0FF0E1D14186EFF0EAC
:103200001E14196EFF0E1F141A6E7F0E20141B6EF3
:10321000185019101A101B10D8B403D0010E216ECB
:1032200002D023B0FBD72150D8B427D0010E2326DB
:10323000000E24222522262226A01FD060008CF01A
:1032400018F0600090F019F0600094F01AF060003F
:1032500098F01BF01B341B321A32193218326000FE
:1032600060F023F0600064F024F0600068F025F066
:1032700060006CF026F0274A282A28BE0DD028507E
:1032800003E12728D8A008D0000E236E000E246E7C
:10329000800E256E7F0E21D028BE05D028500EE16D
:1032A0002704D8B00BD0000E236E000E246E000E43
:1032B000256E000E266E000E1C6E10D060009CF075
:1032C00022F0FF0E2316FF0E24167F0E2516000E89
:1032D000261622B0258ED8902230266E1C5026123B
:1032E00060008CF010F0600090F011F0600094F03D
:1032F00012F0600098F013F0120060004FF3D9FF55
:10330000600053F3DAFF6F007BFFF6FF6F0077FF7B
:10331000F7FF000EF86E0800F550250AD8A493D1E7
:1033200060004FF3D9FF600053F3DAFFDE2A000E8E
:10333000DD22000E3C6E000E3B6E6000ECF03FF0B4
:103340006000F0F040F03D683E6860004FF3D9FF48
:10335000600053F3DAFF6F007BFFF6FF6F0077FF2B
:10336000F7FF000EF86E0800F5500001666F676BFE
:10337000AAEC25F000016651E16FE151D8B445D0C7
:1033800060004FF3D9FF600053F3DAFF6F0078FF5E
:10339000D7F06F0074FFD8F0010ED727000ED823A6
:1033A00060005FF3F6FF600063F3F7FF000EF86E56
:1033B0000800F550666F676BAAEC25F000016651B6
:1033C000E26FE251D8B421D060004FF3D9FF600022
:1033D00053F3DAFF6F0078FFD7F06F0074FFD8F077
:1033E000020ED727000ED82360005FF3F6FF6000BF
:1033F00063F3F7FF000EF86E0800F550666F676B19
:10340000AAEC25F000016651E36F660EE119D8A41D
:103410005BD060004FF3D9FF600053F3DAFF6F0019
:103420007BFFF6FF6F0077FFF7FF000EF86E0800D6
:103430006F00D4FFE4F060004FF3D9FF600053F356
:10344000DAFFDE2A000EDD22600057F3D9FF6000AC
:103450005BF3DAFF6F007CFFD7F0040EDE266F000F
:103460007CFFD8F0000EDD2260005FF3D9FF600022
:1034700063F3DAFF6F0078FFDDF06F0078FFDEF0B6
:103480006F0078FFDFF06F0078FFE0F0600044F33A
:103490008DF0600048F38EF0600074F38FF06000F0
:1034A00078F390F060007CF391F0600080F392F08C
:1034B000600090F393F01CEC10F0600034F2D1F057
:1034C000600038F2D2F01200E10E606F000E616F02
:1034D000340E626F200E636F000E656F020E646F14
:1034E000D4EC20F0000160516111D8A470D06000CC
:1034F0004FF3D9FF600053F3DAFF6F0078FFD7F086
:103500006F0074FFD8F0010ED727000ED82360009B
:103510005FF3F6FF600063F3F7FF000EF86E08003C
:103520006F00D4FFE4F0BF0ED76FFF0ED86F6000BE
:103530004FF3D9FF600053F3DAFF6F007BFFF6FF14
:103540006F0077FFF7FF000EF86E0800F550D96F97
:10355000DA6BD751D927D851DA23DA5106E11A0E9E
:10356000D95DD8B002D0010E01D0000EDB6FDC6B4C
:10357000DB51DC11600057F3D9FF60005BF3DAFF29
:103580006F007CFFD7F0040EDE266F007CFFD8F0C2
:10359000000EDD2260005FF3D9FF600063F3DAFF05
:1035A0006F0078FFDDF06F0078FFDEF06F0078FFCE
:1035B000DFF06F0078FFE0F0020E60004FF3D9FFFC
:1035C000600053F3DAFFDE26000EDD225FD76000D5
:1035D0004FF3D9FF600053F3DAFF6F007BFFF6FF74
:1035E0006F0077FFF7FF000EF86E0800F550250A10
:1035F000D8A41BD060004FF3D9FF600053F3DAFF6B
:10360000DE2A000EDD22000E616F250E606F600065
:1036100044F362F0600048F363F0BCEC22F0000E6B
:103620000001D26F010ED16F120060004FF3D9FF7D
:10363000600053F3DAFFDE2A000EDD22000ED26FA7
:10364000000ED16F120060004FF3D9FF600053F3FA
:10365000DAFF6F007BFFF6FF6F0077FFF7FF000ECA
:10366000F86E0800F5500001606F616B600044F374
:1036700062F0600048F363F0BCEC22F060004FF3AE
:10368000D9FF600053F3DAFFDE2A000EDD22C7D730
:1036900000016351800B6C6F635163256E6F62BFD5
:1036A0006E816E51D8B40DD06E29D8A408D0000E0A
:1036B000606F000E616F000E626F000E636F628FAD
:1036C00006D0000E606F000E616F000E626F000E7C
:1036D000636F6751800B6D6F6C516D19D8A46C8D41
:1036E000675167256D6F66BF6D816D51D8B40DD080
:1036F0006D29D8A408D0000E646F000E656F000E0F
:10370000666F000E676F668F06D0000E646F000E46
:10371000656F000E666F000E676F6E516D5DD8B0FD
:1037200031D06CAD02D0800E6C1B6000B8F16FF030
:103730006000B4F16EF06000BCF16DF0600080F1EB
:103740006FF0600090F160F06000BCF164F0600028
:1037500084F16FF0600094F161F06000BCF165F0FD
:10376000600088F16FF0600098F162F06000BCF1D9
:1037700066F060008CF16FF060009CF163F0600017
:10378000BCF167F0000E6F6F6E516000B4F168F02D
:10379000696B685F000E695B69BF2DD0695104E1F8
:1037A0001A0E685DD8A027D06051611162116311B3
:1037B000D8B402D0010E01D0000E6F6F000E606F02
:1037C000000E616F000E626F000E636F6000B4F157
:1037D0006EF015D06FA105D0D8906F3101096F6FD1
:1037E00002D0D8906F3360B16F8F6335633362332B
:1037F000613360336E2B6D516E5DD8A0EBD76CBD1D
:1038000028D06E51D8A409D0000E606F000E616FF1
:10381000000E626F000E636F1200645160276551E5
:103820006123665162236751632363A171D06FA145
:1038300005D0D8906F3101096F6F02D0D8906F33E7
:1038400060B16F8F633563336233613360336E2BE6
:103850005FD06451605D6551615966516259635131
:10386000800A686F6751800A6859D8B025D06051C6
:10387000645D686F61516559696F625166596A6F1D
:10388000635167596B6FFF0E6825606FFF0E6921EA
:10389000616FFF0E6A21626FFF0E6B21636F800EF6
:1038A0006C1B6F6D6F51D8A40FD0010E6027000EF6
:1038B00061236223632308D06451605F6551615BBB
:1038C0006651625B6751635B605161116211631104
:1038D000D8A41CD06F51D8A419D0000E606F000E70
:1038E000616F000E626F000E636F1200D890603738
:1038F0006137623763376FBF60816FA102D0D880B4
:1039000001D0D8906F376E51D8A46E0762AFEED752
:10391000000E6D6F6FAF0CD06000BCF168F07F0ED1
:103920006817D8B403D0010E6D6F02D060B1FBD719
:103930006D51D8B428D0010E6027000E6123622398
:10394000632363A120D0600080F168F0600084F1FF
:1039500069F0600088F16AF060008CF16BF06B3503
:103960006B336A33693368336000A0F160F0600044
:10397000A4F161F06000A8F162F06000ACF163F0C6
:103980006E29D8A46E2B6E29D8B403D06E51D8A45A
:103990000DD0000E606F000E616F000E626F000EA2
:1039A000636F6E51D8A402D0000E6C6F6EA102D06E
:1039B000628F01D0629FD8906E31636F6CBF638F4E
:1039C000600080F160F0600084F161F0600088F1D7
:1039D00062F060008CF163F0120000016351800B13
:1039E000706F63516325776F62BF77817751D8B469
:1039F0000DD07729D8A408D0000E606F000E616F3B
:103A0000000E626F000E636F628F06D0000E606F53
:103A1000000E616F000E626F000E636F6751800BC6
:103A2000701B67516725786F66BF78817851D8B46D
:103A30000DD07829D8A408D0000E646F000E656FF1
:103A4000000E666F000E676F668F06D0000E646F03
:103A5000000E656F000E666F000E676F6451651192
:103A600066116711D8A41BD0000E606F000E616F45
:103A7000000E626F000E636F800E62137F0E631381
:103A800070516313600080F160F0600084F161F0B8
:103A9000600088F162F060008CF163F012007751F1
:103AA000D8A409D0000E606F000E616F000E626F27
:103AB000000E636F120078516000DCF168F0696BF2
:103AC000685F000E695B7F0E6825716F000E6921CB
:103AD000726F600080F16CF0600084F16DF0600046
:103AE00088F16EF060008CF16FF0000E606F000ED8
:103AF000616F000E626F000E636F000E736F000E39
:103B0000746F000E756F000E766F000E786F28D000
:103B10007851D8B411D0D8906C376D376E376F3775
:103B2000D890603761376237633776BF6081D8904D
:103B3000733774377537763764516C5D65516D59DD
:103B400066516E5967516F59D8A009D0768D64516E
:103B50006C5F65516D5B66516E5B67516F5B782B77
:103B6000190E7865D5D76C516D116E116F11D8B4DF
:103B700011D073810FD0D8906037613762376337C7
:103B800076BF6081D8907337743775377637710791
:103B9000D8A0720762AFEFD7000E786F76AF17D05C
:103BA000FF0E7315686FFF0E7415696FFF0E7515A4
:103BB0006A6F7F0E76156B6F685169116A116B1110
:103BC000D8B403D0010E786F02D060B1FBD7785122
:103BD000D8B427D0010E6027000E6123622363232F
:103BE00063A11FD0600080F168F0600084F169F08B
:103BF000600088F16AF060008CF16BF06B356B331C
:103C00006A33693368336000A0F160F06000A4F1AA
:103C100061F06000A8F162F06000ACF163F0714BFC
:103C2000722B72BF10D0725103E17129D8A00BD052
:103C3000000E726F7169000E606F000E616F000EF2
:103C4000626F000E636F72BF05D0725111E1710592
:103C5000D8B00ED0000E726F000E716F000E606F44
:103C6000000E616F000E626F000E636F000E706FCA
:103C70006000C4F177F077A102D0628F01D0629F1B
:103C8000D8907731636FFCD66000B4F089F06000A3
:103C9000B8F08AF06000BCF08BF06000C0F08CF0EF
:103CA0006000E4F189F06000E8F18AF06000ECF176
:103CB0008BF06000F0F18CF0810E00017D6FFF0E43
:103CC0007E6F600024F27FF0600028F280F06000D8
:103CD0002CF281F0600030F282F0180E05D0D890FE
:103CE0008233813380337F33E82EF9D77F517D25AE
:103CF000876F000E7E21886F88BF13D0885104E142
:103D0000170E875DD8A00DD06000E4F179F0600057
:103D1000E8F17AF06000ECF17BF06000F0F17CF00B
:103D2000120088BF68D060001CF27DF0FF0E7E6F2D
:103D3000FF0E7F6F7F0E806F000E816F7D6701D059
:103D400007D08135813380337F337E337D2FF6D7A3
:103D50006000F8F183F06000FCF184F0600000F294
:103D600085F0600004F286F00001835189157D6FB3
:103D700084518A157E6F85518B157F6F86518C1506
:103D8000806F7D517E117F118011D8B4BDD7600046
:103D900024F27DF0600028F27EF060002CF27FF0CB
:103DA000600030F280F0200E05D0D89080337F3351
:103DB0007E337D33E82EF9D77D517E117F1180113E
:103DC000D8B408D08351892784518A2385518B2305
:103DD00086518C23831D7D6F841D7E6F851D7F6FB3
:103DE000861D806F7D5189177E518A177F518B17F1
:103DF00080518C173AD0600024F27DF0600028F2E8
:103E00007EF060002CF27FF0600030F280F0200E37
:103E100005D0D89080337F337E337D33E82EF9D7B9
:103E20007D517E117F118011D8A408D0000E896FBA
:103E3000000E8A6F000E8B6F000E16D0D890893559
:103E40007D6F8A357E6F8B357F6F8C35806F7D51AE
:103E50007E117F118011D8B408D0000E896F000E3A
:103E60008A6F800E8B6FBF0E8C6F600024F279F02A
:103E7000600028F27AF060002CF27BF0600030F2F3
:103E80007CF012000A6E0A50D8A405AE22D0600061
:103E900008F006F060000CF007F0600010F008F089
:103EA000600014F009F0061E071E081E091E062AEF
:103EB000000E072208220922600018F00CF06000B2
:103EC0001CF00DF0600020F00EF0600024F00FF008
:103ED0000CD0600008F00CF060000CF00DF06000F9
:103EE00010F00EF0600014F00FF0025003100410F8
:103EF0000510D8A409D0000E026E000E036E000E4D
:103F0000046E000E056E1200960E0B6E06D00B2A84
:103F1000D8900F320E320D320C32000E0C14066E99
:103F2000000E0D14076E000E0E14086EFE0E0F1418
:103F3000096E0650071008100910D8B40DD0E7D745
:103F40000B2A010E0C26000E0D220E220F22D890F5
:103F50000F320E320D320C32000E0C14066E000EB3
:103F60000D14076E000E0E14086EFF0E0F14096E6E
:103F70000650071008100910D8B407D0E1D70B0677
:103F8000D8900C360D360E360F360EBE03D0020E0C
:103F90000B60F5D70BA00E9ED8900B3260002CF072
:103FA00006F0076A086A096A600018F009F0086AF2
:103FB000076A066A06500C1207500D1208500E12BE
:103FC00009500F120A50D8A405AE01D00F8E600020
:103FD00030F002F0600034F003F0600038F004F0DC
:103FE00060003CF005F012006000C4F06AF0600070
:103FF000C8F06BF06000CCF06CF06000D0F06DF0B9
:10400000600080F16AF0600084F16BF0600088F17C
:104010006CF060008CF16DF06000A8F164F060005D
:10402000ACF165F06000B0F166F06000B4F167F0EB
:10403000180E06D00001D8906733663365336433B9
:10404000E82EF8D76451686F696B68516911D8A47C
:1040500019D0D8906A35646F6B35656F6C35666FB3
:104060006D35676F6451651166116711D8A405D06D
:10407000000E616F020E606F1200000E616F030E82
:10408000606F120068296911D8A420D06000A8F1DF
:1040900064F06000ACF165F06000B0F166F06000C3
:1040A000B4F167F0090ED890643765376637673723
:1040B000E82EF9D76451651166116711D8A402D0B2
:1040C000010E01D0000E606F616B1200000E616F77
:1040D000040E606F1200000E00017915816F000E52
:1040E0007A15826F800E7B15836F7F0E7C15846F2F
:1040F0008151821183118411D8A408D0000E796FE8
:10410000000E7A6F000E7B6F000E7C6F000E7D1527
:10411000816F000E7E15826F800E7F15836F7F0E7C
:104120008015846F8151821183118411D8A408D025
:10413000000E7D6F000E7E6F000E7F6F000E806F91
:104140007CAF09D0796D7A1FD8B07A2B7B1FD8B09D
:104150007B2B800E7C5780AF09D07D6D7E1FD8B041
:104160007E2B7F1FD8B07F2B800E8057000E791BCF
:10417000000E7A1B000E7B1B800E7C1B000E7D1B2D
:10418000000E7E1B000E7F1B800E801B7D51795D13
:104190007E517A597F517B5980517C59D8B002D0D9
:1041A000D8901200D8801200600080F167F06000A3
:1041B00084F168F0600088F169F060008CF16AF0C9
:1041C00000016407D8A0650764290FE16529D8A418
:1041D0000CD0000E616F000E606F1200674B682BF1
:1041E000694B6A2B6407D8A0650760009FF1D9FF6F
:1041F0006000A3F1DAFFDF50D8B426D06000A7F149
:10420000F6FF6000ABF1F7FF000EF86E0800F55006
:104210000009D8B419D064516511D8B415D0600024
:104220009FF1D9FF6000A3F1DAFFDF50666F6000F5
:10423000A7F1F6FF6000ABF1F7FF000EF86E080083
:10424000F5506619D8B4CAD760009FF1D9FF600055
:10425000A3F1DAFFDF50666F6000A7F1F6FF6000A0
:10426000ABF1F7FF000EF86E0800F550665D606F69
:10427000616BD8A061071200000162356335696F78
:104280006951D8A409D0000E606F000E616F000E56
:10429000626F000E636F1200600080F164F06000D6
:1042A00084F165F0600088F166F060008CF167F0E1
:1042B000200E05D0D8906733663365336433E82E1B
:1042C000F9D76451686F628FFF0E6017FF0E611798
:1042D000FF0E6217000E6317960E695F69AF0DD06F
:1042E0006951800A970FD8A0CED7D8906333623334
:1042F00061336033693FF9D70DD01F0E696507D070
:10430000C2D7D89060376137623763376907695120
:10431000D8A4F7D76851D8B408D0631F621F611FB3
:10432000606D000E612362236323600080F160F002
:10433000600084F161F0600088F162F060008CF14F
:1043400063F012000B0E00016D6FB80E6C6F000E63
:104350006B6F000E6A6F2ED06A516425686F6B51C7
:104360006521696F6000A3F1F6FF6000A7F1F7FF18
:10437000000EF86E1F0EF76403D00800F55007D04A
:104380006F00DBFFE1FF6F00DFFFE2FFE750D4ECDF
:1043900026F00009D8A407D000016C07D8A06D074B
:1043A0006A07D8A06B0700016C516D11D8B41200D8
:1043B0006A4B6B2B66516A5D6B51800A686F67515F
:1043C000800A6859D8A0C8D70B0E6D6FB80E6C6FF5
:1043D0000D0ED4EC26F00009D8A409D000016C071A
:1043E000D8A06D076C29F4E16D29D8A4F1D70A0E85
:1043F000D4EC26F00009D8A4120000016C07D8A064
:104400006D076C29F4E16D29D8B41200F0D73FA0F4
:104410000ED06000C8F169F06000CCF16AF0600075
:10442000C0F16BF06000C4F16CF0D5EC25F0000138
:1044300075BF07D06000D0F179F06000D4F17AF058
:1044400004D0000E7A6F000E796F000E786F000EA8
:10445000776F0FD0000E616F200E606F6000C0F1AB
:1044600062F06000C4F163F0BCEC22F00001774B15
:10447000782B7951775D7851800A766F7A51800A6E
:104480007659D8A0E7D73FB00ED06000C8F169F0E8
:104490006000CCF16AF06000C0F16BF06000C4F124
:1044A0006CF0D5EC25F06000C8F160F06000CCF154
:1044B00061F068EC26F0000179516025706F7A5147
:1044C0006121716F12004350D8A402D0000E120077
:1044D0004304D8A408D0430E01010019D8B403D076
:1044E000000E436EF3D7020E4318D8A408D02F0E47
:1044F00001010165F5D7390E016501D0F1D7030E31
:104500004318D8A408D02F0E01010265E9D7390E4F
:10451000026501D0E5D7040E4318D8A405D00D0ECE
:1045200001010319D8A4DCD7050E4318D8A4CED7AF
:10453000430E01010019D8A4D3D72F0E0165D0D79F
:104540003A0E0161CDD72F0E0265CAD73A0E02612D
:10455000C7D70D0E0319D8A4C3D70A0E0419D8A4BF
:10456000BFD701510A0DF3500225F00F0001606F13
:10457000000E436E60511200000162516311D8B405
:1045800004D062516311D8A404D06051FAEC26F033
:10459000120020EE04F06251D9266351DA22DE5077
:1045A000DE10D8B416D020EE04F06251D926635143
:1045B000DA2210EE02F06251E1266351E222DE506F
:1045C000E65CE650800A686FDE50800A6859D8B011
:1045D000120020EE02F06251D9266351DA226F00F8
:1045E00078FF64F06F0074FF65F060008BF1D9FF15
:1045F00060008FF1DAFF6F0078FF66F06F0074FFE4
:1046000067F064516625D96E65516721DA6E6000E6
:1046100083F1DFFF20EE02F06251D9266351DA22E6
:10462000DE2A000EDD2212000001FF6F40D0700E66
:104630000001606F010E616F000E626F000E646F0B
:10464000200E636F31EC26F0700E0001ED6F010E4D
:10465000EE6F190EEF6F200EF06F6000D4F0F1F0E6
:104660006000D8F0F2F06000DCF0F3F06000E0F001
:10467000F4F052EC25F0700E0001646F010E656FCE
:10468000F6EC25F0600080F166F0600084F167F0E0
:10469000A2EC21F01200010E0001646F200E656F84
:1046A000000E676F170E666FA2EC21F0120000017A
:1046B000FF510101906F916B9151000AD8A4EBD783
:1046C0009051000AD8B41200010AD8B4B0D7030A36
:1046D000D8B41200E0D7000E00016015686F000E1C
:1046E0006115696F800E62156A6F7F0E63156B6FBF
:1046F000685169116A116B11D8A408D0000E606F5F
:10470000000E616F000E626F000E636F000E641585
:10471000686F000E6515696F800E66156A6F7F0EF3
:1047200067156B6F685169116A116B11D8A408D0B5
:10473000000E646F000E656F000E666F000E676FEF
:10474000645160190AE16551611907E16651621906
:1047500004E167516319D8B402D0D8901200D88010
:104760001200000E0001656F63AF06D0626D631F1B
:10477000D8B0632B010E656F61AF06D0606D611F0D
:10478000D8B0612B010E651B000E676F000E666FBF
:1047900062516311D8B41CD0010E646F04D0D8905C
:1047A00062376337642B63AFFAD7D89066376737C1
:1047B0006251605D63516159D8A005D06251605F5C
:1047C0006351615B6681D89063336233642FEDD7A8
:1047D0006551D8B404D0666D671FD8B0672B6000F0
:1047E00098F160F060009CF161F012000001626FCE
:1047F000C48CC49E3A01609D609F160EE56F130E37
:10480000176F10D0030E3D01F66F400E09D0010E58
:104810003D01F66F140E04D0000E3D01F66F890EB7
:10482000F56F11D000016251606F616B6151000A38
:10483000D8A4F2D76051010AD8B4E4D7030AD8B497
:10484000E6D7010AE9D7000E436EB00EF26F000EF4
:10485000F36F800EDC6F000EFA6F000EF86F3901F7
:104860009387938983878389000EA36F3D01F38F1C
:02487000120034
:104874006F00BCFB2BF02C6A3E01F0512A6E296AB2
:104884002B5029102B6E2C502A102C6E6000ACF08B
:1048940002F06000B0F003F0000E03BEFF0E046EE1
:1048A400056E010E42EC1FF0600008F010F060008D
:1048B4000CF011F0600010F012F0600014F013F02E
:1048C400680E146EE80E156E9F0E166E3A0E176E75
:1048D400A4EC17F0600040F035F0600044F036F0CE
:1048E400600048F037F060004CF038F03901A195D1
:1048F4001100000E0001656F61AF06D0606D611F8D
:10490400D8B0612B010E656F63AF04D0626D631F75
:10491400D8B0632B62516311D8B418D0010E646F00
:1049240004D0D89062376337642B63AFFAD76251EF
:10493400605D63516159D8A004D06251605F6351D6
:10494400615BD89063336233642FF1D76551D8B477
:1049540004D0606D611FD8B0612B600080F160F0FD
:10496400600084F161F0120060009CF3EBF06000E1
:10497400A0F3ECF0000E3A6E000E396E18D0600011
:1049840094F3D1F0600098F3D2F0EB0E0001D36FF2
:10499400000ED46F6000A4F3D5F06000A8F3D6F045
:1049A4007DEC19F00001D1513926D2513A22600030
:1049B400AFF3F6FF6000B3F3F7FF000EF86E0800E4
:1049C400F5500009D8A4DBD76000E4F0E5F06000FE
:1049D400E8F0E6F01200600088F166F060008CF107
:1049E40067F0600080F168F0600084F169F0000114
:1049F4006651646F6751656F664B672B600093F176
:104A0400F6FF600097F1F7FF000EF86E6000A3F167
:104A1400D9FF6000A7F1DAFF684B692B1F0EF7641A
:104A240003D00800F55007D06F00DBFFE1FF6F00F3
:104A3400DFFFE2FFE750DF6EDF50D8B41200D7D7B4
:104A4400000E00017D1B000E7E1B000E7F1B800EDE
:104A5400801B6000E4F160F06000E8F161F0600048
:104A6400ECF162F06000F0F163F06000F4F164F0E6
:104A74006000F8F165F06000FCF166F0600000F29F
:104A840067F048EC1BF0600080F179F0600084F17D
:104A94007AF0600088F17BF060008CF17CF0120009
:104AA400F10E0001F76F000EF86F6000B4F3F9F037
:104AB4006000B8F3FAF0000EFC6F000EFB6F000EFE
:104AC400FE6F000EFD6FF90EE56F000EE66F6000DD
:104AD400BCF3E7F06000C0F3E8F0F70EE96F000EF6
:104AE400EA6FB6EC24F00001FB51ED25D96EFC51C0
:104AF400EE21DA6E000EDF6E1200080E3901DF6F50
:104B0400000EDE6F400EDD6FDCBD02D0DCA5FCD7ED
:104B1400010ED46E070E5C6F3F0E5B6F3A01BF91BE
:104B2400C4EC26F0010EF6EC23F0B3EC26F0D28EA2
:104B3400D28CD28AC2903A014081C2924083BA9206
:104B440063EC22F00101926F925114EC23F0F8D738
:104B5400BF0E0001686FFF0E696F600098F16AF084
:104B640060009CF16BF068516A2769516B236B51AB
:104B740006E11A0E6A5DD8B002D0010E01D0000E13
:104B84006C6F6D6B6C516D11D8B406D0200E66112C
:104B9400666F6751676F1200600098F166F06000FD
:104BA4009CF167F01200000E00016F6F000E6E6F33
:104BB4000FD06000B4F160F0616B6000ACF162F0A2
:104BC4006000B0F163F0BCEC22F000016E4B6F2B7F
:104BD4006E516925D96E6F516A21DA6EDF506D6F9F
:104BE4006D51D8B41200E5D7000E0001636F000EBA
:104BF400626F700E6225D96E010E6321DA6EDF508A
:104C0400D8B40AD0624B632B63BFF3D7635104E17A
:104C1400200E625DD8A0EDD7600088F160F06000DE
:104C24008CF161F012000001605161116211631195
:104C3400D8B408D0000E601B000E611B000E621B6E
:104C4400800E631B600080F160F0600084F161F00D
:104C5400600088F162F060008CF163F01200000ED5
:104C64000001676F000E666F0BD066516025D96E28
:104C740067516121DA6E60008BF1DFFF664B672BB1
:104C84006351665D6751800A656F6451800A655996
:104C9400D8B01200EAD7BF0E0001626FFF0E636F37
:104CA400600080F164F0600084F165F06251642773
:104CB40063516523655106E11A0E645DD8B002D0D4
:104CC400010E01D0000E606F616B1200600080F174
:104CD40062F0600084F163F003D00001604B612B4B
:104CE400600083F1D9FF600087F1DAFFDF50D8A4B8
:104CF400F4D700016251605D606F63516159616F67
:024D040012009B
:104D0800B89E412A020E4118D8A402D0BA9007D002
:104D1800280E4118D8A403D0BA80000E416EB00EF8
:104D2800B66E3C0EB76E0C0EEDEC26F03901A39F63
:104D3800B88E110000EE00F1900EEE6AE806FDE173
:104D480000EE2DF0170EEE6AE806FDE1080ED56EAE
:104D5800000ED66E000ED76E00017FEF25F0C388D7
:104D68003A015089940E3E01F86F000EF96F000E5B
:104D7800FA6F000EFD6F390181959185A19512009A
:104D8800100EB86E750EB96EB00EB66E3C0EB76EDC
:104D9800000E416E3901839FA39F938FB88E120036
:104DA8000001606F390193B906D0600080F142F0CC
:0A4DB8009389010E1200000E120094
:104DC400000E4324D96EDA6A010EDA226F00A3F7CB
:104DD400DFFF432A1100016E600007F0F1FE3E017F
:104DE400F881120060000BF1EAFD3901939911007A
:024DF4001200AB
:024DF8001100A8
:020000040020DA
:10000000FF0FFF0FFF0FFF0FFF0FFF0FFF0FFF0F80
:020000040030CA
:0A0000008CD7BDFC9FFFFFDFFFFF60
:00000001FF
