:020000040000FA
:0400000069EF00F0B4
:060008004C82A1EF00F0A4
:100018004C80D8CF3EF0E8CF3FF0E0CF40F0E1CFC2
:1000280041F0E2CF42F0D9CF43F0DACF44F09EACB2
:1000380003D0010E316E9E9C9EA635D0C7B6C5B0C2
:100048002CD03250D8A416D0C6AEC7B011D0C7A491
:1000580006D0C5CF3DF01F0E3D16D8A409D021C04B
:10006800C9FF0FEC01F02B06D8A02C06010E19D001
:10007800030E17D03204D8A415D0C5BCF9D72B501D
:100088002C10D8A402D0C5840DD021C0C9FF0FEC14
:1000980001F02B06D8A02C0605D0C7B8C5B402D0ED
:1000A800020E326E9E96F2B4F29444C0DAFF43C058
:1000B800D9FF42C0E2FF41C0E1FF40C0E0FF3FC0BE
:1000C800E8FF3EC0D8FF4C90100070EF01F0700EB2
:1000D800D36E940ED26E800E9B6ED3A4D2B202D091
:1000E800D2AEFBD7000E496E030E486E44EC01F009
:1000F8002DEC01F07DEC01F09292D08EF28EF28C14
:10010800898089822B0E4B6E9D0E4A6EF90EE82E61
:10011800FED74A2EFCD74B2EFAD700F08990899249
:100128002B0E4B6E9D0E4A6EF90EE82EFED74A2E08
:10013800FCD74B2EFAD700F0E3D7D9CF39F0DACF76
:100148003AF09DB89EA805D0ACA203D033C0ADFF4D
:100158009D989EAA1CD0ABB418D0ABB2AB92010E3E
:100168002F24D96E000E3020DA6EAECFDFFF2F4A73
:10017800302A210E2F183010D8A409D0000E386E5E
:10018800030E376E5AEC01F002D0AB9EF7D73AC097
:10019800DAFF39C0D9FF4C921100476E000EB86ED5
:1001A80009D09B0EAF6E1200330EAF6E1200190EFF
:1001B800AF6E12004750456E466A4650000AD8A4F2
:1001C80012004550010AD8B4ECD7030AD8B4ECD7CA
:1001D800010AD8A41200EBD7366E000EB86E09D00B
:1001E8009B0EAF6E1200330EAF6E1200190EAF6E7B
:1001F80012003650346E356A3550000AD8A4120001
:100208003450010AD8B4ECD7030AD8B4ECD7010AA1
:10021800D8A41200EBD7000E3C6E000E3B6E220EE7
:100228003B24D96E000E3C20DA6E210E3B24E16E91
:10023800000E3C20E26EDFCFE7FF3B4A3C2A3CBE83
:10024800EED73C5005E1040E3B5CD8B01200E7D76E
:1002580012000F015C915C93938093827F9C9F9620
:10026800A2969D86A0869E96A196770EC86E000ED1
:10027800C56E640ECB6E800EC76E280EC66E120059
:10028800948C948E0F015D9D5D9F000E306E000E64
:100298002F6E7E9C240EAC6E4850D1EC00F0900E70
:1002A800AB6E9F889F8A9D8A9D981200948C948E2D
:1002B8000F015D9D5D9F000E306E000E2F6E7E9CBF
:1002C800240EAC6E3750F0EC00F0900EAB6E9F88A9
:1002D8009F8A9D8A9D98120000EE01F0330EEE6A07
:1002E800E806FDE14C904C92000EF86E00016BEFB1
:0602F80000F092901200DC
:020000040020DA
:08000000FFFFFFFFFFFFFFFF00
:020000040030CA
:0E00000023684720FFD181FF0FC00FE00F40A3
:00000001FF
