:020000040000FA
:0400000069EF00F0B4
:060008004A826BEF00F0DC
:100018004A80D8CF3EF0E8CF3FF0E0CF40F0E1CFC4
:1000280041F0E2CF42F0D9CF43F0DACF44F09EACB2
:1000380003D0010E316E9E9C9EA635D0C7B6C5B0C2
:100048002CD03250D8A416D0C6AEC7B011D0C7A491
:1000580006D0C5CF3DF01F0E3D16D8A409D021C04B
:10006800C9FFD9EC00F02B06D8A02C06010E19D038
:10007800030E17D03204D8A415D0C5BCF9D72B501D
:100088002C10D8A402D0C5840DD021C0C9FFD9EC4A
:1000980000F02B06D8A02C0605D0C7B8C5B402D0EE
:1000A800020E326E9E96F2B4F29444C0DAFF43C058
:1000B800D9FF42C0E2FF41C0E1FF40C0E0FF3FC0BE
:1000C800E8FF3EC0D8FF4A90100053EF01F0D9CFA7
:1000D80039F0DACF3AF09DB89EA805D0ACA203D08B
:1000E80033C0ADFF9D989EAA1CD0ABB418D0ABB25C
:1000F800AB92010E2F24D96E000E3020DA6EAECFEF
:10010800DFFF2F4A302A210E2F183010D8A409D02B
:10011800000E386E030E376E3DEC01F002D0AB9E38
:10012800F7D73AC0DAFF39C0D9FF4A921100476EB3
:10013800000EB86E09D09B0EAF6E1200330EAF6E74
:100148001200190EAF6E12004750456E466A4650AF
:10015800000AD8A412004550010AD8B4ECD7030A03
:10016800D8B4ECD7010AD8A41200EBD7366E000E2B
:10017800B86E09D09B0EAF6E1200330EAF6E120030
:10018800190EAF6E12003650346E356A3550000ABB
:10019800D8A412003450010AD8B4ECD7030AD8B452
:1001A800ECD7010AD8A41200EBD7000E3C6E000E63
:1001B8003B6E220E3B24D96E000E3C20DA6E210ED7
:1001C8003B24E16E000E3C20E26EDFCFE7FF3B4AA6
:1001D8003C2A3CBEEED73C5005E1040E3B5CD8B04F
:1001E8001200E7D71200700ED36E940ED26E800EF6
:1001F8009B6ED3A4D2B202D0D2AEFBD7000E496E0A
:10020800030E486E27EC01F010EC01F060EC01F0F1
:10021800D08EF28EF28CFFD70F015C915C939380A5
:1002280093827F9C9F96A2969D86A0869E96A19675
:10023800770EC86E000EC56E640ECB6E800EC76E4C
:10024800280EC66E1200948C948E0F015D9D5D9FE2
:10025800000E306E000E2F6E7E9C240EAC6E485041
:100268009BEC00F0900EAB6E9F889F8A9D8A9D98AC
:100278001200948C948E0F015D9D5D9F000E306E70
:10028800000E2F6E7E9C240EAC6E3750BAEC00F038
:10029800900EAB6E9F889F8A9D8A9D98120000EEF3
:1002A80001F0330EEE6AE806FDE14A904A92000E2C
:0C02B800F86E0001F7EF00F092901200C9
:020000040020DA
:08000000FFFFFFFFFFFFFFFF00
:020000040030CA
:0E00000023684720FFD181FF0FC00FE00F40A3
:00000001FF
